{
	"contracts/crowdFunding.sol": {
		"CroudFunding": {
			"abi": [
				{
					"inputs": [
						{
							"internalType": "uint256",
							"name": "_target",
							"type": "uint256"
						},
						{
							"internalType": "uint256",
							"name": "_deadline",
							"type": "uint256"
						}
					],
					"stateMutability": "nonpayable",
					"type": "constructor"
				},
				{
					"inputs": [
						{
							"internalType": "string",
							"name": "_description",
							"type": "string"
						},
						{
							"internalType": "address payable",
							"name": "_recipient",
							"type": "address"
						},
						{
							"internalType": "uint256",
							"name": "_value",
							"type": "uint256"
						}
					],
					"name": "createRequests",
					"outputs": [],
					"stateMutability": "nonpayable",
					"type": "function"
				},
				{
					"inputs": [],
					"name": "deadline",
					"outputs": [
						{
							"internalType": "uint256",
							"name": "",
							"type": "uint256"
						}
					],
					"stateMutability": "view",
					"type": "function"
				},
				{
					"inputs": [],
					"name": "getContractBalance",
					"outputs": [
						{
							"internalType": "uint256",
							"name": "",
							"type": "uint256"
						}
					],
					"stateMutability": "view",
					"type": "function"
				},
				{
					"inputs": [],
					"name": "manager",
					"outputs": [
						{
							"internalType": "address",
							"name": "",
							"type": "address"
						}
					],
					"stateMutability": "view",
					"type": "function"
				},
				{
					"inputs": [],
					"name": "minContribution",
					"outputs": [
						{
							"internalType": "uint256",
							"name": "",
							"type": "uint256"
						}
					],
					"stateMutability": "view",
					"type": "function"
				},
				{
					"inputs": [],
					"name": "noOfContributors",
					"outputs": [
						{
							"internalType": "uint256",
							"name": "",
							"type": "uint256"
						}
					],
					"stateMutability": "view",
					"type": "function"
				},
				{
					"inputs": [],
					"name": "numRequests",
					"outputs": [
						{
							"internalType": "uint256",
							"name": "",
							"type": "uint256"
						}
					],
					"stateMutability": "view",
					"type": "function"
				},
				{
					"inputs": [],
					"name": "raisedAmt",
					"outputs": [
						{
							"internalType": "uint256",
							"name": "",
							"type": "uint256"
						}
					],
					"stateMutability": "view",
					"type": "function"
				},
				{
					"inputs": [],
					"name": "refund",
					"outputs": [],
					"stateMutability": "nonpayable",
					"type": "function"
				},
				{
					"inputs": [
						{
							"internalType": "uint256",
							"name": "_reqNo",
							"type": "uint256"
						}
					],
					"name": "reqPayment",
					"outputs": [],
					"stateMutability": "nonpayable",
					"type": "function"
				},
				{
					"inputs": [
						{
							"internalType": "uint256",
							"name": "",
							"type": "uint256"
						}
					],
					"name": "requests",
					"outputs": [
						{
							"internalType": "string",
							"name": "description",
							"type": "string"
						},
						{
							"internalType": "address payable",
							"name": "recipient",
							"type": "address"
						},
						{
							"internalType": "uint256",
							"name": "value",
							"type": "uint256"
						},
						{
							"internalType": "bool",
							"name": "completed",
							"type": "bool"
						},
						{
							"internalType": "uint256",
							"name": "noOfVoters",
							"type": "uint256"
						}
					],
					"stateMutability": "view",
					"type": "function"
				},
				{
					"inputs": [],
					"name": "sendEth",
					"outputs": [],
					"stateMutability": "payable",
					"type": "function"
				},
				{
					"inputs": [],
					"name": "target",
					"outputs": [
						{
							"internalType": "uint256",
							"name": "",
							"type": "uint256"
						}
					],
					"stateMutability": "view",
					"type": "function"
				},
				{
					"inputs": [
						{
							"internalType": "uint256",
							"name": "_reqNo",
							"type": "uint256"
						}
					],
					"name": "voteRequest",
					"outputs": [],
					"stateMutability": "nonpayable",
					"type": "function"
				}
			],
			"devdoc": {
				"kind": "dev",
				"methods": {},
				"version": 1
			},
			"evm": {
				"assembly": "    /* \"contracts/crowdFunding.sol\":88:2905  contract CroudFunding{... */\n  mstore(0x40, 0x80)\n    /* \"contracts/crowdFunding.sol\":618:813  constructor(uint _target, uint _deadline){... */\n  callvalue\n  dup1\n  iszero\n  tag_1\n  jumpi\n  0x00\n  dup1\n  revert\ntag_1:\n  pop\n  mload(0x40)\n  sub(codesize, bytecodeSize)\n  dup1\n  bytecodeSize\n  dup4\n  codecopy\n  dup2\n  dup2\n  add\n  0x40\n  mstore\n  dup2\n  add\n  swap1\n  tag_2\n  swap2\n  swap1\n  tag_3\n  jump\t// in\ntag_2:\n    /* \"contracts/crowdFunding.sol\":679:686  _target */\n  dup2\n    /* \"contracts/crowdFunding.sol\":670:676  target */\n  0x03\n    /* \"contracts/crowdFunding.sol\":670:686  target = _target */\n  dup2\n  swap1\n  sstore\n  pop\n    /* \"contracts/crowdFunding.sol\":726:735  _deadline */\n  dup1\n    /* \"contracts/crowdFunding.sol\":708:723  block.timestamp */\n  timestamp\n    /* \"contracts/crowdFunding.sol\":708:735  block.timestamp + _deadline */\n  tag_6\n  swap2\n  swap1\n  tag_7\n  jump\t// in\ntag_6:\n    /* \"contracts/crowdFunding.sol\":697:705  deadline */\n  0x02\n    /* \"contracts/crowdFunding.sol\":697:735  deadline = block.timestamp + _deadline */\n  dup2\n  swap1\n  sstore\n  pop\n    /* \"contracts/crowdFunding.sol\":764:771  100 wei */\n  0x64\n    /* \"contracts/crowdFunding.sol\":746:761  minContribution */\n  0x04\n    /* \"contracts/crowdFunding.sol\":746:771  minContribution = 100 wei */\n  dup2\n  swap1\n  sstore\n  pop\n    /* \"contracts/crowdFunding.sol\":792:802  msg.sender */\n  caller\n    /* \"contracts/crowdFunding.sol\":782:789  manager */\n  0x01\n  0x00\n    /* \"contracts/crowdFunding.sol\":782:802  manager = msg.sender */\n  0x0100\n  exp\n  dup2\n  sload\n  dup2\n  0xffffffffffffffffffffffffffffffffffffffff\n  mul\n  not\n  and\n  swap1\n  dup4\n  0xffffffffffffffffffffffffffffffffffffffff\n  and\n  mul\n  or\n  swap1\n  sstore\n  pop\n    /* \"contracts/crowdFunding.sol\":618:813  constructor(uint _target, uint _deadline){... */\n  pop\n  pop\n    /* \"contracts/crowdFunding.sol\":88:2905  contract CroudFunding{... */\n  jump(tag_8)\n    /* \"#utility.yul\":88:205   */\ntag_10:\n    /* \"#utility.yul\":197:198   */\n  0x00\n    /* \"#utility.yul\":194:195   */\n  dup1\n    /* \"#utility.yul\":187:199   */\n  revert\n    /* \"#utility.yul\":334:411   */\ntag_12:\n    /* \"#utility.yul\":371:378   */\n  0x00\n    /* \"#utility.yul\":400:405   */\n  dup2\n    /* \"#utility.yul\":389:405   */\n  swap1\n  pop\n    /* \"#utility.yul\":334:411   */\n  swap2\n  swap1\n  pop\n  jump\t// out\n    /* \"#utility.yul\":417:539   */\ntag_13:\n    /* \"#utility.yul\":490:514   */\n  tag_22\n    /* \"#utility.yul\":508:513   */\n  dup2\n    /* \"#utility.yul\":490:514   */\n  tag_12\n  jump\t// in\ntag_22:\n    /* \"#utility.yul\":483:488   */\n  dup2\n    /* \"#utility.yul\":480:515   */\n  eq\n    /* \"#utility.yul\":470:533   */\n  tag_23\n  jumpi\n    /* \"#utility.yul\":529:530   */\n  0x00\n    /* \"#utility.yul\":526:527   */\n  dup1\n    /* \"#utility.yul\":519:531   */\n  revert\n    /* \"#utility.yul\":470:533   */\ntag_23:\n    /* \"#utility.yul\":417:539   */\n  pop\n  jump\t// out\n    /* \"#utility.yul\":545:688   */\ntag_14:\n    /* \"#utility.yul\":602:607   */\n  0x00\n    /* \"#utility.yul\":633:639   */\n  dup2\n    /* \"#utility.yul\":627:640   */\n  mload\n    /* \"#utility.yul\":618:640   */\n  swap1\n  pop\n    /* \"#utility.yul\":649:682   */\n  tag_25\n    /* \"#utility.yul\":676:681   */\n  dup2\n    /* \"#utility.yul\":649:682   */\n  tag_13\n  jump\t// in\ntag_25:\n    /* \"#utility.yul\":545:688   */\n  swap3\n  swap2\n  pop\n  pop\n  jump\t// out\n    /* \"#utility.yul\":694:1201   */\ntag_3:\n    /* \"#utility.yul\":773:779   */\n  0x00\n    /* \"#utility.yul\":781:787   */\n  dup1\n    /* \"#utility.yul\":830:832   */\n  0x40\n    /* \"#utility.yul\":818:827   */\n  dup4\n    /* \"#utility.yul\":809:816   */\n  dup6\n    /* \"#utility.yul\":805:828   */\n  sub\n    /* \"#utility.yul\":801:833   */\n  slt\n    /* \"#utility.yul\":798:917   */\n  iszero\n  tag_27\n  jumpi\n    /* \"#utility.yul\":836:915   */\n  tag_28\n  tag_10\n  jump\t// in\ntag_28:\n    /* \"#utility.yul\":798:917   */\ntag_27:\n    /* \"#utility.yul\":956:957   */\n  0x00\n    /* \"#utility.yul\":981:1045   */\n  tag_29\n    /* \"#utility.yul\":1037:1044   */\n  dup6\n    /* \"#utility.yul\":1028:1034   */\n  dup3\n    /* \"#utility.yul\":1017:1026   */\n  dup7\n    /* \"#utility.yul\":1013:1035   */\n  add\n    /* \"#utility.yul\":981:1045   */\n  tag_14\n  jump\t// in\ntag_29:\n    /* \"#utility.yul\":971:1045   */\n  swap3\n  pop\n    /* \"#utility.yul\":927:1055   */\n  pop\n    /* \"#utility.yul\":1094:1096   */\n  0x20\n    /* \"#utility.yul\":1120:1184   */\n  tag_30\n    /* \"#utility.yul\":1176:1183   */\n  dup6\n    /* \"#utility.yul\":1167:1173   */\n  dup3\n    /* \"#utility.yul\":1156:1165   */\n  dup7\n    /* \"#utility.yul\":1152:1174   */\n  add\n    /* \"#utility.yul\":1120:1184   */\n  tag_14\n  jump\t// in\ntag_30:\n    /* \"#utility.yul\":1110:1184   */\n  swap2\n  pop\n    /* \"#utility.yul\":1065:1194   */\n  pop\n    /* \"#utility.yul\":694:1201   */\n  swap3\n  pop\n  swap3\n  swap1\n  pop\n  jump\t// out\n    /* \"#utility.yul\":1207:1387   */\ntag_15:\n    /* \"#utility.yul\":1255:1332   */\n  0x4e487b7100000000000000000000000000000000000000000000000000000000\n    /* \"#utility.yul\":1252:1253   */\n  0x00\n    /* \"#utility.yul\":1245:1333   */\n  mstore\n    /* \"#utility.yul\":1352:1356   */\n  0x11\n    /* \"#utility.yul\":1349:1350   */\n  0x04\n    /* \"#utility.yul\":1342:1357   */\n  mstore\n    /* \"#utility.yul\":1376:1380   */\n  0x24\n    /* \"#utility.yul\":1373:1374   */\n  0x00\n    /* \"#utility.yul\":1366:1381   */\n  revert\n    /* \"#utility.yul\":1393:1584   */\ntag_7:\n    /* \"#utility.yul\":1433:1436   */\n  0x00\n    /* \"#utility.yul\":1452:1472   */\n  tag_33\n    /* \"#utility.yul\":1470:1471   */\n  dup3\n    /* \"#utility.yul\":1452:1472   */\n  tag_12\n  jump\t// in\ntag_33:\n    /* \"#utility.yul\":1447:1472   */\n  swap2\n  pop\n    /* \"#utility.yul\":1486:1506   */\n  tag_34\n    /* \"#utility.yul\":1504:1505   */\n  dup4\n    /* \"#utility.yul\":1486:1506   */\n  tag_12\n  jump\t// in\ntag_34:\n    /* \"#utility.yul\":1481:1506   */\n  swap3\n  pop\n    /* \"#utility.yul\":1529:1530   */\n  dup3\n    /* \"#utility.yul\":1526:1527   */\n  dup3\n    /* \"#utility.yul\":1522:1531   */\n  add\n    /* \"#utility.yul\":1515:1531   */\n  swap1\n  pop\n    /* \"#utility.yul\":1550:1553   */\n  dup1\n    /* \"#utility.yul\":1547:1548   */\n  dup3\n    /* \"#utility.yul\":1544:1554   */\n  gt\n    /* \"#utility.yul\":1541:1577   */\n  iszero\n  tag_35\n  jumpi\n    /* \"#utility.yul\":1557:1575   */\n  tag_36\n  tag_15\n  jump\t// in\ntag_36:\n    /* \"#utility.yul\":1541:1577   */\ntag_35:\n    /* \"#utility.yul\":1393:1584   */\n  swap3\n  swap2\n  pop\n  pop\n  jump\t// out\n    /* \"contracts/crowdFunding.sol\":88:2905  contract CroudFunding{... */\ntag_8:\n  dataSize(sub_0)\n  dup1\n  dataOffset(sub_0)\n  0x00\n  codecopy\n  0x00\n  return\nstop\n\nsub_0: assembly {\n        /* \"contracts/crowdFunding.sol\":88:2905  contract CroudFunding{... */\n      mstore(0x40, 0x80)\n      jumpi(tag_1, lt(calldatasize, 0x04))\n      shr(0xe0, calldataload(0x00))\n      dup1\n      0x4e260f6f\n      gt\n      tag_16\n      jumpi\n      dup1\n      0x81d12c58\n      gt\n      tag_17\n      jumpi\n      dup1\n      0x81d12c58\n      eq\n      tag_12\n      jumpi\n      dup1\n      0x9fb42b1f\n      eq\n      tag_13\n      jumpi\n      dup1\n      0xaaffadf3\n      eq\n      tag_14\n      jumpi\n      dup1\n      0xd4b83992\n      eq\n      tag_15\n      jumpi\n      jump(tag_1)\n    tag_17:\n      dup1\n      0x4e260f6f\n      eq\n      tag_9\n      jumpi\n      dup1\n      0x590e1ae3\n      eq\n      tag_10\n      jumpi\n      dup1\n      0x6f9fb98a\n      eq\n      tag_11\n      jumpi\n      jump(tag_1)\n    tag_16:\n      dup1\n      0x3eb7647b\n      gt\n      tag_18\n      jumpi\n      dup1\n      0x3eb7647b\n      eq\n      tag_5\n      jumpi\n      dup1\n      0x3ece2b4f\n      eq\n      tag_6\n      jumpi\n      dup1\n      0x481c6a75\n      eq\n      tag_7\n      jumpi\n      dup1\n      0x4cb6f4a5\n      eq\n      tag_8\n      jumpi\n      jump(tag_1)\n    tag_18:\n      dup1\n      0x06e99fef\n      eq\n      tag_2\n      jumpi\n      dup1\n      0x10e96b91\n      eq\n      tag_3\n      jumpi\n      dup1\n      0x29dcb0cf\n      eq\n      tag_4\n      jumpi\n    tag_1:\n      0x00\n      dup1\n      revert\n        /* \"contracts/crowdFunding.sol\":821:1176  function sendEth() public payable{... */\n    tag_2:\n      tag_19\n      tag_20\n      jump\t// in\n    tag_19:\n      stop\n        /* \"contracts/crowdFunding.sol\":2467:2900  function reqPayment(uint _reqNo) public onlyManager{... */\n    tag_3:\n      callvalue\n      dup1\n      iszero\n      tag_21\n      jumpi\n      0x00\n      dup1\n      revert\n    tag_21:\n      pop\n      tag_22\n      0x04\n      dup1\n      calldatasize\n      sub\n      dup2\n      add\n      swap1\n      tag_23\n      swap2\n      swap1\n      tag_24\n      jump\t// in\n    tag_23:\n      tag_25\n      jump\t// in\n    tag_22:\n      stop\n        /* \"contracts/crowdFunding.sol\":187:207  uint public deadline */\n    tag_4:\n      callvalue\n      dup1\n      iszero\n      tag_26\n      jumpi\n      0x00\n      dup1\n      revert\n    tag_26:\n      pop\n      tag_27\n      tag_28\n      jump\t// in\n    tag_27:\n      mload(0x40)\n      tag_29\n      swap2\n      swap1\n      tag_30\n      jump\t// in\n    tag_29:\n      mload(0x40)\n      dup1\n      swap2\n      sub\n      swap1\n      return\n        /* \"contracts/crowdFunding.sol\":1709:2110  function createRequests(string memory _description, address payable _recipient, uint _value ) public onlyManager{... */\n    tag_5:\n      callvalue\n      dup1\n      iszero\n      tag_31\n      jumpi\n      0x00\n      dup1\n      revert\n    tag_31:\n      pop\n      tag_32\n      0x04\n      dup1\n      calldatasize\n      sub\n      dup2\n      add\n      swap1\n      tag_33\n      swap2\n      swap1\n      tag_34\n      jump\t// in\n    tag_33:\n      tag_35\n      jump\t// in\n    tag_32:\n      stop\n        /* \"contracts/crowdFunding.sol\":308:329  uint public raisedAmt */\n    tag_6:\n      callvalue\n      dup1\n      iszero\n      tag_36\n      jumpi\n      0x00\n      dup1\n      revert\n    tag_36:\n      pop\n      tag_37\n      tag_38\n      jump\t// in\n    tag_37:\n      mload(0x40)\n      tag_39\n      swap2\n      swap1\n      tag_30\n      jump\t// in\n    tag_39:\n      mload(0x40)\n      dup1\n      swap2\n      sub\n      swap1\n      return\n        /* \"contracts/crowdFunding.sol\":158:180  address public manager */\n    tag_7:\n      callvalue\n      dup1\n      iszero\n      tag_40\n      jumpi\n      0x00\n      dup1\n      revert\n    tag_40:\n      pop\n      tag_41\n      tag_42\n      jump\t// in\n    tag_41:\n      mload(0x40)\n      tag_43\n      swap2\n      swap1\n      tag_44\n      jump\t// in\n    tag_43:\n      mload(0x40)\n      dup1\n      swap2\n      sub\n      swap1\n      return\n        /* \"contracts/crowdFunding.sol\":2116:2460  function voteRequest(uint _reqNo) public{... */\n    tag_8:\n      callvalue\n      dup1\n      iszero\n      tag_45\n      jumpi\n      0x00\n      dup1\n      revert\n    tag_45:\n      pop\n      tag_46\n      0x04\n      dup1\n      calldatasize\n      sub\n      dup2\n      add\n      swap1\n      tag_47\n      swap2\n      swap1\n      tag_24\n      jump\t// in\n    tag_47:\n      tag_48\n      jump\t// in\n    tag_46:\n      stop\n        /* \"contracts/crowdFunding.sol\":273:301  uint public noOfContributors */\n    tag_9:\n      callvalue\n      dup1\n      iszero\n      tag_49\n      jumpi\n      0x00\n      dup1\n      revert\n    tag_49:\n      pop\n      tag_50\n      tag_51\n      jump\t// in\n    tag_50:\n      mload(0x40)\n      tag_52\n      swap2\n      swap1\n      tag_30\n      jump\t// in\n    tag_52:\n      mload(0x40)\n      dup1\n      swap2\n      sub\n      swap1\n      return\n        /* \"contracts/crowdFunding.sol\":1290:1574  function refund() public{... */\n    tag_10:\n      callvalue\n      dup1\n      iszero\n      tag_53\n      jumpi\n      0x00\n      dup1\n      revert\n    tag_53:\n      pop\n      tag_54\n      tag_55\n      jump\t// in\n    tag_54:\n      stop\n        /* \"contracts/crowdFunding.sol\":1182:1284  function getContractBalance() public view returns(uint){... */\n    tag_11:\n      callvalue\n      dup1\n      iszero\n      tag_56\n      jumpi\n      0x00\n      dup1\n      revert\n    tag_56:\n      pop\n      tag_57\n      tag_58\n      jump\t// in\n    tag_57:\n      mload(0x40)\n      tag_59\n      swap2\n      swap1\n      tag_30\n      jump\t// in\n    tag_59:\n      mload(0x40)\n      dup1\n      swap2\n      sub\n      swap1\n      return\n        /* \"contracts/crowdFunding.sol\":542:579  mapping(uint=>Request)public requests */\n    tag_12:\n      callvalue\n      dup1\n      iszero\n      tag_60\n      jumpi\n      0x00\n      dup1\n      revert\n    tag_60:\n      pop\n      tag_61\n      0x04\n      dup1\n      calldatasize\n      sub\n      dup2\n      add\n      swap1\n      tag_62\n      swap2\n      swap1\n      tag_24\n      jump\t// in\n    tag_62:\n      tag_63\n      jump\t// in\n    tag_61:\n      mload(0x40)\n      tag_64\n      swap6\n      swap5\n      swap4\n      swap3\n      swap2\n      swap1\n      tag_65\n      jump\t// in\n    tag_64:\n      mload(0x40)\n      dup1\n      swap2\n      sub\n      swap1\n      return\n        /* \"contracts/crowdFunding.sol\":586:609  uint public numRequests */\n    tag_13:\n      callvalue\n      dup1\n      iszero\n      tag_66\n      jumpi\n      0x00\n      dup1\n      revert\n    tag_66:\n      pop\n      tag_67\n      tag_68\n      jump\t// in\n    tag_67:\n      mload(0x40)\n      tag_69\n      swap2\n      swap1\n      tag_30\n      jump\t// in\n    tag_69:\n      mload(0x40)\n      dup1\n      swap2\n      sub\n      swap1\n      return\n        /* \"contracts/crowdFunding.sol\":239:266  uint public minContribution */\n    tag_14:\n      callvalue\n      dup1\n      iszero\n      tag_70\n      jumpi\n      0x00\n      dup1\n      revert\n    tag_70:\n      pop\n      tag_71\n      tag_72\n      jump\t// in\n    tag_71:\n      mload(0x40)\n      tag_73\n      swap2\n      swap1\n      tag_30\n      jump\t// in\n    tag_73:\n      mload(0x40)\n      dup1\n      swap2\n      sub\n      swap1\n      return\n        /* \"contracts/crowdFunding.sol\":214:232  uint public target */\n    tag_15:\n      callvalue\n      dup1\n      iszero\n      tag_74\n      jumpi\n      0x00\n      dup1\n      revert\n    tag_74:\n      pop\n      tag_75\n      tag_76\n      jump\t// in\n    tag_75:\n      mload(0x40)\n      tag_77\n      swap2\n      swap1\n      tag_30\n      jump\t// in\n    tag_77:\n      mload(0x40)\n      dup1\n      swap2\n      sub\n      swap1\n      return\n        /* \"contracts/crowdFunding.sol\":821:1176  function sendEth() public payable{... */\n    tag_20:\n        /* \"contracts/crowdFunding.sol\":891:899  deadline */\n      sload(0x02)\n        /* \"contracts/crowdFunding.sol\":873:888  block.timestamp */\n      timestamp\n        /* \"contracts/crowdFunding.sol\":873:899  block.timestamp < deadline */\n      lt\n        /* \"contracts/crowdFunding.sol\":865:918  require(block.timestamp < deadline,'deadline passed') */\n      tag_79\n      jumpi\n      mload(0x40)\n      0x08c379a000000000000000000000000000000000000000000000000000000000\n      dup2\n      mstore\n      0x04\n      add\n      tag_80\n      swap1\n      tag_81\n      jump\t// in\n    tag_80:\n      mload(0x40)\n      dup1\n      swap2\n      sub\n      swap1\n      revert\n    tag_79:\n        /* \"contracts/crowdFunding.sol\":950:965  minContribution */\n      sload(0x04)\n        /* \"contracts/crowdFunding.sol\":937:946  msg.value */\n      callvalue\n        /* \"contracts/crowdFunding.sol\":937:965  msg.value >= minContribution */\n      lt\n      iszero\n        /* \"contracts/crowdFunding.sol\":929:997  require(msg.value >= minContribution,\"minimum contribution not met\") */\n      tag_82\n      jumpi\n      mload(0x40)\n      0x08c379a000000000000000000000000000000000000000000000000000000000\n      dup2\n      mstore\n      0x04\n      add\n      tag_83\n      swap1\n      tag_84\n      jump\t// in\n    tag_83:\n      mload(0x40)\n      dup1\n      swap2\n      sub\n      swap1\n      revert\n    tag_82:\n        /* \"contracts/crowdFunding.sol\":1041:1042  0 */\n      0x00\n        /* \"contracts/crowdFunding.sol\":1013:1025  contributors */\n      dup1\n        /* \"contracts/crowdFunding.sol\":1013:1037  contributors[msg.sender] */\n      0x00\n        /* \"contracts/crowdFunding.sol\":1026:1036  msg.sender */\n      caller\n        /* \"contracts/crowdFunding.sol\":1013:1037  contributors[msg.sender] */\n      0xffffffffffffffffffffffffffffffffffffffff\n      and\n      0xffffffffffffffffffffffffffffffffffffffff\n      and\n      dup2\n      mstore\n      0x20\n      add\n      swap1\n      dup2\n      mstore\n      0x20\n      add\n      0x00\n      keccak256\n      sload\n        /* \"contracts/crowdFunding.sol\":1013:1042  contributors[msg.sender] == 0 */\n      sub\n        /* \"contracts/crowdFunding.sol\":1010:1088  if(contributors[msg.sender] == 0){... */\n      tag_85\n      jumpi\n        /* \"contracts/crowdFunding.sol\":1058:1074  noOfContributors */\n      0x05\n      0x00\n        /* \"contracts/crowdFunding.sol\":1058:1076  noOfContributors++ */\n      dup2\n      sload\n      dup1\n      swap3\n      swap2\n      swap1\n      tag_86\n      swap1\n      tag_87\n      jump\t// in\n    tag_86:\n      swap2\n      swap1\n      pop\n      sstore\n      pop\n        /* \"contracts/crowdFunding.sol\":1010:1088  if(contributors[msg.sender] == 0){... */\n    tag_85:\n        /* \"contracts/crowdFunding.sol\":1126:1135  msg.value */\n      callvalue\n        /* \"contracts/crowdFunding.sol\":1098:1110  contributors */\n      0x00\n        /* \"contracts/crowdFunding.sol\":1098:1122  contributors[msg.sender] */\n      dup1\n        /* \"contracts/crowdFunding.sol\":1111:1121  msg.sender */\n      caller\n        /* \"contracts/crowdFunding.sol\":1098:1122  contributors[msg.sender] */\n      0xffffffffffffffffffffffffffffffffffffffff\n      and\n      0xffffffffffffffffffffffffffffffffffffffff\n      and\n      dup2\n      mstore\n      0x20\n      add\n      swap1\n      dup2\n      mstore\n      0x20\n      add\n      0x00\n      keccak256\n      0x00\n        /* \"contracts/crowdFunding.sol\":1098:1135  contributors[msg.sender] += msg.value */\n      dup3\n      dup3\n      sload\n      tag_88\n      swap2\n      swap1\n      tag_89\n      jump\t// in\n    tag_88:\n      swap3\n      pop\n      pop\n      dup2\n      swap1\n      sstore\n      pop\n        /* \"contracts/crowdFunding.sol\":1159:1168  msg.value */\n      callvalue\n        /* \"contracts/crowdFunding.sol\":1146:1155  raisedAmt */\n      0x06\n      0x00\n        /* \"contracts/crowdFunding.sol\":1146:1168  raisedAmt += msg.value */\n      dup3\n      dup3\n      sload\n      tag_90\n      swap2\n      swap1\n      tag_89\n      jump\t// in\n    tag_90:\n      swap3\n      pop\n      pop\n      dup2\n      swap1\n      sstore\n      pop\n        /* \"contracts/crowdFunding.sol\":821:1176  function sendEth() public payable{... */\n      jump\t// out\n        /* \"contracts/crowdFunding.sol\":2467:2900  function reqPayment(uint _reqNo) public onlyManager{... */\n    tag_25:\n        /* \"contracts/crowdFunding.sol\":1635:1642  manager */\n      0x01\n      0x00\n      swap1\n      sload\n      swap1\n      0x0100\n      exp\n      swap1\n      div\n      0xffffffffffffffffffffffffffffffffffffffff\n      and\n        /* \"contracts/crowdFunding.sol\":1621:1642  msg.sender == manager */\n      0xffffffffffffffffffffffffffffffffffffffff\n      and\n        /* \"contracts/crowdFunding.sol\":1621:1631  msg.sender */\n      caller\n        /* \"contracts/crowdFunding.sol\":1621:1642  msg.sender == manager */\n      0xffffffffffffffffffffffffffffffffffffffff\n      and\n      eq\n        /* \"contracts/crowdFunding.sol\":1613:1683  require(msg.sender == manager,\"only manager can call this funcnction\") */\n      tag_92\n      jumpi\n      mload(0x40)\n      0x08c379a000000000000000000000000000000000000000000000000000000000\n      dup2\n      mstore\n      0x04\n      add\n      tag_93\n      swap1\n      tag_94\n      jump\t// in\n    tag_93:\n      mload(0x40)\n      dup1\n      swap2\n      sub\n      swap1\n      revert\n    tag_92:\n        /* \"contracts/crowdFunding.sol\":2550:2556  target */\n      sload(0x03)\n        /* \"contracts/crowdFunding.sol\":2537:2546  raisedAmt */\n      sload(0x06)\n        /* \"contracts/crowdFunding.sol\":2537:2556  raisedAmt >= target */\n      lt\n      iszero\n        /* \"contracts/crowdFunding.sol\":2529:2574  require(raisedAmt >= target,'Target not met') */\n      tag_96\n      jumpi\n      mload(0x40)\n      0x08c379a000000000000000000000000000000000000000000000000000000000\n      dup2\n      mstore\n      0x04\n      add\n      tag_97\n      swap1\n      tag_98\n      jump\t// in\n    tag_97:\n      mload(0x40)\n      dup1\n      swap2\n      sub\n      swap1\n      revert\n    tag_96:\n        /* \"contracts/crowdFunding.sol\":2585:2612  Request storage thisRequest */\n      0x00\n        /* \"contracts/crowdFunding.sol\":2615:2623  requests */\n      0x07\n        /* \"contracts/crowdFunding.sol\":2615:2631  requests[_reqNo] */\n      0x00\n        /* \"contracts/crowdFunding.sol\":2624:2630  _reqNo */\n      dup4\n        /* \"contracts/crowdFunding.sol\":2615:2631  requests[_reqNo] */\n      dup2\n      mstore\n      0x20\n      add\n      swap1\n      dup2\n      mstore\n      0x20\n      add\n      0x00\n      keccak256\n        /* \"contracts/crowdFunding.sol\":2585:2631  Request storage thisRequest = requests[_reqNo] */\n      swap1\n      pop\n        /* \"contracts/crowdFunding.sol\":2675:2680  false */\n      0x00\n        /* \"contracts/crowdFunding.sol\":2650:2680  thisRequest.completed == false */\n      iszero\n      iszero\n        /* \"contracts/crowdFunding.sol\":2650:2661  thisRequest */\n      dup2\n        /* \"contracts/crowdFunding.sol\":2650:2671  thisRequest.completed */\n      0x03\n      add\n      0x00\n      swap1\n      sload\n      swap1\n      0x0100\n      exp\n      swap1\n      div\n      0xff\n      and\n        /* \"contracts/crowdFunding.sol\":2650:2680  thisRequest.completed == false */\n      iszero\n      iszero\n      eq\n        /* \"contracts/crowdFunding.sol\":2642:2710  require(thisRequest.completed == false, 'Request already completed') */\n      tag_99\n      jumpi\n      mload(0x40)\n      0x08c379a000000000000000000000000000000000000000000000000000000000\n      dup2\n      mstore\n      0x04\n      add\n      tag_100\n      swap1\n      tag_101\n      jump\t// in\n    tag_100:\n      mload(0x40)\n      dup1\n      swap2\n      sub\n      swap1\n      revert\n    tag_99:\n        /* \"contracts/crowdFunding.sol\":2771:2772  2 */\n      0x02\n        /* \"contracts/crowdFunding.sol\":2754:2770  noOfContributors */\n      sload(0x05)\n        /* \"contracts/crowdFunding.sol\":2754:2772  noOfContributors/2 */\n      tag_102\n      swap2\n      swap1\n      tag_103\n      jump\t// in\n    tag_102:\n        /* \"contracts/crowdFunding.sol\":2729:2740  thisRequest */\n      dup2\n        /* \"contracts/crowdFunding.sol\":2729:2751  thisRequest.noOfVoters */\n      0x04\n      add\n      sload\n        /* \"contracts/crowdFunding.sol\":2729:2772  thisRequest.noOfVoters > noOfContributors/2 */\n      gt\n        /* \"contracts/crowdFunding.sol\":2721:2793  require(thisRequest.noOfVoters > noOfContributors/2, 'Not enough votes') */\n      tag_104\n      jumpi\n      mload(0x40)\n      0x08c379a000000000000000000000000000000000000000000000000000000000\n      dup2\n      mstore\n      0x04\n      add\n      tag_105\n      swap1\n      tag_106\n      jump\t// in\n    tag_105:\n      mload(0x40)\n      dup1\n      swap2\n      sub\n      swap1\n      revert\n    tag_104:\n        /* \"contracts/crowdFunding.sol\":2804:2815  thisRequest */\n      dup1\n        /* \"contracts/crowdFunding.sol\":2804:2825  thisRequest.recipient */\n      0x01\n      add\n      0x00\n      swap1\n      sload\n      swap1\n      0x0100\n      exp\n      swap1\n      div\n      0xffffffffffffffffffffffffffffffffffffffff\n      and\n        /* \"contracts/crowdFunding.sol\":2804:2834  thisRequest.recipient.transfer */\n      0xffffffffffffffffffffffffffffffffffffffff\n      and\n        /* \"contracts/crowdFunding.sol\":2804:2853  thisRequest.recipient.transfer(thisRequest.value) */\n      0x08fc\n        /* \"contracts/crowdFunding.sol\":2835:2846  thisRequest */\n      dup3\n        /* \"contracts/crowdFunding.sol\":2835:2852  thisRequest.value */\n      0x02\n      add\n      sload\n        /* \"contracts/crowdFunding.sol\":2804:2853  thisRequest.recipient.transfer(thisRequest.value) */\n      swap1\n      dup2\n      iszero\n      mul\n      swap1\n      mload(0x40)\n      0x00\n      mload(0x40)\n      dup1\n      dup4\n      sub\n      dup2\n      dup6\n      dup9\n      dup9\n      call\n      swap4\n      pop\n      pop\n      pop\n      pop\n      iszero\n      dup1\n      iszero\n      tag_108\n      jumpi\n      returndatasize\n      0x00\n      dup1\n      returndatacopy\n      revert(0x00, returndatasize)\n    tag_108:\n      pop\n        /* \"contracts/crowdFunding.sol\":2888:2892  true */\n      0x01\n        /* \"contracts/crowdFunding.sol\":2864:2875  thisRequest */\n      dup2\n        /* \"contracts/crowdFunding.sol\":2864:2885  thisRequest.completed */\n      0x03\n      add\n      0x00\n        /* \"contracts/crowdFunding.sol\":2864:2892  thisRequest.completed = true */\n      0x0100\n      exp\n      dup2\n      sload\n      dup2\n      0xff\n      mul\n      not\n      and\n      swap1\n      dup4\n      iszero\n      iszero\n      mul\n      or\n      swap1\n      sstore\n      pop\n        /* \"contracts/crowdFunding.sol\":2518:2900  {... */\n      pop\n        /* \"contracts/crowdFunding.sol\":2467:2900  function reqPayment(uint _reqNo) public onlyManager{... */\n      pop\n      jump\t// out\n        /* \"contracts/crowdFunding.sol\":187:207  uint public deadline */\n    tag_28:\n      sload(0x02)\n      dup2\n      jump\t// out\n        /* \"contracts/crowdFunding.sol\":1709:2110  function createRequests(string memory _description, address payable _recipient, uint _value ) public onlyManager{... */\n    tag_35:\n        /* \"contracts/crowdFunding.sol\":1635:1642  manager */\n      0x01\n      0x00\n      swap1\n      sload\n      swap1\n      0x0100\n      exp\n      swap1\n      div\n      0xffffffffffffffffffffffffffffffffffffffff\n      and\n        /* \"contracts/crowdFunding.sol\":1621:1642  msg.sender == manager */\n      0xffffffffffffffffffffffffffffffffffffffff\n      and\n        /* \"contracts/crowdFunding.sol\":1621:1631  msg.sender */\n      caller\n        /* \"contracts/crowdFunding.sol\":1621:1642  msg.sender == manager */\n      0xffffffffffffffffffffffffffffffffffffffff\n      and\n      eq\n        /* \"contracts/crowdFunding.sol\":1613:1683  require(msg.sender == manager,\"only manager can call this funcnction\") */\n      tag_110\n      jumpi\n      mload(0x40)\n      0x08c379a000000000000000000000000000000000000000000000000000000000\n      dup2\n      mstore\n      0x04\n      add\n      tag_111\n      swap1\n      tag_94\n      jump\t// in\n    tag_111:\n      mload(0x40)\n      dup1\n      swap2\n      sub\n      swap1\n      revert\n    tag_110:\n        /* \"contracts/crowdFunding.sol\":1831:1857  Request storage newRequest */\n      0x00\n        /* \"contracts/crowdFunding.sol\":1860:1868  requests */\n      0x07\n        /* \"contracts/crowdFunding.sol\":1860:1881  requests[numRequests] */\n      0x00\n        /* \"contracts/crowdFunding.sol\":1869:1880  numRequests */\n      sload(0x08)\n        /* \"contracts/crowdFunding.sol\":1860:1881  requests[numRequests] */\n      dup2\n      mstore\n      0x20\n      add\n      swap1\n      dup2\n      mstore\n      0x20\n      add\n      0x00\n      keccak256\n        /* \"contracts/crowdFunding.sol\":1831:1881  Request storage newRequest = requests[numRequests] */\n      swap1\n      pop\n        /* \"contracts/crowdFunding.sol\":1891:1902  numRequests */\n      0x08\n      0x00\n        /* \"contracts/crowdFunding.sol\":1891:1904  numRequests++ */\n      dup2\n      sload\n      dup1\n      swap3\n      swap2\n      swap1\n      tag_113\n      swap1\n      tag_87\n      jump\t// in\n    tag_113:\n      swap2\n      swap1\n      pop\n      sstore\n      pop\n        /* \"contracts/crowdFunding.sol\":1939:1951  _description */\n      dup4\n        /* \"contracts/crowdFunding.sol\":1914:1924  newRequest */\n      dup2\n        /* \"contracts/crowdFunding.sol\":1914:1936  newRequest.description */\n      0x00\n      add\n        /* \"contracts/crowdFunding.sol\":1914:1951  newRequest.description = _description */\n      swap1\n      dup2\n      tag_114\n      swap2\n      swap1\n      tag_115\n      jump\t// in\n    tag_114:\n      pop\n        /* \"contracts/crowdFunding.sol\":1984:1994  _recipient */\n      dup3\n        /* \"contracts/crowdFunding.sol\":1961:1971  newRequest */\n      dup2\n        /* \"contracts/crowdFunding.sol\":1961:1981  newRequest.recipient */\n      0x01\n      add\n      0x00\n        /* \"contracts/crowdFunding.sol\":1961:1994  newRequest.recipient = _recipient */\n      0x0100\n      exp\n      dup2\n      sload\n      dup2\n      0xffffffffffffffffffffffffffffffffffffffff\n      mul\n      not\n      and\n      swap1\n      dup4\n      0xffffffffffffffffffffffffffffffffffffffff\n      and\n      mul\n      or\n      swap1\n      sstore\n      pop\n        /* \"contracts/crowdFunding.sol\":2023:2029  _value */\n      dup2\n        /* \"contracts/crowdFunding.sol\":2004:2014  newRequest */\n      dup2\n        /* \"contracts/crowdFunding.sol\":2004:2020  newRequest.value */\n      0x02\n      add\n        /* \"contracts/crowdFunding.sol\":2004:2029  newRequest.value = _value */\n      dup2\n      swap1\n      sstore\n      pop\n        /* \"contracts/crowdFunding.sol\":2062:2067  false */\n      0x00\n        /* \"contracts/crowdFunding.sol\":2039:2049  newRequest */\n      dup2\n        /* \"contracts/crowdFunding.sol\":2039:2059  newRequest.completed */\n      0x03\n      add\n      0x00\n        /* \"contracts/crowdFunding.sol\":2039:2067  newRequest.completed = false */\n      0x0100\n      exp\n      dup2\n      sload\n      dup2\n      0xff\n      mul\n      not\n      and\n      swap1\n      dup4\n      iszero\n      iszero\n      mul\n      or\n      swap1\n      sstore\n      pop\n        /* \"contracts/crowdFunding.sol\":2101:2102  0 */\n      0x00\n        /* \"contracts/crowdFunding.sol\":2077:2087  newRequest */\n      dup2\n        /* \"contracts/crowdFunding.sol\":2077:2098  newRequest.noOfVoters */\n      0x04\n      add\n        /* \"contracts/crowdFunding.sol\":2077:2102  newRequest.noOfVoters = 0 */\n      dup2\n      swap1\n      sstore\n      pop\n        /* \"contracts/crowdFunding.sol\":1821:2110  {... */\n      pop\n        /* \"contracts/crowdFunding.sol\":1709:2110  function createRequests(string memory _description, address payable _recipient, uint _value ) public onlyManager{... */\n      pop\n      pop\n      pop\n      jump\t// out\n        /* \"contracts/crowdFunding.sol\":308:329  uint public raisedAmt */\n    tag_38:\n      sload(0x06)\n      dup2\n      jump\t// out\n        /* \"contracts/crowdFunding.sol\":158:180  address public manager */\n    tag_42:\n      0x01\n      0x00\n      swap1\n      sload\n      swap1\n      0x0100\n      exp\n      swap1\n      div\n      0xffffffffffffffffffffffffffffffffffffffff\n      and\n      dup2\n      jump\t// out\n        /* \"contracts/crowdFunding.sol\":2116:2460  function voteRequest(uint _reqNo) public{... */\n    tag_48:\n        /* \"contracts/crowdFunding.sol\":2201:2202  0 */\n      0x00\n        /* \"contracts/crowdFunding.sol\":2174:2186  contributors */\n      dup1\n        /* \"contracts/crowdFunding.sol\":2174:2198  contributors[msg.sender] */\n      0x00\n        /* \"contracts/crowdFunding.sol\":2187:2197  msg.sender */\n      caller\n        /* \"contracts/crowdFunding.sol\":2174:2198  contributors[msg.sender] */\n      0xffffffffffffffffffffffffffffffffffffffff\n      and\n      0xffffffffffffffffffffffffffffffffffffffff\n      and\n      dup2\n      mstore\n      0x20\n      add\n      swap1\n      dup2\n      mstore\n      0x20\n      add\n      0x00\n      keccak256\n      sload\n        /* \"contracts/crowdFunding.sol\":2174:2202  contributors[msg.sender] > 0 */\n      gt\n        /* \"contracts/crowdFunding.sol\":2166:2233  require(contributors[msg.sender] > 0 , 'You are not a contributor') */\n      tag_117\n      jumpi\n      mload(0x40)\n      0x08c379a000000000000000000000000000000000000000000000000000000000\n      dup2\n      mstore\n      0x04\n      add\n      tag_118\n      swap1\n      tag_119\n      jump\t// in\n    tag_118:\n      mload(0x40)\n      dup1\n      swap2\n      sub\n      swap1\n      revert\n    tag_117:\n        /* \"contracts/crowdFunding.sol\":2243:2270  Request storage thisRequest */\n      0x00\n        /* \"contracts/crowdFunding.sol\":2273:2281  requests */\n      0x07\n        /* \"contracts/crowdFunding.sol\":2273:2289  requests[_reqNo] */\n      0x00\n        /* \"contracts/crowdFunding.sol\":2282:2288  _reqNo */\n      dup4\n        /* \"contracts/crowdFunding.sol\":2273:2289  requests[_reqNo] */\n      dup2\n      mstore\n      0x20\n      add\n      swap1\n      dup2\n      mstore\n      0x20\n      add\n      0x00\n      keccak256\n        /* \"contracts/crowdFunding.sol\":2243:2289  Request storage thisRequest = requests[_reqNo] */\n      swap1\n      pop\n        /* \"contracts/crowdFunding.sol\":2339:2344  false */\n      0x00\n        /* \"contracts/crowdFunding.sol\":2307:2344  thisRequest.voters[msg.sender]==false */\n      iszero\n      iszero\n        /* \"contracts/crowdFunding.sol\":2307:2318  thisRequest */\n      dup2\n        /* \"contracts/crowdFunding.sol\":2307:2325  thisRequest.voters */\n      0x05\n      add\n        /* \"contracts/crowdFunding.sol\":2307:2337  thisRequest.voters[msg.sender] */\n      0x00\n        /* \"contracts/crowdFunding.sol\":2326:2336  msg.sender */\n      caller\n        /* \"contracts/crowdFunding.sol\":2307:2337  thisRequest.voters[msg.sender] */\n      0xffffffffffffffffffffffffffffffffffffffff\n      and\n      0xffffffffffffffffffffffffffffffffffffffff\n      and\n      dup2\n      mstore\n      0x20\n      add\n      swap1\n      dup2\n      mstore\n      0x20\n      add\n      0x00\n      keccak256\n      0x00\n      swap1\n      sload\n      swap1\n      0x0100\n      exp\n      swap1\n      div\n      0xff\n      and\n        /* \"contracts/crowdFunding.sol\":2307:2344  thisRequest.voters[msg.sender]==false */\n      iszero\n      iszero\n      eq\n        /* \"contracts/crowdFunding.sol\":2299:2371  require(thisRequest.voters[msg.sender]==false, 'You have already voted') */\n      tag_120\n      jumpi\n      mload(0x40)\n      0x08c379a000000000000000000000000000000000000000000000000000000000\n      dup2\n      mstore\n      0x04\n      add\n      tag_121\n      swap1\n      tag_122\n      jump\t// in\n    tag_121:\n      mload(0x40)\n      dup1\n      swap2\n      sub\n      swap1\n      revert\n    tag_120:\n        /* \"contracts/crowdFunding.sol\":2414:2418  true */\n      0x01\n        /* \"contracts/crowdFunding.sol\":2381:2392  thisRequest */\n      dup2\n        /* \"contracts/crowdFunding.sol\":2381:2399  thisRequest.voters */\n      0x05\n      add\n        /* \"contracts/crowdFunding.sol\":2381:2411  thisRequest.voters[msg.sender] */\n      0x00\n        /* \"contracts/crowdFunding.sol\":2400:2410  msg.sender */\n      caller\n        /* \"contracts/crowdFunding.sol\":2381:2411  thisRequest.voters[msg.sender] */\n      0xffffffffffffffffffffffffffffffffffffffff\n      and\n      0xffffffffffffffffffffffffffffffffffffffff\n      and\n      dup2\n      mstore\n      0x20\n      add\n      swap1\n      dup2\n      mstore\n      0x20\n      add\n      0x00\n      keccak256\n      0x00\n        /* \"contracts/crowdFunding.sol\":2381:2418  thisRequest.voters[msg.sender] = true */\n      0x0100\n      exp\n      dup2\n      sload\n      dup2\n      0xff\n      mul\n      not\n      and\n      swap1\n      dup4\n      iszero\n      iszero\n      mul\n      or\n      swap1\n      sstore\n      pop\n        /* \"contracts/crowdFunding.sol\":2428:2439  thisRequest */\n      dup1\n        /* \"contracts/crowdFunding.sol\":2428:2450  thisRequest.noOfVoters */\n      0x04\n      add\n      0x00\n        /* \"contracts/crowdFunding.sol\":2428:2452  thisRequest.noOfVoters++ */\n      dup2\n      sload\n      dup1\n      swap3\n      swap2\n      swap1\n      tag_123\n      swap1\n      tag_87\n      jump\t// in\n    tag_123:\n      swap2\n      swap1\n      pop\n      sstore\n      pop\n        /* \"contracts/crowdFunding.sol\":2156:2460  {... */\n      pop\n        /* \"contracts/crowdFunding.sol\":2116:2460  function voteRequest(uint _reqNo) public{... */\n      pop\n      jump\t// out\n        /* \"contracts/crowdFunding.sol\":273:301  uint public noOfContributors */\n    tag_51:\n      sload(0x05)\n      dup2\n      jump\t// out\n        /* \"contracts/crowdFunding.sol\":1290:1574  function refund() public{... */\n    tag_55:\n        /* \"contracts/crowdFunding.sol\":1351:1359  deadline */\n      sload(0x02)\n        /* \"contracts/crowdFunding.sol\":1333:1348  block.timestamp */\n      timestamp\n        /* \"contracts/crowdFunding.sol\":1333:1359  block.timestamp > deadline */\n      gt\n        /* \"contracts/crowdFunding.sol\":1325:1376  require(block.timestamp > deadline, 'not eligible') */\n      tag_125\n      jumpi\n      mload(0x40)\n      0x08c379a000000000000000000000000000000000000000000000000000000000\n      dup2\n      mstore\n      0x04\n      add\n      tag_126\n      swap1\n      tag_127\n      jump\t// in\n    tag_126:\n      mload(0x40)\n      dup1\n      swap2\n      sub\n      swap1\n      revert\n    tag_125:\n        /* \"contracts/crowdFunding.sol\":1422:1423  0 */\n      0x00\n        /* \"contracts/crowdFunding.sol\":1395:1407  contributors */\n      dup1\n        /* \"contracts/crowdFunding.sol\":1395:1419  contributors[msg.sender] */\n      0x00\n        /* \"contracts/crowdFunding.sol\":1408:1418  msg.sender */\n      caller\n        /* \"contracts/crowdFunding.sol\":1395:1419  contributors[msg.sender] */\n      0xffffffffffffffffffffffffffffffffffffffff\n      and\n      0xffffffffffffffffffffffffffffffffffffffff\n      and\n      dup2\n      mstore\n      0x20\n      add\n      swap1\n      dup2\n      mstore\n      0x20\n      add\n      0x00\n      keccak256\n      sload\n        /* \"contracts/crowdFunding.sol\":1395:1423  contributors[msg.sender] > 0 */\n      gt\n        /* \"contracts/crowdFunding.sol\":1387:1424  require(contributors[msg.sender] > 0) */\n      tag_128\n      jumpi\n      0x00\n      dup1\n      revert\n    tag_128:\n        /* \"contracts/crowdFunding.sol\":1435:1455  address payable user */\n      0x00\n        /* \"contracts/crowdFunding.sol\":1466:1476  msg.sender */\n      caller\n        /* \"contracts/crowdFunding.sol\":1435:1477  address payable user = payable(msg.sender) */\n      swap1\n      pop\n        /* \"contracts/crowdFunding.sol\":1488:1492  user */\n      dup1\n        /* \"contracts/crowdFunding.sol\":1488:1501  user.transfer */\n      0xffffffffffffffffffffffffffffffffffffffff\n      and\n        /* \"contracts/crowdFunding.sol\":1488:1527  user.transfer(contributors[msg.sender]) */\n      0x08fc\n        /* \"contracts/crowdFunding.sol\":1502:1514  contributors */\n      0x00\n        /* \"contracts/crowdFunding.sol\":1502:1526  contributors[msg.sender] */\n      dup1\n        /* \"contracts/crowdFunding.sol\":1515:1525  msg.sender */\n      caller\n        /* \"contracts/crowdFunding.sol\":1502:1526  contributors[msg.sender] */\n      0xffffffffffffffffffffffffffffffffffffffff\n      and\n      0xffffffffffffffffffffffffffffffffffffffff\n      and\n      dup2\n      mstore\n      0x20\n      add\n      swap1\n      dup2\n      mstore\n      0x20\n      add\n      0x00\n      keccak256\n      sload\n        /* \"contracts/crowdFunding.sol\":1488:1527  user.transfer(contributors[msg.sender]) */\n      swap1\n      dup2\n      iszero\n      mul\n      swap1\n      mload(0x40)\n      0x00\n      mload(0x40)\n      dup1\n      dup4\n      sub\n      dup2\n      dup6\n      dup9\n      dup9\n      call\n      swap4\n      pop\n      pop\n      pop\n      pop\n      iszero\n      dup1\n      iszero\n      tag_130\n      jumpi\n      returndatasize\n      0x00\n      dup1\n      returndatacopy\n      revert(0x00, returndatasize)\n    tag_130:\n      pop\n        /* \"contracts/crowdFunding.sol\":1565:1566  0 */\n      0x00\n        /* \"contracts/crowdFunding.sol\":1538:1550  contributors */\n      dup1\n        /* \"contracts/crowdFunding.sol\":1538:1562  contributors[msg.sender] */\n      0x00\n        /* \"contracts/crowdFunding.sol\":1551:1561  msg.sender */\n      caller\n        /* \"contracts/crowdFunding.sol\":1538:1562  contributors[msg.sender] */\n      0xffffffffffffffffffffffffffffffffffffffff\n      and\n      0xffffffffffffffffffffffffffffffffffffffff\n      and\n      dup2\n      mstore\n      0x20\n      add\n      swap1\n      dup2\n      mstore\n      0x20\n      add\n      0x00\n      keccak256\n        /* \"contracts/crowdFunding.sol\":1538:1566  contributors[msg.sender] = 0 */\n      dup2\n      swap1\n      sstore\n      pop\n        /* \"contracts/crowdFunding.sol\":1314:1574  {... */\n      pop\n        /* \"contracts/crowdFunding.sol\":1290:1574  function refund() public{... */\n      jump\t// out\n        /* \"contracts/crowdFunding.sol\":1182:1284  function getContractBalance() public view returns(uint){... */\n    tag_58:\n        /* \"contracts/crowdFunding.sol\":1232:1236  uint */\n      0x00\n        /* \"contracts/crowdFunding.sol\":1255:1276  address(this).balance */\n      selfbalance\n        /* \"contracts/crowdFunding.sol\":1248:1276  return address(this).balance */\n      swap1\n      pop\n        /* \"contracts/crowdFunding.sol\":1182:1284  function getContractBalance() public view returns(uint){... */\n      swap1\n      jump\t// out\n        /* \"contracts/crowdFunding.sol\":542:579  mapping(uint=>Request)public requests */\n    tag_63:\n      mstore(0x20, 0x07)\n      dup1\n      0x00\n      mstore\n      keccak256(0x00, 0x40)\n      0x00\n      swap2\n      pop\n      swap1\n      pop\n      dup1\n      0x00\n      add\n      dup1\n      sload\n      tag_132\n      swap1\n      tag_133\n      jump\t// in\n    tag_132:\n      dup1\n      0x1f\n      add\n      0x20\n      dup1\n      swap2\n      div\n      mul\n      0x20\n      add\n      mload(0x40)\n      swap1\n      dup2\n      add\n      0x40\n      mstore\n      dup1\n      swap3\n      swap2\n      swap1\n      dup2\n      dup2\n      mstore\n      0x20\n      add\n      dup3\n      dup1\n      sload\n      tag_134\n      swap1\n      tag_133\n      jump\t// in\n    tag_134:\n      dup1\n      iszero\n      tag_135\n      jumpi\n      dup1\n      0x1f\n      lt\n      tag_136\n      jumpi\n      0x0100\n      dup1\n      dup4\n      sload\n      div\n      mul\n      dup4\n      mstore\n      swap2\n      0x20\n      add\n      swap2\n      jump(tag_135)\n    tag_136:\n      dup3\n      add\n      swap2\n      swap1\n      0x00\n      mstore\n      keccak256(0x00, 0x20)\n      swap1\n    tag_137:\n      dup2\n      sload\n      dup2\n      mstore\n      swap1\n      0x01\n      add\n      swap1\n      0x20\n      add\n      dup1\n      dup4\n      gt\n      tag_137\n      jumpi\n      dup3\n      swap1\n      sub\n      0x1f\n      and\n      dup3\n      add\n      swap2\n    tag_135:\n      pop\n      pop\n      pop\n      pop\n      pop\n      swap1\n      dup1\n      0x01\n      add\n      0x00\n      swap1\n      sload\n      swap1\n      0x0100\n      exp\n      swap1\n      div\n      0xffffffffffffffffffffffffffffffffffffffff\n      and\n      swap1\n      dup1\n      0x02\n      add\n      sload\n      swap1\n      dup1\n      0x03\n      add\n      0x00\n      swap1\n      sload\n      swap1\n      0x0100\n      exp\n      swap1\n      div\n      0xff\n      and\n      swap1\n      dup1\n      0x04\n      add\n      sload\n      swap1\n      pop\n      dup6\n      jump\t// out\n        /* \"contracts/crowdFunding.sol\":586:609  uint public numRequests */\n    tag_68:\n      sload(0x08)\n      dup2\n      jump\t// out\n        /* \"contracts/crowdFunding.sol\":239:266  uint public minContribution */\n    tag_72:\n      sload(0x04)\n      dup2\n      jump\t// out\n        /* \"contracts/crowdFunding.sol\":214:232  uint public target */\n    tag_76:\n      sload(0x03)\n      dup2\n      jump\t// out\n        /* \"#utility.yul\":7:82   */\n    tag_138:\n        /* \"#utility.yul\":40:46   */\n      0x00\n        /* \"#utility.yul\":73:75   */\n      0x40\n        /* \"#utility.yul\":67:76   */\n      mload\n        /* \"#utility.yul\":57:76   */\n      swap1\n      pop\n        /* \"#utility.yul\":7:82   */\n      swap1\n      jump\t// out\n        /* \"#utility.yul\":88:205   */\n    tag_139:\n        /* \"#utility.yul\":197:198   */\n      0x00\n        /* \"#utility.yul\":194:195   */\n      dup1\n        /* \"#utility.yul\":187:199   */\n      revert\n        /* \"#utility.yul\":211:328   */\n    tag_140:\n        /* \"#utility.yul\":320:321   */\n      0x00\n        /* \"#utility.yul\":317:318   */\n      dup1\n        /* \"#utility.yul\":310:322   */\n      revert\n        /* \"#utility.yul\":334:411   */\n    tag_141:\n        /* \"#utility.yul\":371:378   */\n      0x00\n        /* \"#utility.yul\":400:405   */\n      dup2\n        /* \"#utility.yul\":389:405   */\n      swap1\n      pop\n        /* \"#utility.yul\":334:411   */\n      swap2\n      swap1\n      pop\n      jump\t// out\n        /* \"#utility.yul\":417:539   */\n    tag_142:\n        /* \"#utility.yul\":490:514   */\n      tag_210\n        /* \"#utility.yul\":508:513   */\n      dup2\n        /* \"#utility.yul\":490:514   */\n      tag_141\n      jump\t// in\n    tag_210:\n        /* \"#utility.yul\":483:488   */\n      dup2\n        /* \"#utility.yul\":480:515   */\n      eq\n        /* \"#utility.yul\":470:533   */\n      tag_211\n      jumpi\n        /* \"#utility.yul\":529:530   */\n      0x00\n        /* \"#utility.yul\":526:527   */\n      dup1\n        /* \"#utility.yul\":519:531   */\n      revert\n        /* \"#utility.yul\":470:533   */\n    tag_211:\n        /* \"#utility.yul\":417:539   */\n      pop\n      jump\t// out\n        /* \"#utility.yul\":545:684   */\n    tag_143:\n        /* \"#utility.yul\":591:596   */\n      0x00\n        /* \"#utility.yul\":629:635   */\n      dup2\n        /* \"#utility.yul\":616:636   */\n      calldataload\n        /* \"#utility.yul\":607:636   */\n      swap1\n      pop\n        /* \"#utility.yul\":645:678   */\n      tag_213\n        /* \"#utility.yul\":672:677   */\n      dup2\n        /* \"#utility.yul\":645:678   */\n      tag_142\n      jump\t// in\n    tag_213:\n        /* \"#utility.yul\":545:684   */\n      swap3\n      swap2\n      pop\n      pop\n      jump\t// out\n        /* \"#utility.yul\":690:1019   */\n    tag_24:\n        /* \"#utility.yul\":749:755   */\n      0x00\n        /* \"#utility.yul\":798:800   */\n      0x20\n        /* \"#utility.yul\":786:795   */\n      dup3\n        /* \"#utility.yul\":777:784   */\n      dup5\n        /* \"#utility.yul\":773:796   */\n      sub\n        /* \"#utility.yul\":769:801   */\n      slt\n        /* \"#utility.yul\":766:885   */\n      iszero\n      tag_215\n      jumpi\n        /* \"#utility.yul\":804:883   */\n      tag_216\n      tag_139\n      jump\t// in\n    tag_216:\n        /* \"#utility.yul\":766:885   */\n    tag_215:\n        /* \"#utility.yul\":924:925   */\n      0x00\n        /* \"#utility.yul\":949:1002   */\n      tag_217\n        /* \"#utility.yul\":994:1001   */\n      dup5\n        /* \"#utility.yul\":985:991   */\n      dup3\n        /* \"#utility.yul\":974:983   */\n      dup6\n        /* \"#utility.yul\":970:992   */\n      add\n        /* \"#utility.yul\":949:1002   */\n      tag_143\n      jump\t// in\n    tag_217:\n        /* \"#utility.yul\":939:1002   */\n      swap2\n      pop\n        /* \"#utility.yul\":895:1012   */\n      pop\n        /* \"#utility.yul\":690:1019   */\n      swap3\n      swap2\n      pop\n      pop\n      jump\t// out\n        /* \"#utility.yul\":1025:1143   */\n    tag_144:\n        /* \"#utility.yul\":1112:1136   */\n      tag_219\n        /* \"#utility.yul\":1130:1135   */\n      dup2\n        /* \"#utility.yul\":1112:1136   */\n      tag_141\n      jump\t// in\n    tag_219:\n        /* \"#utility.yul\":1107:1110   */\n      dup3\n        /* \"#utility.yul\":1100:1137   */\n      mstore\n        /* \"#utility.yul\":1025:1143   */\n      pop\n      pop\n      jump\t// out\n        /* \"#utility.yul\":1149:1371   */\n    tag_30:\n        /* \"#utility.yul\":1242:1246   */\n      0x00\n        /* \"#utility.yul\":1280:1282   */\n      0x20\n        /* \"#utility.yul\":1269:1278   */\n      dup3\n        /* \"#utility.yul\":1265:1283   */\n      add\n        /* \"#utility.yul\":1257:1283   */\n      swap1\n      pop\n        /* \"#utility.yul\":1293:1364   */\n      tag_221\n        /* \"#utility.yul\":1361:1362   */\n      0x00\n        /* \"#utility.yul\":1350:1359   */\n      dup4\n        /* \"#utility.yul\":1346:1363   */\n      add\n        /* \"#utility.yul\":1337:1343   */\n      dup5\n        /* \"#utility.yul\":1293:1364   */\n      tag_144\n      jump\t// in\n    tag_221:\n        /* \"#utility.yul\":1149:1371   */\n      swap3\n      swap2\n      pop\n      pop\n      jump\t// out\n        /* \"#utility.yul\":1377:1494   */\n    tag_145:\n        /* \"#utility.yul\":1486:1487   */\n      0x00\n        /* \"#utility.yul\":1483:1484   */\n      dup1\n        /* \"#utility.yul\":1476:1488   */\n      revert\n        /* \"#utility.yul\":1500:1617   */\n    tag_146:\n        /* \"#utility.yul\":1609:1610   */\n      0x00\n        /* \"#utility.yul\":1606:1607   */\n      dup1\n        /* \"#utility.yul\":1599:1611   */\n      revert\n        /* \"#utility.yul\":1623:1725   */\n    tag_147:\n        /* \"#utility.yul\":1664:1670   */\n      0x00\n        /* \"#utility.yul\":1715:1717   */\n      0x1f\n        /* \"#utility.yul\":1711:1718   */\n      not\n        /* \"#utility.yul\":1706:1708   */\n      0x1f\n        /* \"#utility.yul\":1699:1704   */\n      dup4\n        /* \"#utility.yul\":1695:1709   */\n      add\n        /* \"#utility.yul\":1691:1719   */\n      and\n        /* \"#utility.yul\":1681:1719   */\n      swap1\n      pop\n        /* \"#utility.yul\":1623:1725   */\n      swap2\n      swap1\n      pop\n      jump\t// out\n        /* \"#utility.yul\":1731:1911   */\n    tag_148:\n        /* \"#utility.yul\":1779:1856   */\n      0x4e487b7100000000000000000000000000000000000000000000000000000000\n        /* \"#utility.yul\":1776:1777   */\n      0x00\n        /* \"#utility.yul\":1769:1857   */\n      mstore\n        /* \"#utility.yul\":1876:1880   */\n      0x41\n        /* \"#utility.yul\":1873:1874   */\n      0x04\n        /* \"#utility.yul\":1866:1881   */\n      mstore\n        /* \"#utility.yul\":1900:1904   */\n      0x24\n        /* \"#utility.yul\":1897:1898   */\n      0x00\n        /* \"#utility.yul\":1890:1905   */\n      revert\n        /* \"#utility.yul\":1917:2198   */\n    tag_149:\n        /* \"#utility.yul\":2000:2027   */\n      tag_227\n        /* \"#utility.yul\":2022:2026   */\n      dup3\n        /* \"#utility.yul\":2000:2027   */\n      tag_147\n      jump\t// in\n    tag_227:\n        /* \"#utility.yul\":1992:1998   */\n      dup2\n        /* \"#utility.yul\":1988:2028   */\n      add\n        /* \"#utility.yul\":2130:2136   */\n      dup2\n        /* \"#utility.yul\":2118:2128   */\n      dup2\n        /* \"#utility.yul\":2115:2137   */\n      lt\n        /* \"#utility.yul\":2094:2112   */\n      0xffffffffffffffff\n        /* \"#utility.yul\":2082:2092   */\n      dup3\n        /* \"#utility.yul\":2079:2113   */\n      gt\n        /* \"#utility.yul\":2076:2138   */\n      or\n        /* \"#utility.yul\":2073:2161   */\n      iszero\n      tag_228\n      jumpi\n        /* \"#utility.yul\":2141:2159   */\n      tag_229\n      tag_148\n      jump\t// in\n    tag_229:\n        /* \"#utility.yul\":2073:2161   */\n    tag_228:\n        /* \"#utility.yul\":2181:2191   */\n      dup1\n        /* \"#utility.yul\":2177:2179   */\n      0x40\n        /* \"#utility.yul\":2170:2192   */\n      mstore\n        /* \"#utility.yul\":1960:2198   */\n      pop\n        /* \"#utility.yul\":1917:2198   */\n      pop\n      pop\n      jump\t// out\n        /* \"#utility.yul\":2204:2333   */\n    tag_150:\n        /* \"#utility.yul\":2238:2244   */\n      0x00\n        /* \"#utility.yul\":2265:2285   */\n      tag_231\n      tag_138\n      jump\t// in\n    tag_231:\n        /* \"#utility.yul\":2255:2285   */\n      swap1\n      pop\n        /* \"#utility.yul\":2294:2327   */\n      tag_232\n        /* \"#utility.yul\":2322:2326   */\n      dup3\n        /* \"#utility.yul\":2314:2320   */\n      dup3\n        /* \"#utility.yul\":2294:2327   */\n      tag_149\n      jump\t// in\n    tag_232:\n        /* \"#utility.yul\":2204:2333   */\n      swap2\n      swap1\n      pop\n      jump\t// out\n        /* \"#utility.yul\":2339:2647   */\n    tag_151:\n        /* \"#utility.yul\":2401:2405   */\n      0x00\n        /* \"#utility.yul\":2491:2509   */\n      0xffffffffffffffff\n        /* \"#utility.yul\":2483:2489   */\n      dup3\n        /* \"#utility.yul\":2480:2510   */\n      gt\n        /* \"#utility.yul\":2477:2533   */\n      iszero\n      tag_234\n      jumpi\n        /* \"#utility.yul\":2513:2531   */\n      tag_235\n      tag_148\n      jump\t// in\n    tag_235:\n        /* \"#utility.yul\":2477:2533   */\n    tag_234:\n        /* \"#utility.yul\":2551:2580   */\n      tag_236\n        /* \"#utility.yul\":2573:2579   */\n      dup3\n        /* \"#utility.yul\":2551:2580   */\n      tag_147\n      jump\t// in\n    tag_236:\n        /* \"#utility.yul\":2543:2580   */\n      swap1\n      pop\n        /* \"#utility.yul\":2635:2639   */\n      0x20\n        /* \"#utility.yul\":2629:2633   */\n      dup2\n        /* \"#utility.yul\":2625:2640   */\n      add\n        /* \"#utility.yul\":2617:2640   */\n      swap1\n      pop\n        /* \"#utility.yul\":2339:2647   */\n      swap2\n      swap1\n      pop\n      jump\t// out\n        /* \"#utility.yul\":2653:2799   */\n    tag_152:\n        /* \"#utility.yul\":2750:2756   */\n      dup3\n        /* \"#utility.yul\":2745:2748   */\n      dup2\n        /* \"#utility.yul\":2740:2743   */\n      dup4\n        /* \"#utility.yul\":2727:2757   */\n      calldatacopy\n        /* \"#utility.yul\":2791:2792   */\n      0x00\n        /* \"#utility.yul\":2782:2788   */\n      dup4\n        /* \"#utility.yul\":2777:2780   */\n      dup4\n        /* \"#utility.yul\":2773:2789   */\n      add\n        /* \"#utility.yul\":2766:2793   */\n      mstore\n        /* \"#utility.yul\":2653:2799   */\n      pop\n      pop\n      pop\n      jump\t// out\n        /* \"#utility.yul\":2805:3230   */\n    tag_153:\n        /* \"#utility.yul\":2883:2888   */\n      0x00\n        /* \"#utility.yul\":2908:2974   */\n      tag_239\n        /* \"#utility.yul\":2924:2973   */\n      tag_240\n        /* \"#utility.yul\":2966:2972   */\n      dup5\n        /* \"#utility.yul\":2924:2973   */\n      tag_151\n      jump\t// in\n    tag_240:\n        /* \"#utility.yul\":2908:2974   */\n      tag_150\n      jump\t// in\n    tag_239:\n        /* \"#utility.yul\":2899:2974   */\n      swap1\n      pop\n        /* \"#utility.yul\":2997:3003   */\n      dup3\n        /* \"#utility.yul\":2990:2995   */\n      dup2\n        /* \"#utility.yul\":2983:3004   */\n      mstore\n        /* \"#utility.yul\":3035:3039   */\n      0x20\n        /* \"#utility.yul\":3028:3033   */\n      dup2\n        /* \"#utility.yul\":3024:3040   */\n      add\n        /* \"#utility.yul\":3073:3076   */\n      dup5\n        /* \"#utility.yul\":3064:3070   */\n      dup5\n        /* \"#utility.yul\":3059:3062   */\n      dup5\n        /* \"#utility.yul\":3055:3071   */\n      add\n        /* \"#utility.yul\":3052:3077   */\n      gt\n        /* \"#utility.yul\":3049:3161   */\n      iszero\n      tag_241\n      jumpi\n        /* \"#utility.yul\":3080:3159   */\n      tag_242\n      tag_146\n      jump\t// in\n    tag_242:\n        /* \"#utility.yul\":3049:3161   */\n    tag_241:\n        /* \"#utility.yul\":3170:3224   */\n      tag_243\n        /* \"#utility.yul\":3217:3223   */\n      dup5\n        /* \"#utility.yul\":3212:3215   */\n      dup3\n        /* \"#utility.yul\":3207:3210   */\n      dup6\n        /* \"#utility.yul\":3170:3224   */\n      tag_152\n      jump\t// in\n    tag_243:\n        /* \"#utility.yul\":2889:3230   */\n      pop\n        /* \"#utility.yul\":2805:3230   */\n      swap4\n      swap3\n      pop\n      pop\n      pop\n      jump\t// out\n        /* \"#utility.yul\":3250:3590   */\n    tag_154:\n        /* \"#utility.yul\":3306:3311   */\n      0x00\n        /* \"#utility.yul\":3355:3358   */\n      dup3\n        /* \"#utility.yul\":3348:3352   */\n      0x1f\n        /* \"#utility.yul\":3340:3346   */\n      dup4\n        /* \"#utility.yul\":3336:3353   */\n      add\n        /* \"#utility.yul\":3332:3359   */\n      slt\n        /* \"#utility.yul\":3322:3444   */\n      tag_245\n      jumpi\n        /* \"#utility.yul\":3363:3442   */\n      tag_246\n      tag_145\n      jump\t// in\n    tag_246:\n        /* \"#utility.yul\":3322:3444   */\n    tag_245:\n        /* \"#utility.yul\":3480:3486   */\n      dup2\n        /* \"#utility.yul\":3467:3487   */\n      calldataload\n        /* \"#utility.yul\":3505:3584   */\n      tag_247\n        /* \"#utility.yul\":3580:3583   */\n      dup5\n        /* \"#utility.yul\":3572:3578   */\n      dup3\n        /* \"#utility.yul\":3565:3569   */\n      0x20\n        /* \"#utility.yul\":3557:3563   */\n      dup7\n        /* \"#utility.yul\":3553:3570   */\n      add\n        /* \"#utility.yul\":3505:3584   */\n      tag_153\n      jump\t// in\n    tag_247:\n        /* \"#utility.yul\":3496:3584   */\n      swap2\n      pop\n        /* \"#utility.yul\":3312:3590   */\n      pop\n        /* \"#utility.yul\":3250:3590   */\n      swap3\n      swap2\n      pop\n      pop\n      jump\t// out\n        /* \"#utility.yul\":3596:3722   */\n    tag_155:\n        /* \"#utility.yul\":3633:3640   */\n      0x00\n        /* \"#utility.yul\":3673:3715   */\n      0xffffffffffffffffffffffffffffffffffffffff\n        /* \"#utility.yul\":3666:3671   */\n      dup3\n        /* \"#utility.yul\":3662:3716   */\n      and\n        /* \"#utility.yul\":3651:3716   */\n      swap1\n      pop\n        /* \"#utility.yul\":3596:3722   */\n      swap2\n      swap1\n      pop\n      jump\t// out\n        /* \"#utility.yul\":3728:3832   */\n    tag_156:\n        /* \"#utility.yul\":3773:3780   */\n      0x00\n        /* \"#utility.yul\":3802:3826   */\n      tag_250\n        /* \"#utility.yul\":3820:3825   */\n      dup3\n        /* \"#utility.yul\":3802:3826   */\n      tag_155\n      jump\t// in\n    tag_250:\n        /* \"#utility.yul\":3791:3826   */\n      swap1\n      pop\n        /* \"#utility.yul\":3728:3832   */\n      swap2\n      swap1\n      pop\n      jump\t// out\n        /* \"#utility.yul\":3838:3976   */\n    tag_157:\n        /* \"#utility.yul\":3919:3951   */\n      tag_252\n        /* \"#utility.yul\":3945:3950   */\n      dup2\n        /* \"#utility.yul\":3919:3951   */\n      tag_156\n      jump\t// in\n    tag_252:\n        /* \"#utility.yul\":3912:3917   */\n      dup2\n        /* \"#utility.yul\":3909:3952   */\n      eq\n        /* \"#utility.yul\":3899:3970   */\n      tag_253\n      jumpi\n        /* \"#utility.yul\":3966:3967   */\n      0x00\n        /* \"#utility.yul\":3963:3964   */\n      dup1\n        /* \"#utility.yul\":3956:3968   */\n      revert\n        /* \"#utility.yul\":3899:3970   */\n    tag_253:\n        /* \"#utility.yul\":3838:3976   */\n      pop\n      jump\t// out\n        /* \"#utility.yul\":3982:4137   */\n    tag_158:\n        /* \"#utility.yul\":4036:4041   */\n      0x00\n        /* \"#utility.yul\":4074:4080   */\n      dup2\n        /* \"#utility.yul\":4061:4081   */\n      calldataload\n        /* \"#utility.yul\":4052:4081   */\n      swap1\n      pop\n        /* \"#utility.yul\":4090:4131   */\n      tag_255\n        /* \"#utility.yul\":4125:4130   */\n      dup2\n        /* \"#utility.yul\":4090:4131   */\n      tag_157\n      jump\t// in\n    tag_255:\n        /* \"#utility.yul\":3982:4137   */\n      swap3\n      swap2\n      pop\n      pop\n      jump\t// out\n        /* \"#utility.yul\":4143:4958   */\n    tag_34:\n        /* \"#utility.yul\":4238:4244   */\n      0x00\n        /* \"#utility.yul\":4246:4252   */\n      dup1\n        /* \"#utility.yul\":4254:4260   */\n      0x00\n        /* \"#utility.yul\":4303:4305   */\n      0x60\n        /* \"#utility.yul\":4291:4300   */\n      dup5\n        /* \"#utility.yul\":4282:4289   */\n      dup7\n        /* \"#utility.yul\":4278:4301   */\n      sub\n        /* \"#utility.yul\":4274:4306   */\n      slt\n        /* \"#utility.yul\":4271:4390   */\n      iszero\n      tag_257\n      jumpi\n        /* \"#utility.yul\":4309:4388   */\n      tag_258\n      tag_139\n      jump\t// in\n    tag_258:\n        /* \"#utility.yul\":4271:4390   */\n    tag_257:\n        /* \"#utility.yul\":4457:4458   */\n      0x00\n        /* \"#utility.yul\":4446:4455   */\n      dup5\n        /* \"#utility.yul\":4442:4459   */\n      add\n        /* \"#utility.yul\":4429:4460   */\n      calldataload\n        /* \"#utility.yul\":4487:4505   */\n      0xffffffffffffffff\n        /* \"#utility.yul\":4479:4485   */\n      dup2\n        /* \"#utility.yul\":4476:4506   */\n      gt\n        /* \"#utility.yul\":4473:4590   */\n      iszero\n      tag_259\n      jumpi\n        /* \"#utility.yul\":4509:4588   */\n      tag_260\n      tag_140\n      jump\t// in\n    tag_260:\n        /* \"#utility.yul\":4473:4590   */\n    tag_259:\n        /* \"#utility.yul\":4614:4677   */\n      tag_261\n        /* \"#utility.yul\":4669:4676   */\n      dup7\n        /* \"#utility.yul\":4660:4666   */\n      dup3\n        /* \"#utility.yul\":4649:4658   */\n      dup8\n        /* \"#utility.yul\":4645:4667   */\n      add\n        /* \"#utility.yul\":4614:4677   */\n      tag_154\n      jump\t// in\n    tag_261:\n        /* \"#utility.yul\":4604:4677   */\n      swap4\n      pop\n        /* \"#utility.yul\":4400:4687   */\n      pop\n        /* \"#utility.yul\":4726:4728   */\n      0x20\n        /* \"#utility.yul\":4752:4813   */\n      tag_262\n        /* \"#utility.yul\":4805:4812   */\n      dup7\n        /* \"#utility.yul\":4796:4802   */\n      dup3\n        /* \"#utility.yul\":4785:4794   */\n      dup8\n        /* \"#utility.yul\":4781:4803   */\n      add\n        /* \"#utility.yul\":4752:4813   */\n      tag_158\n      jump\t// in\n    tag_262:\n        /* \"#utility.yul\":4742:4813   */\n      swap3\n      pop\n        /* \"#utility.yul\":4697:4823   */\n      pop\n        /* \"#utility.yul\":4862:4864   */\n      0x40\n        /* \"#utility.yul\":4888:4941   */\n      tag_263\n        /* \"#utility.yul\":4933:4940   */\n      dup7\n        /* \"#utility.yul\":4924:4930   */\n      dup3\n        /* \"#utility.yul\":4913:4922   */\n      dup8\n        /* \"#utility.yul\":4909:4931   */\n      add\n        /* \"#utility.yul\":4888:4941   */\n      tag_143\n      jump\t// in\n    tag_263:\n        /* \"#utility.yul\":4878:4941   */\n      swap2\n      pop\n        /* \"#utility.yul\":4833:4951   */\n      pop\n        /* \"#utility.yul\":4143:4958   */\n      swap3\n      pop\n      swap3\n      pop\n      swap3\n      jump\t// out\n        /* \"#utility.yul\":4964:5060   */\n    tag_159:\n        /* \"#utility.yul\":5001:5008   */\n      0x00\n        /* \"#utility.yul\":5030:5054   */\n      tag_265\n        /* \"#utility.yul\":5048:5053   */\n      dup3\n        /* \"#utility.yul\":5030:5054   */\n      tag_155\n      jump\t// in\n    tag_265:\n        /* \"#utility.yul\":5019:5054   */\n      swap1\n      pop\n        /* \"#utility.yul\":4964:5060   */\n      swap2\n      swap1\n      pop\n      jump\t// out\n        /* \"#utility.yul\":5066:5184   */\n    tag_160:\n        /* \"#utility.yul\":5153:5177   */\n      tag_267\n        /* \"#utility.yul\":5171:5176   */\n      dup2\n        /* \"#utility.yul\":5153:5177   */\n      tag_159\n      jump\t// in\n    tag_267:\n        /* \"#utility.yul\":5148:5151   */\n      dup3\n        /* \"#utility.yul\":5141:5178   */\n      mstore\n        /* \"#utility.yul\":5066:5184   */\n      pop\n      pop\n      jump\t// out\n        /* \"#utility.yul\":5190:5412   */\n    tag_44:\n        /* \"#utility.yul\":5283:5287   */\n      0x00\n        /* \"#utility.yul\":5321:5323   */\n      0x20\n        /* \"#utility.yul\":5310:5319   */\n      dup3\n        /* \"#utility.yul\":5306:5324   */\n      add\n        /* \"#utility.yul\":5298:5324   */\n      swap1\n      pop\n        /* \"#utility.yul\":5334:5405   */\n      tag_269\n        /* \"#utility.yul\":5402:5403   */\n      0x00\n        /* \"#utility.yul\":5391:5400   */\n      dup4\n        /* \"#utility.yul\":5387:5404   */\n      add\n        /* \"#utility.yul\":5378:5384   */\n      dup5\n        /* \"#utility.yul\":5334:5405   */\n      tag_160\n      jump\t// in\n    tag_269:\n        /* \"#utility.yul\":5190:5412   */\n      swap3\n      swap2\n      pop\n      pop\n      jump\t// out\n        /* \"#utility.yul\":5418:5517   */\n    tag_161:\n        /* \"#utility.yul\":5470:5476   */\n      0x00\n        /* \"#utility.yul\":5504:5509   */\n      dup2\n        /* \"#utility.yul\":5498:5510   */\n      mload\n        /* \"#utility.yul\":5488:5510   */\n      swap1\n      pop\n        /* \"#utility.yul\":5418:5517   */\n      swap2\n      swap1\n      pop\n      jump\t// out\n        /* \"#utility.yul\":5523:5692   */\n    tag_162:\n        /* \"#utility.yul\":5607:5618   */\n      0x00\n        /* \"#utility.yul\":5641:5647   */\n      dup3\n        /* \"#utility.yul\":5636:5639   */\n      dup3\n        /* \"#utility.yul\":5629:5648   */\n      mstore\n        /* \"#utility.yul\":5681:5685   */\n      0x20\n        /* \"#utility.yul\":5676:5679   */\n      dup3\n        /* \"#utility.yul\":5672:5686   */\n      add\n        /* \"#utility.yul\":5657:5686   */\n      swap1\n      pop\n        /* \"#utility.yul\":5523:5692   */\n      swap3\n      swap2\n      pop\n      pop\n      jump\t// out\n        /* \"#utility.yul\":5698:5944   */\n    tag_163:\n        /* \"#utility.yul\":5779:5780   */\n      0x00\n        /* \"#utility.yul\":5789:5902   */\n    tag_273:\n        /* \"#utility.yul\":5803:5809   */\n      dup4\n        /* \"#utility.yul\":5800:5801   */\n      dup2\n        /* \"#utility.yul\":5797:5810   */\n      lt\n        /* \"#utility.yul\":5789:5902   */\n      iszero\n      tag_275\n      jumpi\n        /* \"#utility.yul\":5888:5889   */\n      dup1\n        /* \"#utility.yul\":5883:5886   */\n      dup3\n        /* \"#utility.yul\":5879:5890   */\n      add\n        /* \"#utility.yul\":5873:5891   */\n      mload\n        /* \"#utility.yul\":5869:5870   */\n      dup2\n        /* \"#utility.yul\":5864:5867   */\n      dup5\n        /* \"#utility.yul\":5860:5871   */\n      add\n        /* \"#utility.yul\":5853:5892   */\n      mstore\n        /* \"#utility.yul\":5825:5827   */\n      0x20\n        /* \"#utility.yul\":5822:5823   */\n      dup2\n        /* \"#utility.yul\":5818:5828   */\n      add\n        /* \"#utility.yul\":5813:5828   */\n      swap1\n      pop\n        /* \"#utility.yul\":5789:5902   */\n      jump(tag_273)\n    tag_275:\n        /* \"#utility.yul\":5936:5937   */\n      0x00\n        /* \"#utility.yul\":5927:5933   */\n      dup5\n        /* \"#utility.yul\":5922:5925   */\n      dup5\n        /* \"#utility.yul\":5918:5934   */\n      add\n        /* \"#utility.yul\":5911:5938   */\n      mstore\n        /* \"#utility.yul\":5760:5944   */\n      pop\n        /* \"#utility.yul\":5698:5944   */\n      pop\n      pop\n      pop\n      jump\t// out\n        /* \"#utility.yul\":5950:6327   */\n    tag_164:\n        /* \"#utility.yul\":6038:6041   */\n      0x00\n        /* \"#utility.yul\":6066:6105   */\n      tag_277\n        /* \"#utility.yul\":6099:6104   */\n      dup3\n        /* \"#utility.yul\":6066:6105   */\n      tag_161\n      jump\t// in\n    tag_277:\n        /* \"#utility.yul\":6121:6192   */\n      tag_278\n        /* \"#utility.yul\":6185:6191   */\n      dup2\n        /* \"#utility.yul\":6180:6183   */\n      dup6\n        /* \"#utility.yul\":6121:6192   */\n      tag_162\n      jump\t// in\n    tag_278:\n        /* \"#utility.yul\":6114:6192   */\n      swap4\n      pop\n        /* \"#utility.yul\":6201:6266   */\n      tag_279\n        /* \"#utility.yul\":6259:6265   */\n      dup2\n        /* \"#utility.yul\":6254:6257   */\n      dup6\n        /* \"#utility.yul\":6247:6251   */\n      0x20\n        /* \"#utility.yul\":6240:6245   */\n      dup7\n        /* \"#utility.yul\":6236:6252   */\n      add\n        /* \"#utility.yul\":6201:6266   */\n      tag_163\n      jump\t// in\n    tag_279:\n        /* \"#utility.yul\":6291:6320   */\n      tag_280\n        /* \"#utility.yul\":6313:6319   */\n      dup2\n        /* \"#utility.yul\":6291:6320   */\n      tag_147\n      jump\t// in\n    tag_280:\n        /* \"#utility.yul\":6286:6289   */\n      dup5\n        /* \"#utility.yul\":6282:6321   */\n      add\n        /* \"#utility.yul\":6275:6321   */\n      swap2\n      pop\n        /* \"#utility.yul\":6042:6327   */\n      pop\n        /* \"#utility.yul\":5950:6327   */\n      swap3\n      swap2\n      pop\n      pop\n      jump\t// out\n        /* \"#utility.yul\":6333:6475   */\n    tag_165:\n        /* \"#utility.yul\":6436:6468   */\n      tag_282\n        /* \"#utility.yul\":6462:6467   */\n      dup2\n        /* \"#utility.yul\":6436:6468   */\n      tag_156\n      jump\t// in\n    tag_282:\n        /* \"#utility.yul\":6431:6434   */\n      dup3\n        /* \"#utility.yul\":6424:6469   */\n      mstore\n        /* \"#utility.yul\":6333:6475   */\n      pop\n      pop\n      jump\t// out\n        /* \"#utility.yul\":6481:6571   */\n    tag_166:\n        /* \"#utility.yul\":6515:6522   */\n      0x00\n        /* \"#utility.yul\":6558:6563   */\n      dup2\n        /* \"#utility.yul\":6551:6564   */\n      iszero\n        /* \"#utility.yul\":6544:6565   */\n      iszero\n        /* \"#utility.yul\":6533:6565   */\n      swap1\n      pop\n        /* \"#utility.yul\":6481:6571   */\n      swap2\n      swap1\n      pop\n      jump\t// out\n        /* \"#utility.yul\":6577:6686   */\n    tag_167:\n        /* \"#utility.yul\":6658:6679   */\n      tag_285\n        /* \"#utility.yul\":6673:6678   */\n      dup2\n        /* \"#utility.yul\":6658:6679   */\n      tag_166\n      jump\t// in\n    tag_285:\n        /* \"#utility.yul\":6653:6656   */\n      dup3\n        /* \"#utility.yul\":6646:6680   */\n      mstore\n        /* \"#utility.yul\":6577:6686   */\n      pop\n      pop\n      jump\t// out\n        /* \"#utility.yul\":6692:7467   */\n    tag_65:\n        /* \"#utility.yul\":6927:6931   */\n      0x00\n        /* \"#utility.yul\":6965:6968   */\n      0xa0\n        /* \"#utility.yul\":6954:6963   */\n      dup3\n        /* \"#utility.yul\":6950:6969   */\n      add\n        /* \"#utility.yul\":6942:6969   */\n      swap1\n      pop\n        /* \"#utility.yul\":7015:7024   */\n      dup2\n        /* \"#utility.yul\":7009:7013   */\n      dup2\n        /* \"#utility.yul\":7005:7025   */\n      sub\n        /* \"#utility.yul\":7001:7002   */\n      0x00\n        /* \"#utility.yul\":6990:6999   */\n      dup4\n        /* \"#utility.yul\":6986:7003   */\n      add\n        /* \"#utility.yul\":6979:7026   */\n      mstore\n        /* \"#utility.yul\":7043:7121   */\n      tag_287\n        /* \"#utility.yul\":7116:7120   */\n      dup2\n        /* \"#utility.yul\":7107:7113   */\n      dup9\n        /* \"#utility.yul\":7043:7121   */\n      tag_164\n      jump\t// in\n    tag_287:\n        /* \"#utility.yul\":7035:7121   */\n      swap1\n      pop\n        /* \"#utility.yul\":7131:7219   */\n      tag_288\n        /* \"#utility.yul\":7215:7217   */\n      0x20\n        /* \"#utility.yul\":7204:7213   */\n      dup4\n        /* \"#utility.yul\":7200:7218   */\n      add\n        /* \"#utility.yul\":7191:7197   */\n      dup8\n        /* \"#utility.yul\":7131:7219   */\n      tag_165\n      jump\t// in\n    tag_288:\n        /* \"#utility.yul\":7229:7301   */\n      tag_289\n        /* \"#utility.yul\":7297:7299   */\n      0x40\n        /* \"#utility.yul\":7286:7295   */\n      dup4\n        /* \"#utility.yul\":7282:7300   */\n      add\n        /* \"#utility.yul\":7273:7279   */\n      dup7\n        /* \"#utility.yul\":7229:7301   */\n      tag_144\n      jump\t// in\n    tag_289:\n        /* \"#utility.yul\":7311:7377   */\n      tag_290\n        /* \"#utility.yul\":7373:7375   */\n      0x60\n        /* \"#utility.yul\":7362:7371   */\n      dup4\n        /* \"#utility.yul\":7358:7376   */\n      add\n        /* \"#utility.yul\":7349:7355   */\n      dup6\n        /* \"#utility.yul\":7311:7377   */\n      tag_167\n      jump\t// in\n    tag_290:\n        /* \"#utility.yul\":7387:7460   */\n      tag_291\n        /* \"#utility.yul\":7455:7458   */\n      0x80\n        /* \"#utility.yul\":7444:7453   */\n      dup4\n        /* \"#utility.yul\":7440:7459   */\n      add\n        /* \"#utility.yul\":7431:7437   */\n      dup5\n        /* \"#utility.yul\":7387:7460   */\n      tag_144\n      jump\t// in\n    tag_291:\n        /* \"#utility.yul\":6692:7467   */\n      swap7\n      swap6\n      pop\n      pop\n      pop\n      pop\n      pop\n      pop\n      jump\t// out\n        /* \"#utility.yul\":7473:7638   */\n    tag_168:\n        /* \"#utility.yul\":7613:7630   */\n      0x646561646c696e65207061737365640000000000000000000000000000000000\n        /* \"#utility.yul\":7609:7610   */\n      0x00\n        /* \"#utility.yul\":7601:7607   */\n      dup3\n        /* \"#utility.yul\":7597:7611   */\n      add\n        /* \"#utility.yul\":7590:7631   */\n      mstore\n        /* \"#utility.yul\":7473:7638   */\n      pop\n      jump\t// out\n        /* \"#utility.yul\":7644:8010   */\n    tag_169:\n        /* \"#utility.yul\":7786:7789   */\n      0x00\n        /* \"#utility.yul\":7807:7874   */\n      tag_294\n        /* \"#utility.yul\":7871:7873   */\n      0x0f\n        /* \"#utility.yul\":7866:7869   */\n      dup4\n        /* \"#utility.yul\":7807:7874   */\n      tag_162\n      jump\t// in\n    tag_294:\n        /* \"#utility.yul\":7800:7874   */\n      swap2\n      pop\n        /* \"#utility.yul\":7883:7976   */\n      tag_295\n        /* \"#utility.yul\":7972:7975   */\n      dup3\n        /* \"#utility.yul\":7883:7976   */\n      tag_168\n      jump\t// in\n    tag_295:\n        /* \"#utility.yul\":8001:8003   */\n      0x20\n        /* \"#utility.yul\":7996:7999   */\n      dup3\n        /* \"#utility.yul\":7992:8004   */\n      add\n        /* \"#utility.yul\":7985:8004   */\n      swap1\n      pop\n        /* \"#utility.yul\":7644:8010   */\n      swap2\n      swap1\n      pop\n      jump\t// out\n        /* \"#utility.yul\":8016:8435   */\n    tag_81:\n        /* \"#utility.yul\":8182:8186   */\n      0x00\n        /* \"#utility.yul\":8220:8222   */\n      0x20\n        /* \"#utility.yul\":8209:8218   */\n      dup3\n        /* \"#utility.yul\":8205:8223   */\n      add\n        /* \"#utility.yul\":8197:8223   */\n      swap1\n      pop\n        /* \"#utility.yul\":8269:8278   */\n      dup2\n        /* \"#utility.yul\":8263:8267   */\n      dup2\n        /* \"#utility.yul\":8259:8279   */\n      sub\n        /* \"#utility.yul\":8255:8256   */\n      0x00\n        /* \"#utility.yul\":8244:8253   */\n      dup4\n        /* \"#utility.yul\":8240:8257   */\n      add\n        /* \"#utility.yul\":8233:8280   */\n      mstore\n        /* \"#utility.yul\":8297:8428   */\n      tag_297\n        /* \"#utility.yul\":8423:8427   */\n      dup2\n        /* \"#utility.yul\":8297:8428   */\n      tag_169\n      jump\t// in\n    tag_297:\n        /* \"#utility.yul\":8289:8428   */\n      swap1\n      pop\n        /* \"#utility.yul\":8016:8435   */\n      swap2\n      swap1\n      pop\n      jump\t// out\n        /* \"#utility.yul\":8441:8619   */\n    tag_170:\n        /* \"#utility.yul\":8581:8611   */\n      0x6d696e696d756d20636f6e747269627574696f6e206e6f74206d657400000000\n        /* \"#utility.yul\":8577:8578   */\n      0x00\n        /* \"#utility.yul\":8569:8575   */\n      dup3\n        /* \"#utility.yul\":8565:8579   */\n      add\n        /* \"#utility.yul\":8558:8612   */\n      mstore\n        /* \"#utility.yul\":8441:8619   */\n      pop\n      jump\t// out\n        /* \"#utility.yul\":8625:8991   */\n    tag_171:\n        /* \"#utility.yul\":8767:8770   */\n      0x00\n        /* \"#utility.yul\":8788:8855   */\n      tag_300\n        /* \"#utility.yul\":8852:8854   */\n      0x1c\n        /* \"#utility.yul\":8847:8850   */\n      dup4\n        /* \"#utility.yul\":8788:8855   */\n      tag_162\n      jump\t// in\n    tag_300:\n        /* \"#utility.yul\":8781:8855   */\n      swap2\n      pop\n        /* \"#utility.yul\":8864:8957   */\n      tag_301\n        /* \"#utility.yul\":8953:8956   */\n      dup3\n        /* \"#utility.yul\":8864:8957   */\n      tag_170\n      jump\t// in\n    tag_301:\n        /* \"#utility.yul\":8982:8984   */\n      0x20\n        /* \"#utility.yul\":8977:8980   */\n      dup3\n        /* \"#utility.yul\":8973:8985   */\n      add\n        /* \"#utility.yul\":8966:8985   */\n      swap1\n      pop\n        /* \"#utility.yul\":8625:8991   */\n      swap2\n      swap1\n      pop\n      jump\t// out\n        /* \"#utility.yul\":8997:9416   */\n    tag_84:\n        /* \"#utility.yul\":9163:9167   */\n      0x00\n        /* \"#utility.yul\":9201:9203   */\n      0x20\n        /* \"#utility.yul\":9190:9199   */\n      dup3\n        /* \"#utility.yul\":9186:9204   */\n      add\n        /* \"#utility.yul\":9178:9204   */\n      swap1\n      pop\n        /* \"#utility.yul\":9250:9259   */\n      dup2\n        /* \"#utility.yul\":9244:9248   */\n      dup2\n        /* \"#utility.yul\":9240:9260   */\n      sub\n        /* \"#utility.yul\":9236:9237   */\n      0x00\n        /* \"#utility.yul\":9225:9234   */\n      dup4\n        /* \"#utility.yul\":9221:9238   */\n      add\n        /* \"#utility.yul\":9214:9261   */\n      mstore\n        /* \"#utility.yul\":9278:9409   */\n      tag_303\n        /* \"#utility.yul\":9404:9408   */\n      dup2\n        /* \"#utility.yul\":9278:9409   */\n      tag_171\n      jump\t// in\n    tag_303:\n        /* \"#utility.yul\":9270:9409   */\n      swap1\n      pop\n        /* \"#utility.yul\":8997:9416   */\n      swap2\n      swap1\n      pop\n      jump\t// out\n        /* \"#utility.yul\":9422:9602   */\n    tag_172:\n        /* \"#utility.yul\":9470:9547   */\n      0x4e487b7100000000000000000000000000000000000000000000000000000000\n        /* \"#utility.yul\":9467:9468   */\n      0x00\n        /* \"#utility.yul\":9460:9548   */\n      mstore\n        /* \"#utility.yul\":9567:9571   */\n      0x11\n        /* \"#utility.yul\":9564:9565   */\n      0x04\n        /* \"#utility.yul\":9557:9572   */\n      mstore\n        /* \"#utility.yul\":9591:9595   */\n      0x24\n        /* \"#utility.yul\":9588:9589   */\n      0x00\n        /* \"#utility.yul\":9581:9596   */\n      revert\n        /* \"#utility.yul\":9608:9841   */\n    tag_87:\n        /* \"#utility.yul\":9647:9650   */\n      0x00\n        /* \"#utility.yul\":9670:9694   */\n      tag_306\n        /* \"#utility.yul\":9688:9693   */\n      dup3\n        /* \"#utility.yul\":9670:9694   */\n      tag_141\n      jump\t// in\n    tag_306:\n        /* \"#utility.yul\":9661:9694   */\n      swap2\n      pop\n        /* \"#utility.yul\":9716:9782   */\n      0xffffffffffffffffffffffffffffffffffffffffffffffffffffffffffffffff\n        /* \"#utility.yul\":9709:9714   */\n      dup3\n        /* \"#utility.yul\":9706:9783   */\n      sub\n        /* \"#utility.yul\":9703:9806   */\n      tag_307\n      jumpi\n        /* \"#utility.yul\":9786:9804   */\n      tag_308\n      tag_172\n      jump\t// in\n    tag_308:\n        /* \"#utility.yul\":9703:9806   */\n    tag_307:\n        /* \"#utility.yul\":9833:9834   */\n      0x01\n        /* \"#utility.yul\":9826:9831   */\n      dup3\n        /* \"#utility.yul\":9822:9835   */\n      add\n        /* \"#utility.yul\":9815:9835   */\n      swap1\n      pop\n        /* \"#utility.yul\":9608:9841   */\n      swap2\n      swap1\n      pop\n      jump\t// out\n        /* \"#utility.yul\":9847:10038   */\n    tag_89:\n        /* \"#utility.yul\":9887:9890   */\n      0x00\n        /* \"#utility.yul\":9906:9926   */\n      tag_310\n        /* \"#utility.yul\":9924:9925   */\n      dup3\n        /* \"#utility.yul\":9906:9926   */\n      tag_141\n      jump\t// in\n    tag_310:\n        /* \"#utility.yul\":9901:9926   */\n      swap2\n      pop\n        /* \"#utility.yul\":9940:9960   */\n      tag_311\n        /* \"#utility.yul\":9958:9959   */\n      dup4\n        /* \"#utility.yul\":9940:9960   */\n      tag_141\n      jump\t// in\n    tag_311:\n        /* \"#utility.yul\":9935:9960   */\n      swap3\n      pop\n        /* \"#utility.yul\":9983:9984   */\n      dup3\n        /* \"#utility.yul\":9980:9981   */\n      dup3\n        /* \"#utility.yul\":9976:9985   */\n      add\n        /* \"#utility.yul\":9969:9985   */\n      swap1\n      pop\n        /* \"#utility.yul\":10004:10007   */\n      dup1\n        /* \"#utility.yul\":10001:10002   */\n      dup3\n        /* \"#utility.yul\":9998:10008   */\n      gt\n        /* \"#utility.yul\":9995:10031   */\n      iszero\n      tag_312\n      jumpi\n        /* \"#utility.yul\":10011:10029   */\n      tag_313\n      tag_172\n      jump\t// in\n    tag_313:\n        /* \"#utility.yul\":9995:10031   */\n    tag_312:\n        /* \"#utility.yul\":9847:10038   */\n      swap3\n      swap2\n      pop\n      pop\n      jump\t// out\n        /* \"#utility.yul\":10044:10268   */\n    tag_173:\n        /* \"#utility.yul\":10184:10218   */\n      0x6f6e6c79206d616e616765722063616e2063616c6c20746869732066756e636e\n        /* \"#utility.yul\":10180:10181   */\n      0x00\n        /* \"#utility.yul\":10172:10178   */\n      dup3\n        /* \"#utility.yul\":10168:10182   */\n      add\n        /* \"#utility.yul\":10161:10219   */\n      mstore\n        /* \"#utility.yul\":10253:10260   */\n      0x6374696f6e000000000000000000000000000000000000000000000000000000\n        /* \"#utility.yul\":10248:10250   */\n      0x20\n        /* \"#utility.yul\":10240:10246   */\n      dup3\n        /* \"#utility.yul\":10236:10251   */\n      add\n        /* \"#utility.yul\":10229:10261   */\n      mstore\n        /* \"#utility.yul\":10044:10268   */\n      pop\n      jump\t// out\n        /* \"#utility.yul\":10274:10640   */\n    tag_174:\n        /* \"#utility.yul\":10416:10419   */\n      0x00\n        /* \"#utility.yul\":10437:10504   */\n      tag_316\n        /* \"#utility.yul\":10501:10503   */\n      0x25\n        /* \"#utility.yul\":10496:10499   */\n      dup4\n        /* \"#utility.yul\":10437:10504   */\n      tag_162\n      jump\t// in\n    tag_316:\n        /* \"#utility.yul\":10430:10504   */\n      swap2\n      pop\n        /* \"#utility.yul\":10513:10606   */\n      tag_317\n        /* \"#utility.yul\":10602:10605   */\n      dup3\n        /* \"#utility.yul\":10513:10606   */\n      tag_173\n      jump\t// in\n    tag_317:\n        /* \"#utility.yul\":10631:10633   */\n      0x40\n        /* \"#utility.yul\":10626:10629   */\n      dup3\n        /* \"#utility.yul\":10622:10634   */\n      add\n        /* \"#utility.yul\":10615:10634   */\n      swap1\n      pop\n        /* \"#utility.yul\":10274:10640   */\n      swap2\n      swap1\n      pop\n      jump\t// out\n        /* \"#utility.yul\":10646:11065   */\n    tag_94:\n        /* \"#utility.yul\":10812:10816   */\n      0x00\n        /* \"#utility.yul\":10850:10852   */\n      0x20\n        /* \"#utility.yul\":10839:10848   */\n      dup3\n        /* \"#utility.yul\":10835:10853   */\n      add\n        /* \"#utility.yul\":10827:10853   */\n      swap1\n      pop\n        /* \"#utility.yul\":10899:10908   */\n      dup2\n        /* \"#utility.yul\":10893:10897   */\n      dup2\n        /* \"#utility.yul\":10889:10909   */\n      sub\n        /* \"#utility.yul\":10885:10886   */\n      0x00\n        /* \"#utility.yul\":10874:10883   */\n      dup4\n        /* \"#utility.yul\":10870:10887   */\n      add\n        /* \"#utility.yul\":10863:10910   */\n      mstore\n        /* \"#utility.yul\":10927:11058   */\n      tag_319\n        /* \"#utility.yul\":11053:11057   */\n      dup2\n        /* \"#utility.yul\":10927:11058   */\n      tag_174\n      jump\t// in\n    tag_319:\n        /* \"#utility.yul\":10919:11058   */\n      swap1\n      pop\n        /* \"#utility.yul\":10646:11065   */\n      swap2\n      swap1\n      pop\n      jump\t// out\n        /* \"#utility.yul\":11071:11235   */\n    tag_175:\n        /* \"#utility.yul\":11211:11227   */\n      0x546172676574206e6f74206d6574000000000000000000000000000000000000\n        /* \"#utility.yul\":11207:11208   */\n      0x00\n        /* \"#utility.yul\":11199:11205   */\n      dup3\n        /* \"#utility.yul\":11195:11209   */\n      add\n        /* \"#utility.yul\":11188:11228   */\n      mstore\n        /* \"#utility.yul\":11071:11235   */\n      pop\n      jump\t// out\n        /* \"#utility.yul\":11241:11607   */\n    tag_176:\n        /* \"#utility.yul\":11383:11386   */\n      0x00\n        /* \"#utility.yul\":11404:11471   */\n      tag_322\n        /* \"#utility.yul\":11468:11470   */\n      0x0e\n        /* \"#utility.yul\":11463:11466   */\n      dup4\n        /* \"#utility.yul\":11404:11471   */\n      tag_162\n      jump\t// in\n    tag_322:\n        /* \"#utility.yul\":11397:11471   */\n      swap2\n      pop\n        /* \"#utility.yul\":11480:11573   */\n      tag_323\n        /* \"#utility.yul\":11569:11572   */\n      dup3\n        /* \"#utility.yul\":11480:11573   */\n      tag_175\n      jump\t// in\n    tag_323:\n        /* \"#utility.yul\":11598:11600   */\n      0x20\n        /* \"#utility.yul\":11593:11596   */\n      dup3\n        /* \"#utility.yul\":11589:11601   */\n      add\n        /* \"#utility.yul\":11582:11601   */\n      swap1\n      pop\n        /* \"#utility.yul\":11241:11607   */\n      swap2\n      swap1\n      pop\n      jump\t// out\n        /* \"#utility.yul\":11613:12032   */\n    tag_98:\n        /* \"#utility.yul\":11779:11783   */\n      0x00\n        /* \"#utility.yul\":11817:11819   */\n      0x20\n        /* \"#utility.yul\":11806:11815   */\n      dup3\n        /* \"#utility.yul\":11802:11820   */\n      add\n        /* \"#utility.yul\":11794:11820   */\n      swap1\n      pop\n        /* \"#utility.yul\":11866:11875   */\n      dup2\n        /* \"#utility.yul\":11860:11864   */\n      dup2\n        /* \"#utility.yul\":11856:11876   */\n      sub\n        /* \"#utility.yul\":11852:11853   */\n      0x00\n        /* \"#utility.yul\":11841:11850   */\n      dup4\n        /* \"#utility.yul\":11837:11854   */\n      add\n        /* \"#utility.yul\":11830:11877   */\n      mstore\n        /* \"#utility.yul\":11894:12025   */\n      tag_325\n        /* \"#utility.yul\":12020:12024   */\n      dup2\n        /* \"#utility.yul\":11894:12025   */\n      tag_176\n      jump\t// in\n    tag_325:\n        /* \"#utility.yul\":11886:12025   */\n      swap1\n      pop\n        /* \"#utility.yul\":11613:12032   */\n      swap2\n      swap1\n      pop\n      jump\t// out\n        /* \"#utility.yul\":12038:12213   */\n    tag_177:\n        /* \"#utility.yul\":12178:12205   */\n      0x5265717565737420616c726561647920636f6d706c6574656400000000000000\n        /* \"#utility.yul\":12174:12175   */\n      0x00\n        /* \"#utility.yul\":12166:12172   */\n      dup3\n        /* \"#utility.yul\":12162:12176   */\n      add\n        /* \"#utility.yul\":12155:12206   */\n      mstore\n        /* \"#utility.yul\":12038:12213   */\n      pop\n      jump\t// out\n        /* \"#utility.yul\":12219:12585   */\n    tag_178:\n        /* \"#utility.yul\":12361:12364   */\n      0x00\n        /* \"#utility.yul\":12382:12449   */\n      tag_328\n        /* \"#utility.yul\":12446:12448   */\n      0x19\n        /* \"#utility.yul\":12441:12444   */\n      dup4\n        /* \"#utility.yul\":12382:12449   */\n      tag_162\n      jump\t// in\n    tag_328:\n        /* \"#utility.yul\":12375:12449   */\n      swap2\n      pop\n        /* \"#utility.yul\":12458:12551   */\n      tag_329\n        /* \"#utility.yul\":12547:12550   */\n      dup3\n        /* \"#utility.yul\":12458:12551   */\n      tag_177\n      jump\t// in\n    tag_329:\n        /* \"#utility.yul\":12576:12578   */\n      0x20\n        /* \"#utility.yul\":12571:12574   */\n      dup3\n        /* \"#utility.yul\":12567:12579   */\n      add\n        /* \"#utility.yul\":12560:12579   */\n      swap1\n      pop\n        /* \"#utility.yul\":12219:12585   */\n      swap2\n      swap1\n      pop\n      jump\t// out\n        /* \"#utility.yul\":12591:13010   */\n    tag_101:\n        /* \"#utility.yul\":12757:12761   */\n      0x00\n        /* \"#utility.yul\":12795:12797   */\n      0x20\n        /* \"#utility.yul\":12784:12793   */\n      dup3\n        /* \"#utility.yul\":12780:12798   */\n      add\n        /* \"#utility.yul\":12772:12798   */\n      swap1\n      pop\n        /* \"#utility.yul\":12844:12853   */\n      dup2\n        /* \"#utility.yul\":12838:12842   */\n      dup2\n        /* \"#utility.yul\":12834:12854   */\n      sub\n        /* \"#utility.yul\":12830:12831   */\n      0x00\n        /* \"#utility.yul\":12819:12828   */\n      dup4\n        /* \"#utility.yul\":12815:12832   */\n      add\n        /* \"#utility.yul\":12808:12855   */\n      mstore\n        /* \"#utility.yul\":12872:13003   */\n      tag_331\n        /* \"#utility.yul\":12998:13002   */\n      dup2\n        /* \"#utility.yul\":12872:13003   */\n      tag_178\n      jump\t// in\n    tag_331:\n        /* \"#utility.yul\":12864:13003   */\n      swap1\n      pop\n        /* \"#utility.yul\":12591:13010   */\n      swap2\n      swap1\n      pop\n      jump\t// out\n        /* \"#utility.yul\":13016:13196   */\n    tag_179:\n        /* \"#utility.yul\":13064:13141   */\n      0x4e487b7100000000000000000000000000000000000000000000000000000000\n        /* \"#utility.yul\":13061:13062   */\n      0x00\n        /* \"#utility.yul\":13054:13142   */\n      mstore\n        /* \"#utility.yul\":13161:13165   */\n      0x12\n        /* \"#utility.yul\":13158:13159   */\n      0x04\n        /* \"#utility.yul\":13151:13166   */\n      mstore\n        /* \"#utility.yul\":13185:13189   */\n      0x24\n        /* \"#utility.yul\":13182:13183   */\n      0x00\n        /* \"#utility.yul\":13175:13190   */\n      revert\n        /* \"#utility.yul\":13202:13387   */\n    tag_103:\n        /* \"#utility.yul\":13242:13243   */\n      0x00\n        /* \"#utility.yul\":13259:13279   */\n      tag_334\n        /* \"#utility.yul\":13277:13278   */\n      dup3\n        /* \"#utility.yul\":13259:13279   */\n      tag_141\n      jump\t// in\n    tag_334:\n        /* \"#utility.yul\":13254:13279   */\n      swap2\n      pop\n        /* \"#utility.yul\":13293:13313   */\n      tag_335\n        /* \"#utility.yul\":13311:13312   */\n      dup4\n        /* \"#utility.yul\":13293:13313   */\n      tag_141\n      jump\t// in\n    tag_335:\n        /* \"#utility.yul\":13288:13313   */\n      swap3\n      pop\n        /* \"#utility.yul\":13332:13333   */\n      dup3\n        /* \"#utility.yul\":13322:13357   */\n      tag_336\n      jumpi\n        /* \"#utility.yul\":13337:13355   */\n      tag_337\n      tag_179\n      jump\t// in\n    tag_337:\n        /* \"#utility.yul\":13322:13357   */\n    tag_336:\n        /* \"#utility.yul\":13379:13380   */\n      dup3\n        /* \"#utility.yul\":13376:13377   */\n      dup3\n        /* \"#utility.yul\":13372:13381   */\n      div\n        /* \"#utility.yul\":13367:13381   */\n      swap1\n      pop\n        /* \"#utility.yul\":13202:13387   */\n      swap3\n      swap2\n      pop\n      pop\n      jump\t// out\n        /* \"#utility.yul\":13393:13559   */\n    tag_180:\n        /* \"#utility.yul\":13533:13551   */\n      0x4e6f7420656e6f75676820766f74657300000000000000000000000000000000\n        /* \"#utility.yul\":13529:13530   */\n      0x00\n        /* \"#utility.yul\":13521:13527   */\n      dup3\n        /* \"#utility.yul\":13517:13531   */\n      add\n        /* \"#utility.yul\":13510:13552   */\n      mstore\n        /* \"#utility.yul\":13393:13559   */\n      pop\n      jump\t// out\n        /* \"#utility.yul\":13565:13931   */\n    tag_181:\n        /* \"#utility.yul\":13707:13710   */\n      0x00\n        /* \"#utility.yul\":13728:13795   */\n      tag_340\n        /* \"#utility.yul\":13792:13794   */\n      0x10\n        /* \"#utility.yul\":13787:13790   */\n      dup4\n        /* \"#utility.yul\":13728:13795   */\n      tag_162\n      jump\t// in\n    tag_340:\n        /* \"#utility.yul\":13721:13795   */\n      swap2\n      pop\n        /* \"#utility.yul\":13804:13897   */\n      tag_341\n        /* \"#utility.yul\":13893:13896   */\n      dup3\n        /* \"#utility.yul\":13804:13897   */\n      tag_180\n      jump\t// in\n    tag_341:\n        /* \"#utility.yul\":13922:13924   */\n      0x20\n        /* \"#utility.yul\":13917:13920   */\n      dup3\n        /* \"#utility.yul\":13913:13925   */\n      add\n        /* \"#utility.yul\":13906:13925   */\n      swap1\n      pop\n        /* \"#utility.yul\":13565:13931   */\n      swap2\n      swap1\n      pop\n      jump\t// out\n        /* \"#utility.yul\":13937:14356   */\n    tag_106:\n        /* \"#utility.yul\":14103:14107   */\n      0x00\n        /* \"#utility.yul\":14141:14143   */\n      0x20\n        /* \"#utility.yul\":14130:14139   */\n      dup3\n        /* \"#utility.yul\":14126:14144   */\n      add\n        /* \"#utility.yul\":14118:14144   */\n      swap1\n      pop\n        /* \"#utility.yul\":14190:14199   */\n      dup2\n        /* \"#utility.yul\":14184:14188   */\n      dup2\n        /* \"#utility.yul\":14180:14200   */\n      sub\n        /* \"#utility.yul\":14176:14177   */\n      0x00\n        /* \"#utility.yul\":14165:14174   */\n      dup4\n        /* \"#utility.yul\":14161:14178   */\n      add\n        /* \"#utility.yul\":14154:14201   */\n      mstore\n        /* \"#utility.yul\":14218:14349   */\n      tag_343\n        /* \"#utility.yul\":14344:14348   */\n      dup2\n        /* \"#utility.yul\":14218:14349   */\n      tag_181\n      jump\t// in\n    tag_343:\n        /* \"#utility.yul\":14210:14349   */\n      swap1\n      pop\n        /* \"#utility.yul\":13937:14356   */\n      swap2\n      swap1\n      pop\n      jump\t// out\n        /* \"#utility.yul\":14362:14542   */\n    tag_182:\n        /* \"#utility.yul\":14410:14487   */\n      0x4e487b7100000000000000000000000000000000000000000000000000000000\n        /* \"#utility.yul\":14407:14408   */\n      0x00\n        /* \"#utility.yul\":14400:14488   */\n      mstore\n        /* \"#utility.yul\":14507:14511   */\n      0x22\n        /* \"#utility.yul\":14504:14505   */\n      0x04\n        /* \"#utility.yul\":14497:14512   */\n      mstore\n        /* \"#utility.yul\":14531:14535   */\n      0x24\n        /* \"#utility.yul\":14528:14529   */\n      0x00\n        /* \"#utility.yul\":14521:14536   */\n      revert\n        /* \"#utility.yul\":14548:14868   */\n    tag_133:\n        /* \"#utility.yul\":14592:14598   */\n      0x00\n        /* \"#utility.yul\":14629:14630   */\n      0x02\n        /* \"#utility.yul\":14623:14627   */\n      dup3\n        /* \"#utility.yul\":14619:14631   */\n      div\n        /* \"#utility.yul\":14609:14631   */\n      swap1\n      pop\n        /* \"#utility.yul\":14676:14677   */\n      0x01\n        /* \"#utility.yul\":14670:14674   */\n      dup3\n        /* \"#utility.yul\":14666:14678   */\n      and\n        /* \"#utility.yul\":14697:14715   */\n      dup1\n        /* \"#utility.yul\":14687:14768   */\n      tag_346\n      jumpi\n        /* \"#utility.yul\":14753:14757   */\n      0x7f\n        /* \"#utility.yul\":14745:14751   */\n      dup3\n        /* \"#utility.yul\":14741:14758   */\n      and\n        /* \"#utility.yul\":14731:14758   */\n      swap2\n      pop\n        /* \"#utility.yul\":14687:14768   */\n    tag_346:\n        /* \"#utility.yul\":14815:14817   */\n      0x20\n        /* \"#utility.yul\":14807:14813   */\n      dup3\n        /* \"#utility.yul\":14804:14818   */\n      lt\n        /* \"#utility.yul\":14784:14802   */\n      dup2\n        /* \"#utility.yul\":14781:14819   */\n      sub\n        /* \"#utility.yul\":14778:14862   */\n      tag_347\n      jumpi\n        /* \"#utility.yul\":14834:14852   */\n      tag_348\n      tag_182\n      jump\t// in\n    tag_348:\n        /* \"#utility.yul\":14778:14862   */\n    tag_347:\n        /* \"#utility.yul\":14599:14868   */\n      pop\n        /* \"#utility.yul\":14548:14868   */\n      swap2\n      swap1\n      pop\n      jump\t// out\n        /* \"#utility.yul\":14874:15015   */\n    tag_183:\n        /* \"#utility.yul\":14923:14927   */\n      0x00\n        /* \"#utility.yul\":14946:14949   */\n      dup2\n        /* \"#utility.yul\":14938:14949   */\n      swap1\n      pop\n        /* \"#utility.yul\":14969:14972   */\n      dup2\n        /* \"#utility.yul\":14966:14967   */\n      0x00\n        /* \"#utility.yul\":14959:14973   */\n      mstore\n        /* \"#utility.yul\":15003:15007   */\n      0x20\n        /* \"#utility.yul\":15000:15001   */\n      0x00\n        /* \"#utility.yul\":14990:15008   */\n      keccak256\n        /* \"#utility.yul\":14982:15008   */\n      swap1\n      pop\n        /* \"#utility.yul\":14874:15015   */\n      swap2\n      swap1\n      pop\n      jump\t// out\n        /* \"#utility.yul\":15021:15114   */\n    tag_184:\n        /* \"#utility.yul\":15058:15064   */\n      0x00\n        /* \"#utility.yul\":15105:15107   */\n      0x20\n        /* \"#utility.yul\":15100:15102   */\n      0x1f\n        /* \"#utility.yul\":15093:15098   */\n      dup4\n        /* \"#utility.yul\":15089:15103   */\n      add\n        /* \"#utility.yul\":15085:15108   */\n      div\n        /* \"#utility.yul\":15075:15108   */\n      swap1\n      pop\n        /* \"#utility.yul\":15021:15114   */\n      swap2\n      swap1\n      pop\n      jump\t// out\n        /* \"#utility.yul\":15120:15227   */\n    tag_185:\n        /* \"#utility.yul\":15164:15172   */\n      0x00\n        /* \"#utility.yul\":15214:15219   */\n      dup3\n        /* \"#utility.yul\":15208:15212   */\n      dup3\n        /* \"#utility.yul\":15204:15220   */\n      shl\n        /* \"#utility.yul\":15183:15220   */\n      swap1\n      pop\n        /* \"#utility.yul\":15120:15227   */\n      swap3\n      swap2\n      pop\n      pop\n      jump\t// out\n        /* \"#utility.yul\":15233:15626   */\n    tag_186:\n        /* \"#utility.yul\":15302:15308   */\n      0x00\n        /* \"#utility.yul\":15352:15353   */\n      0x08\n        /* \"#utility.yul\":15340:15350   */\n      dup4\n        /* \"#utility.yul\":15336:15354   */\n      mul\n        /* \"#utility.yul\":15375:15472   */\n      tag_353\n        /* \"#utility.yul\":15405:15471   */\n      0xffffffffffffffffffffffffffffffffffffffffffffffffffffffffffffffff\n        /* \"#utility.yul\":15394:15403   */\n      dup3\n        /* \"#utility.yul\":15375:15472   */\n      tag_185\n      jump\t// in\n    tag_353:\n        /* \"#utility.yul\":15493:15532   */\n      tag_354\n        /* \"#utility.yul\":15523:15531   */\n      dup7\n        /* \"#utility.yul\":15512:15521   */\n      dup4\n        /* \"#utility.yul\":15493:15532   */\n      tag_185\n      jump\t// in\n    tag_354:\n        /* \"#utility.yul\":15481:15532   */\n      swap6\n      pop\n        /* \"#utility.yul\":15565:15569   */\n      dup1\n        /* \"#utility.yul\":15561:15570   */\n      not\n        /* \"#utility.yul\":15554:15559   */\n      dup5\n        /* \"#utility.yul\":15550:15571   */\n      and\n        /* \"#utility.yul\":15541:15571   */\n      swap4\n      pop\n        /* \"#utility.yul\":15614:15618   */\n      dup1\n        /* \"#utility.yul\":15604:15612   */\n      dup7\n        /* \"#utility.yul\":15600:15619   */\n      and\n        /* \"#utility.yul\":15593:15598   */\n      dup5\n        /* \"#utility.yul\":15590:15620   */\n      or\n        /* \"#utility.yul\":15580:15620   */\n      swap3\n      pop\n        /* \"#utility.yul\":15309:15626   */\n      pop\n      pop\n        /* \"#utility.yul\":15233:15626   */\n      swap4\n      swap3\n      pop\n      pop\n      pop\n      jump\t// out\n        /* \"#utility.yul\":15632:15692   */\n    tag_187:\n        /* \"#utility.yul\":15660:15663   */\n      0x00\n        /* \"#utility.yul\":15681:15686   */\n      dup2\n        /* \"#utility.yul\":15674:15686   */\n      swap1\n      pop\n        /* \"#utility.yul\":15632:15692   */\n      swap2\n      swap1\n      pop\n      jump\t// out\n        /* \"#utility.yul\":15698:15840   */\n    tag_188:\n        /* \"#utility.yul\":15748:15757   */\n      0x00\n        /* \"#utility.yul\":15781:15834   */\n      tag_357\n        /* \"#utility.yul\":15799:15833   */\n      tag_358\n        /* \"#utility.yul\":15808:15832   */\n      tag_359\n        /* \"#utility.yul\":15826:15831   */\n      dup5\n        /* \"#utility.yul\":15808:15832   */\n      tag_141\n      jump\t// in\n    tag_359:\n        /* \"#utility.yul\":15799:15833   */\n      tag_187\n      jump\t// in\n    tag_358:\n        /* \"#utility.yul\":15781:15834   */\n      tag_141\n      jump\t// in\n    tag_357:\n        /* \"#utility.yul\":15768:15834   */\n      swap1\n      pop\n        /* \"#utility.yul\":15698:15840   */\n      swap2\n      swap1\n      pop\n      jump\t// out\n        /* \"#utility.yul\":15846:15921   */\n    tag_189:\n        /* \"#utility.yul\":15889:15892   */\n      0x00\n        /* \"#utility.yul\":15910:15915   */\n      dup2\n        /* \"#utility.yul\":15903:15915   */\n      swap1\n      pop\n        /* \"#utility.yul\":15846:15921   */\n      swap2\n      swap1\n      pop\n      jump\t// out\n        /* \"#utility.yul\":15927:16196   */\n    tag_190:\n        /* \"#utility.yul\":16037:16076   */\n      tag_362\n        /* \"#utility.yul\":16068:16075   */\n      dup4\n        /* \"#utility.yul\":16037:16076   */\n      tag_188\n      jump\t// in\n    tag_362:\n        /* \"#utility.yul\":16098:16189   */\n      tag_363\n        /* \"#utility.yul\":16147:16188   */\n      tag_364\n        /* \"#utility.yul\":16171:16187   */\n      dup3\n        /* \"#utility.yul\":16147:16188   */\n      tag_189\n      jump\t// in\n    tag_364:\n        /* \"#utility.yul\":16139:16145   */\n      dup5\n        /* \"#utility.yul\":16132:16136   */\n      dup5\n        /* \"#utility.yul\":16126:16137   */\n      sload\n        /* \"#utility.yul\":16098:16189   */\n      tag_186\n      jump\t// in\n    tag_363:\n        /* \"#utility.yul\":16092:16096   */\n      dup3\n        /* \"#utility.yul\":16085:16190   */\n      sstore\n        /* \"#utility.yul\":16003:16196   */\n      pop\n        /* \"#utility.yul\":15927:16196   */\n      pop\n      pop\n      pop\n      jump\t// out\n        /* \"#utility.yul\":16202:16275   */\n    tag_191:\n        /* \"#utility.yul\":16247:16250   */\n      0x00\n        /* \"#utility.yul\":16202:16275   */\n      swap1\n      jump\t// out\n        /* \"#utility.yul\":16281:16470   */\n    tag_192:\n        /* \"#utility.yul\":16358:16390   */\n      tag_367\n      tag_191\n      jump\t// in\n    tag_367:\n        /* \"#utility.yul\":16399:16464   */\n      tag_368\n        /* \"#utility.yul\":16457:16463   */\n      dup2\n        /* \"#utility.yul\":16449:16455   */\n      dup5\n        /* \"#utility.yul\":16443:16447   */\n      dup5\n        /* \"#utility.yul\":16399:16464   */\n      tag_190\n      jump\t// in\n    tag_368:\n        /* \"#utility.yul\":16334:16470   */\n      pop\n        /* \"#utility.yul\":16281:16470   */\n      pop\n      pop\n      jump\t// out\n        /* \"#utility.yul\":16476:16662   */\n    tag_193:\n        /* \"#utility.yul\":16536:16656   */\n    tag_370:\n        /* \"#utility.yul\":16553:16556   */\n      dup2\n        /* \"#utility.yul\":16546:16551   */\n      dup2\n        /* \"#utility.yul\":16543:16557   */\n      lt\n        /* \"#utility.yul\":16536:16656   */\n      iszero\n      tag_372\n      jumpi\n        /* \"#utility.yul\":16607:16646   */\n      tag_373\n        /* \"#utility.yul\":16644:16645   */\n      0x00\n        /* \"#utility.yul\":16637:16642   */\n      dup3\n        /* \"#utility.yul\":16607:16646   */\n      tag_192\n      jump\t// in\n    tag_373:\n        /* \"#utility.yul\":16580:16581   */\n      0x01\n        /* \"#utility.yul\":16573:16578   */\n      dup2\n        /* \"#utility.yul\":16569:16582   */\n      add\n        /* \"#utility.yul\":16560:16582   */\n      swap1\n      pop\n        /* \"#utility.yul\":16536:16656   */\n      jump(tag_370)\n    tag_372:\n        /* \"#utility.yul\":16476:16662   */\n      pop\n      pop\n      jump\t// out\n        /* \"#utility.yul\":16668:17211   */\n    tag_194:\n        /* \"#utility.yul\":16769:16771   */\n      0x1f\n        /* \"#utility.yul\":16764:16767   */\n      dup3\n        /* \"#utility.yul\":16761:16772   */\n      gt\n        /* \"#utility.yul\":16758:17204   */\n      iszero\n      tag_375\n      jumpi\n        /* \"#utility.yul\":16803:16841   */\n      tag_376\n        /* \"#utility.yul\":16835:16840   */\n      dup2\n        /* \"#utility.yul\":16803:16841   */\n      tag_183\n      jump\t// in\n    tag_376:\n        /* \"#utility.yul\":16887:16916   */\n      tag_377\n        /* \"#utility.yul\":16905:16915   */\n      dup5\n        /* \"#utility.yul\":16887:16916   */\n      tag_184\n      jump\t// in\n    tag_377:\n        /* \"#utility.yul\":16877:16885   */\n      dup2\n        /* \"#utility.yul\":16873:16917   */\n      add\n        /* \"#utility.yul\":17070:17072   */\n      0x20\n        /* \"#utility.yul\":17058:17068   */\n      dup6\n        /* \"#utility.yul\":17055:17073   */\n      lt\n        /* \"#utility.yul\":17052:17101   */\n      iszero\n      tag_378\n      jumpi\n        /* \"#utility.yul\":17091:17099   */\n      dup2\n        /* \"#utility.yul\":17076:17099   */\n      swap1\n      pop\n        /* \"#utility.yul\":17052:17101   */\n    tag_378:\n        /* \"#utility.yul\":17114:17194   */\n      tag_379\n        /* \"#utility.yul\":17170:17192   */\n      tag_380\n        /* \"#utility.yul\":17188:17191   */\n      dup6\n        /* \"#utility.yul\":17170:17192   */\n      tag_184\n      jump\t// in\n    tag_380:\n        /* \"#utility.yul\":17160:17168   */\n      dup4\n        /* \"#utility.yul\":17156:17193   */\n      add\n        /* \"#utility.yul\":17143:17154   */\n      dup3\n        /* \"#utility.yul\":17114:17194   */\n      tag_193\n      jump\t// in\n    tag_379:\n        /* \"#utility.yul\":16773:17204   */\n      pop\n      pop\n        /* \"#utility.yul\":16758:17204   */\n    tag_375:\n        /* \"#utility.yul\":16668:17211   */\n      pop\n      pop\n      pop\n      jump\t// out\n        /* \"#utility.yul\":17217:17334   */\n    tag_195:\n        /* \"#utility.yul\":17271:17279   */\n      0x00\n        /* \"#utility.yul\":17321:17326   */\n      dup3\n        /* \"#utility.yul\":17315:17319   */\n      dup3\n        /* \"#utility.yul\":17311:17327   */\n      shr\n        /* \"#utility.yul\":17290:17327   */\n      swap1\n      pop\n        /* \"#utility.yul\":17217:17334   */\n      swap3\n      swap2\n      pop\n      pop\n      jump\t// out\n        /* \"#utility.yul\":17340:17509   */\n    tag_196:\n        /* \"#utility.yul\":17384:17390   */\n      0x00\n        /* \"#utility.yul\":17417:17468   */\n      tag_383\n        /* \"#utility.yul\":17465:17466   */\n      0x00\n        /* \"#utility.yul\":17461:17467   */\n      not\n        /* \"#utility.yul\":17453:17458   */\n      dup5\n        /* \"#utility.yul\":17450:17451   */\n      0x08\n        /* \"#utility.yul\":17446:17459   */\n      mul\n        /* \"#utility.yul\":17417:17468   */\n      tag_195\n      jump\t// in\n    tag_383:\n        /* \"#utility.yul\":17413:17469   */\n      not\n        /* \"#utility.yul\":17498:17502   */\n      dup1\n        /* \"#utility.yul\":17492:17496   */\n      dup4\n        /* \"#utility.yul\":17488:17503   */\n      and\n        /* \"#utility.yul\":17478:17503   */\n      swap2\n      pop\n        /* \"#utility.yul\":17391:17509   */\n      pop\n        /* \"#utility.yul\":17340:17509   */\n      swap3\n      swap2\n      pop\n      pop\n      jump\t// out\n        /* \"#utility.yul\":17514:17809   */\n    tag_197:\n        /* \"#utility.yul\":17590:17594   */\n      0x00\n        /* \"#utility.yul\":17736:17765   */\n      tag_385\n        /* \"#utility.yul\":17761:17764   */\n      dup4\n        /* \"#utility.yul\":17755:17759   */\n      dup4\n        /* \"#utility.yul\":17736:17765   */\n      tag_196\n      jump\t// in\n    tag_385:\n        /* \"#utility.yul\":17728:17765   */\n      swap2\n      pop\n        /* \"#utility.yul\":17798:17801   */\n      dup3\n        /* \"#utility.yul\":17795:17796   */\n      0x02\n        /* \"#utility.yul\":17791:17802   */\n      mul\n        /* \"#utility.yul\":17785:17789   */\n      dup3\n        /* \"#utility.yul\":17782:17803   */\n      or\n        /* \"#utility.yul\":17774:17803   */\n      swap1\n      pop\n        /* \"#utility.yul\":17514:17809   */\n      swap3\n      swap2\n      pop\n      pop\n      jump\t// out\n        /* \"#utility.yul\":17814:19209   */\n    tag_115:\n        /* \"#utility.yul\":17931:17968   */\n      tag_387\n        /* \"#utility.yul\":17964:17967   */\n      dup3\n        /* \"#utility.yul\":17931:17968   */\n      tag_161\n      jump\t// in\n    tag_387:\n        /* \"#utility.yul\":18033:18051   */\n      0xffffffffffffffff\n        /* \"#utility.yul\":18025:18031   */\n      dup2\n        /* \"#utility.yul\":18022:18052   */\n      gt\n        /* \"#utility.yul\":18019:18075   */\n      iszero\n      tag_388\n      jumpi\n        /* \"#utility.yul\":18055:18073   */\n      tag_389\n      tag_148\n      jump\t// in\n    tag_389:\n        /* \"#utility.yul\":18019:18075   */\n    tag_388:\n        /* \"#utility.yul\":18099:18137   */\n      tag_390\n        /* \"#utility.yul\":18131:18135   */\n      dup3\n        /* \"#utility.yul\":18125:18136   */\n      sload\n        /* \"#utility.yul\":18099:18137   */\n      tag_133\n      jump\t// in\n    tag_390:\n        /* \"#utility.yul\":18184:18251   */\n      tag_391\n        /* \"#utility.yul\":18244:18250   */\n      dup3\n        /* \"#utility.yul\":18236:18242   */\n      dup3\n        /* \"#utility.yul\":18230:18234   */\n      dup6\n        /* \"#utility.yul\":18184:18251   */\n      tag_194\n      jump\t// in\n    tag_391:\n        /* \"#utility.yul\":18278:18279   */\n      0x00\n        /* \"#utility.yul\":18302:18306   */\n      0x20\n        /* \"#utility.yul\":18289:18306   */\n      swap1\n      pop\n        /* \"#utility.yul\":18334:18336   */\n      0x1f\n        /* \"#utility.yul\":18326:18332   */\n      dup4\n        /* \"#utility.yul\":18323:18337   */\n      gt\n        /* \"#utility.yul\":18351:18352   */\n      0x01\n        /* \"#utility.yul\":18346:18964   */\n      dup2\n      eq\n      tag_393\n      jumpi\n        /* \"#utility.yul\":19008:19009   */\n      0x00\n        /* \"#utility.yul\":19025:19031   */\n      dup5\n        /* \"#utility.yul\":19022:19099   */\n      iszero\n      tag_394\n      jumpi\n        /* \"#utility.yul\":19074:19083   */\n      dup3\n        /* \"#utility.yul\":19069:19072   */\n      dup8\n        /* \"#utility.yul\":19065:19084   */\n      add\n        /* \"#utility.yul\":19059:19085   */\n      mload\n        /* \"#utility.yul\":19050:19085   */\n      swap1\n      pop\n        /* \"#utility.yul\":19022:19099   */\n    tag_394:\n        /* \"#utility.yul\":19125:19192   */\n      tag_395\n        /* \"#utility.yul\":19185:19191   */\n      dup6\n        /* \"#utility.yul\":19178:19183   */\n      dup3\n        /* \"#utility.yul\":19125:19192   */\n      tag_197\n      jump\t// in\n    tag_395:\n        /* \"#utility.yul\":19119:19123   */\n      dup7\n        /* \"#utility.yul\":19112:19193   */\n      sstore\n        /* \"#utility.yul\":18981:19203   */\n      pop\n        /* \"#utility.yul\":18316:19203   */\n      jump(tag_392)\n        /* \"#utility.yul\":18346:18964   */\n    tag_393:\n        /* \"#utility.yul\":18398:18402   */\n      0x1f\n        /* \"#utility.yul\":18394:18403   */\n      not\n        /* \"#utility.yul\":18386:18392   */\n      dup5\n        /* \"#utility.yul\":18382:18404   */\n      and\n        /* \"#utility.yul\":18432:18469   */\n      tag_396\n        /* \"#utility.yul\":18464:18468   */\n      dup7\n        /* \"#utility.yul\":18432:18469   */\n      tag_183\n      jump\t// in\n    tag_396:\n        /* \"#utility.yul\":18491:18492   */\n      0x00\n        /* \"#utility.yul\":18505:18713   */\n    tag_397:\n        /* \"#utility.yul\":18519:18526   */\n      dup3\n        /* \"#utility.yul\":18516:18517   */\n      dup2\n        /* \"#utility.yul\":18513:18527   */\n      lt\n        /* \"#utility.yul\":18505:18713   */\n      iszero\n      tag_399\n      jumpi\n        /* \"#utility.yul\":18598:18607   */\n      dup5\n        /* \"#utility.yul\":18593:18596   */\n      dup10\n        /* \"#utility.yul\":18589:18608   */\n      add\n        /* \"#utility.yul\":18583:18609   */\n      mload\n        /* \"#utility.yul\":18575:18581   */\n      dup3\n        /* \"#utility.yul\":18568:18610   */\n      sstore\n        /* \"#utility.yul\":18649:18650   */\n      0x01\n        /* \"#utility.yul\":18641:18647   */\n      dup3\n        /* \"#utility.yul\":18637:18651   */\n      add\n        /* \"#utility.yul\":18627:18651   */\n      swap2\n      pop\n        /* \"#utility.yul\":18696:18698   */\n      0x20\n        /* \"#utility.yul\":18685:18694   */\n      dup6\n        /* \"#utility.yul\":18681:18699   */\n      add\n        /* \"#utility.yul\":18668:18699   */\n      swap5\n      pop\n        /* \"#utility.yul\":18542:18546   */\n      0x20\n        /* \"#utility.yul\":18539:18540   */\n      dup2\n        /* \"#utility.yul\":18535:18547   */\n      add\n        /* \"#utility.yul\":18530:18547   */\n      swap1\n      pop\n        /* \"#utility.yul\":18505:18713   */\n      jump(tag_397)\n    tag_399:\n        /* \"#utility.yul\":18741:18747   */\n      dup7\n        /* \"#utility.yul\":18732:18739   */\n      dup4\n        /* \"#utility.yul\":18729:18748   */\n      lt\n        /* \"#utility.yul\":18726:18905   */\n      iszero\n      tag_400\n      jumpi\n        /* \"#utility.yul\":18799:18808   */\n      dup5\n        /* \"#utility.yul\":18794:18797   */\n      dup10\n        /* \"#utility.yul\":18790:18809   */\n      add\n        /* \"#utility.yul\":18784:18810   */\n      mload\n        /* \"#utility.yul\":18842:18890   */\n      tag_401\n        /* \"#utility.yul\":18884:18888   */\n      0x1f\n        /* \"#utility.yul\":18876:18882   */\n      dup10\n        /* \"#utility.yul\":18872:18889   */\n      and\n        /* \"#utility.yul\":18861:18870   */\n      dup3\n        /* \"#utility.yul\":18842:18890   */\n      tag_196\n      jump\t// in\n    tag_401:\n        /* \"#utility.yul\":18834:18840   */\n      dup4\n        /* \"#utility.yul\":18827:18891   */\n      sstore\n        /* \"#utility.yul\":18749:18905   */\n      pop\n        /* \"#utility.yul\":18726:18905   */\n    tag_400:\n        /* \"#utility.yul\":18951:18952   */\n      0x01\n        /* \"#utility.yul\":18947:18948   */\n      0x02\n        /* \"#utility.yul\":18939:18945   */\n      dup9\n        /* \"#utility.yul\":18935:18949   */\n      mul\n        /* \"#utility.yul\":18931:18953   */\n      add\n        /* \"#utility.yul\":18925:18929   */\n      dup9\n        /* \"#utility.yul\":18918:18954   */\n      sstore\n        /* \"#utility.yul\":18353:18964   */\n      pop\n      pop\n      pop\n        /* \"#utility.yul\":18316:19203   */\n    tag_392:\n      pop\n        /* \"#utility.yul\":17906:19209   */\n      pop\n      pop\n      pop\n        /* \"#utility.yul\":17814:19209   */\n      pop\n      pop\n      jump\t// out\n        /* \"#utility.yul\":19215:19390   */\n    tag_198:\n        /* \"#utility.yul\":19355:19382   */\n      0x596f7520617265206e6f74206120636f6e7472696275746f7200000000000000\n        /* \"#utility.yul\":19351:19352   */\n      0x00\n        /* \"#utility.yul\":19343:19349   */\n      dup3\n        /* \"#utility.yul\":19339:19353   */\n      add\n        /* \"#utility.yul\":19332:19383   */\n      mstore\n        /* \"#utility.yul\":19215:19390   */\n      pop\n      jump\t// out\n        /* \"#utility.yul\":19396:19762   */\n    tag_199:\n        /* \"#utility.yul\":19538:19541   */\n      0x00\n        /* \"#utility.yul\":19559:19626   */\n      tag_404\n        /* \"#utility.yul\":19623:19625   */\n      0x19\n        /* \"#utility.yul\":19618:19621   */\n      dup4\n        /* \"#utility.yul\":19559:19626   */\n      tag_162\n      jump\t// in\n    tag_404:\n        /* \"#utility.yul\":19552:19626   */\n      swap2\n      pop\n        /* \"#utility.yul\":19635:19728   */\n      tag_405\n        /* \"#utility.yul\":19724:19727   */\n      dup3\n        /* \"#utility.yul\":19635:19728   */\n      tag_198\n      jump\t// in\n    tag_405:\n        /* \"#utility.yul\":19753:19755   */\n      0x20\n        /* \"#utility.yul\":19748:19751   */\n      dup3\n        /* \"#utility.yul\":19744:19756   */\n      add\n        /* \"#utility.yul\":19737:19756   */\n      swap1\n      pop\n        /* \"#utility.yul\":19396:19762   */\n      swap2\n      swap1\n      pop\n      jump\t// out\n        /* \"#utility.yul\":19768:20187   */\n    tag_119:\n        /* \"#utility.yul\":19934:19938   */\n      0x00\n        /* \"#utility.yul\":19972:19974   */\n      0x20\n        /* \"#utility.yul\":19961:19970   */\n      dup3\n        /* \"#utility.yul\":19957:19975   */\n      add\n        /* \"#utility.yul\":19949:19975   */\n      swap1\n      pop\n        /* \"#utility.yul\":20021:20030   */\n      dup2\n        /* \"#utility.yul\":20015:20019   */\n      dup2\n        /* \"#utility.yul\":20011:20031   */\n      sub\n        /* \"#utility.yul\":20007:20008   */\n      0x00\n        /* \"#utility.yul\":19996:20005   */\n      dup4\n        /* \"#utility.yul\":19992:20009   */\n      add\n        /* \"#utility.yul\":19985:20032   */\n      mstore\n        /* \"#utility.yul\":20049:20180   */\n      tag_407\n        /* \"#utility.yul\":20175:20179   */\n      dup2\n        /* \"#utility.yul\":20049:20180   */\n      tag_199\n      jump\t// in\n    tag_407:\n        /* \"#utility.yul\":20041:20180   */\n      swap1\n      pop\n        /* \"#utility.yul\":19768:20187   */\n      swap2\n      swap1\n      pop\n      jump\t// out\n        /* \"#utility.yul\":20193:20365   */\n    tag_200:\n        /* \"#utility.yul\":20333:20357   */\n      0x596f75206861766520616c726561647920766f74656400000000000000000000\n        /* \"#utility.yul\":20329:20330   */\n      0x00\n        /* \"#utility.yul\":20321:20327   */\n      dup3\n        /* \"#utility.yul\":20317:20331   */\n      add\n        /* \"#utility.yul\":20310:20358   */\n      mstore\n        /* \"#utility.yul\":20193:20365   */\n      pop\n      jump\t// out\n        /* \"#utility.yul\":20371:20737   */\n    tag_201:\n        /* \"#utility.yul\":20513:20516   */\n      0x00\n        /* \"#utility.yul\":20534:20601   */\n      tag_410\n        /* \"#utility.yul\":20598:20600   */\n      0x16\n        /* \"#utility.yul\":20593:20596   */\n      dup4\n        /* \"#utility.yul\":20534:20601   */\n      tag_162\n      jump\t// in\n    tag_410:\n        /* \"#utility.yul\":20527:20601   */\n      swap2\n      pop\n        /* \"#utility.yul\":20610:20703   */\n      tag_411\n        /* \"#utility.yul\":20699:20702   */\n      dup3\n        /* \"#utility.yul\":20610:20703   */\n      tag_200\n      jump\t// in\n    tag_411:\n        /* \"#utility.yul\":20728:20730   */\n      0x20\n        /* \"#utility.yul\":20723:20726   */\n      dup3\n        /* \"#utility.yul\":20719:20731   */\n      add\n        /* \"#utility.yul\":20712:20731   */\n      swap1\n      pop\n        /* \"#utility.yul\":20371:20737   */\n      swap2\n      swap1\n      pop\n      jump\t// out\n        /* \"#utility.yul\":20743:21162   */\n    tag_122:\n        /* \"#utility.yul\":20909:20913   */\n      0x00\n        /* \"#utility.yul\":20947:20949   */\n      0x20\n        /* \"#utility.yul\":20936:20945   */\n      dup3\n        /* \"#utility.yul\":20932:20950   */\n      add\n        /* \"#utility.yul\":20924:20950   */\n      swap1\n      pop\n        /* \"#utility.yul\":20996:21005   */\n      dup2\n        /* \"#utility.yul\":20990:20994   */\n      dup2\n        /* \"#utility.yul\":20986:21006   */\n      sub\n        /* \"#utility.yul\":20982:20983   */\n      0x00\n        /* \"#utility.yul\":20971:20980   */\n      dup4\n        /* \"#utility.yul\":20967:20984   */\n      add\n        /* \"#utility.yul\":20960:21007   */\n      mstore\n        /* \"#utility.yul\":21024:21155   */\n      tag_413\n        /* \"#utility.yul\":21150:21154   */\n      dup2\n        /* \"#utility.yul\":21024:21155   */\n      tag_201\n      jump\t// in\n    tag_413:\n        /* \"#utility.yul\":21016:21155   */\n      swap1\n      pop\n        /* \"#utility.yul\":20743:21162   */\n      swap2\n      swap1\n      pop\n      jump\t// out\n        /* \"#utility.yul\":21168:21330   */\n    tag_202:\n        /* \"#utility.yul\":21308:21322   */\n      0x6e6f7420656c696769626c650000000000000000000000000000000000000000\n        /* \"#utility.yul\":21304:21305   */\n      0x00\n        /* \"#utility.yul\":21296:21302   */\n      dup3\n        /* \"#utility.yul\":21292:21306   */\n      add\n        /* \"#utility.yul\":21285:21323   */\n      mstore\n        /* \"#utility.yul\":21168:21330   */\n      pop\n      jump\t// out\n        /* \"#utility.yul\":21336:21702   */\n    tag_203:\n        /* \"#utility.yul\":21478:21481   */\n      0x00\n        /* \"#utility.yul\":21499:21566   */\n      tag_416\n        /* \"#utility.yul\":21563:21565   */\n      0x0c\n        /* \"#utility.yul\":21558:21561   */\n      dup4\n        /* \"#utility.yul\":21499:21566   */\n      tag_162\n      jump\t// in\n    tag_416:\n        /* \"#utility.yul\":21492:21566   */\n      swap2\n      pop\n        /* \"#utility.yul\":21575:21668   */\n      tag_417\n        /* \"#utility.yul\":21664:21667   */\n      dup3\n        /* \"#utility.yul\":21575:21668   */\n      tag_202\n      jump\t// in\n    tag_417:\n        /* \"#utility.yul\":21693:21695   */\n      0x20\n        /* \"#utility.yul\":21688:21691   */\n      dup3\n        /* \"#utility.yul\":21684:21696   */\n      add\n        /* \"#utility.yul\":21677:21696   */\n      swap1\n      pop\n        /* \"#utility.yul\":21336:21702   */\n      swap2\n      swap1\n      pop\n      jump\t// out\n        /* \"#utility.yul\":21708:22127   */\n    tag_127:\n        /* \"#utility.yul\":21874:21878   */\n      0x00\n        /* \"#utility.yul\":21912:21914   */\n      0x20\n        /* \"#utility.yul\":21901:21910   */\n      dup3\n        /* \"#utility.yul\":21897:21915   */\n      add\n        /* \"#utility.yul\":21889:21915   */\n      swap1\n      pop\n        /* \"#utility.yul\":21961:21970   */\n      dup2\n        /* \"#utility.yul\":21955:21959   */\n      dup2\n        /* \"#utility.yul\":21951:21971   */\n      sub\n        /* \"#utility.yul\":21947:21948   */\n      0x00\n        /* \"#utility.yul\":21936:21945   */\n      dup4\n        /* \"#utility.yul\":21932:21949   */\n      add\n        /* \"#utility.yul\":21925:21972   */\n      mstore\n        /* \"#utility.yul\":21989:22120   */\n      tag_419\n        /* \"#utility.yul\":22115:22119   */\n      dup2\n        /* \"#utility.yul\":21989:22120   */\n      tag_203\n      jump\t// in\n    tag_419:\n        /* \"#utility.yul\":21981:22120   */\n      swap1\n      pop\n        /* \"#utility.yul\":21708:22127   */\n      swap2\n      swap1\n      pop\n      jump\t// out\n\n    auxdata: 0xa264697066735822122031bbd0b7df189c06b43b3d1b8d1e9442f3e6eda18648373e553c999272e5ddb564736f6c63430008120033\n}\n",
				"bytecode": {
					"linkReferences": {},
					"object": "60806040523480156200001157600080fd5b50604051620019cf380380620019cf8339818101604052810190620000379190620000e3565b8160038190555080426200004c919062000159565b600281905550606460048190555033600160006101000a81548173ffffffffffffffffffffffffffffffffffffffff021916908373ffffffffffffffffffffffffffffffffffffffff160217905550505062000194565b600080fd5b6000819050919050565b620000bd81620000a8565b8114620000c957600080fd5b50565b600081519050620000dd81620000b2565b92915050565b60008060408385031215620000fd57620000fc620000a3565b5b60006200010d85828601620000cc565b92505060206200012085828601620000cc565b9150509250929050565b7f4e487b7100000000000000000000000000000000000000000000000000000000600052601160045260246000fd5b60006200016682620000a8565b91506200017383620000a8565b92508282019050808211156200018e576200018d6200012a565b5b92915050565b61182b80620001a46000396000f3fe6080604052600436106100dd5760003560e01c80634e260f6f1161007f57806381d12c581161005957806381d12c58146102555780639fb42b1f14610296578063aaffadf3146102c1578063d4b83992146102ec576100dd565b80634e260f6f146101e8578063590e1ae3146102135780636f9fb98a1461022a576100dd565b80633eb7647b116100bb5780633eb7647b146101405780633ece2b4f14610169578063481c6a75146101945780634cb6f4a5146101bf576100dd565b806306e99fef146100e257806310e96b91146100ec57806329dcb0cf14610115575b600080fd5b6100ea610317565b005b3480156100f857600080fd5b50610113600480360381019061010e9190610c71565b61046f565b005b34801561012157600080fd5b5061012a610699565b6040516101379190610cad565b60405180910390f35b34801561014c57600080fd5b5061016760048036038101906101629190610e6c565b61069f565b005b34801561017557600080fd5b5061017e6107eb565b60405161018b9190610cad565b60405180910390f35b3480156101a057600080fd5b506101a96107f1565b6040516101b69190610efc565b60405180910390f35b3480156101cb57600080fd5b506101e660048036038101906101e19190610c71565b610817565b005b3480156101f457600080fd5b506101fd6109bc565b60405161020a9190610cad565b60405180910390f35b34801561021f57600080fd5b506102286109c2565b005b34801561023657600080fd5b5061023f610b22565b60405161024c9190610cad565b60405180910390f35b34801561026157600080fd5b5061027c60048036038101906102779190610c71565b610b2a565b60405161028d959493929190610fc0565b60405180910390f35b3480156102a257600080fd5b506102ab610c15565b6040516102b89190610cad565b60405180910390f35b3480156102cd57600080fd5b506102d6610c1b565b6040516102e39190610cad565b60405180910390f35b3480156102f857600080fd5b50610301610c21565b60405161030e9190610cad565b60405180910390f35b600254421061035b576040517f08c379a000000000000000000000000000000000000000000000000000000000815260040161035290611066565b60405180910390fd5b6004543410156103a0576040517f08c379a0000000000000000000000000000000000000000000000000000000008152600401610397906110d2565b60405180910390fd5b60008060003373ffffffffffffffffffffffffffffffffffffffff1673ffffffffffffffffffffffffffffffffffffffff16815260200190815260200160002054036103ff57600560008154809291906103f990611121565b91905055505b346000803373ffffffffffffffffffffffffffffffffffffffff1673ffffffffffffffffffffffffffffffffffffffff168152602001908152602001600020600082825461044d9190611169565b9250508190555034600660008282546104669190611169565b92505081905550565b600160009054906101000a900473ffffffffffffffffffffffffffffffffffffffff1673ffffffffffffffffffffffffffffffffffffffff163373ffffffffffffffffffffffffffffffffffffffff16146104ff576040517f08c379a00000000000000000000000000000000000000000000000000000000081526004016104f69061120f565b60405180910390fd5b6003546006541015610546576040517f08c379a000000000000000000000000000000000000000000000000000000000815260040161053d9061127b565b60405180910390fd5b6000600760008381526020019081526020016000209050600015158160030160009054906101000a900460ff161515146105b5576040517f08c379a00000000000000000000000000000000000000000000000000000000081526004016105ac906112e7565b60405180910390fd5b60026005546105c49190611336565b816004015411610609576040517f08c379a0000000000000000000000000000000000000000000000000000000008152600401610600906113b3565b60405180910390fd5b8060010160009054906101000a900473ffffffffffffffffffffffffffffffffffffffff1673ffffffffffffffffffffffffffffffffffffffff166108fc82600201549081150290604051600060405180830381858888f19350505050158015610677573d6000803e3d6000fd5b5060018160030160006101000a81548160ff0219169083151502179055505050565b60025481565b600160009054906101000a900473ffffffffffffffffffffffffffffffffffffffff1673ffffffffffffffffffffffffffffffffffffffff163373ffffffffffffffffffffffffffffffffffffffff161461072f576040517f08c379a00000000000000000000000000000000000000000000000000000000081526004016107269061120f565b60405180910390fd5b600060076000600854815260200190815260200160002090506008600081548092919061075b90611121565b91905055508381600001908161077191906115df565b50828160010160006101000a81548173ffffffffffffffffffffffffffffffffffffffff021916908373ffffffffffffffffffffffffffffffffffffffff16021790555081816002018190555060008160030160006101000a81548160ff0219169083151502179055506000816004018190555050505050565b60065481565b600160009054906101000a900473ffffffffffffffffffffffffffffffffffffffff1681565b60008060003373ffffffffffffffffffffffffffffffffffffffff1673ffffffffffffffffffffffffffffffffffffffff1681526020019081526020016000205411610898576040517f08c379a000000000000000000000000000000000000000000000000000000000815260040161088f906116fd565b60405180910390fd5b6000600760008381526020019081526020016000209050600015158160050160003373ffffffffffffffffffffffffffffffffffffffff1673ffffffffffffffffffffffffffffffffffffffff16815260200190815260200160002060009054906101000a900460ff16151514610944576040517f08c379a000000000000000000000000000000000000000000000000000000000815260040161093b90611769565b60405180910390fd5b60018160050160003373ffffffffffffffffffffffffffffffffffffffff1673ffffffffffffffffffffffffffffffffffffffff16815260200190815260200160002060006101000a81548160ff0219169083151502179055508060040160008154809291906109b390611121565b91905055505050565b60055481565b6002544211610a06576040517f08c379a00000000000000000000000000000000000000000000000000000000081526004016109fd906117d5565b60405180910390fd5b60008060003373ffffffffffffffffffffffffffffffffffffffff1673ffffffffffffffffffffffffffffffffffffffff1681526020019081526020016000205411610a5157600080fd5b60003390508073ffffffffffffffffffffffffffffffffffffffff166108fc6000803373ffffffffffffffffffffffffffffffffffffffff1673ffffffffffffffffffffffffffffffffffffffff168152602001908152602001600020549081150290604051600060405180830381858888f19350505050158015610ada573d6000803e3d6000fd5b5060008060003373ffffffffffffffffffffffffffffffffffffffff1673ffffffffffffffffffffffffffffffffffffffff1681526020019081526020016000208190555050565b600047905090565b6007602052806000526040600020600091509050806000018054610b4d90611402565b80601f0160208091040260200160405190810160405280929190818152602001828054610b7990611402565b8015610bc65780601f10610b9b57610100808354040283529160200191610bc6565b820191906000526020600020905b815481529060010190602001808311610ba957829003601f168201915b5050505050908060010160009054906101000a900473ffffffffffffffffffffffffffffffffffffffff16908060020154908060030160009054906101000a900460ff16908060040154905085565b60085481565b60045481565b60035481565b6000604051905090565b600080fd5b600080fd5b6000819050919050565b610c4e81610c3b565b8114610c5957600080fd5b50565b600081359050610c6b81610c45565b92915050565b600060208284031215610c8757610c86610c31565b5b6000610c9584828501610c5c565b91505092915050565b610ca781610c3b565b82525050565b6000602082019050610cc26000830184610c9e565b92915050565b600080fd5b600080fd5b6000601f19601f8301169050919050565b7f4e487b7100000000000000000000000000000000000000000000000000000000600052604160045260246000fd5b610d1b82610cd2565b810181811067ffffffffffffffff82111715610d3a57610d39610ce3565b5b80604052505050565b6000610d4d610c27565b9050610d598282610d12565b919050565b600067ffffffffffffffff821115610d7957610d78610ce3565b5b610d8282610cd2565b9050602081019050919050565b82818337600083830152505050565b6000610db1610dac84610d5e565b610d43565b905082815260208101848484011115610dcd57610dcc610ccd565b5b610dd8848285610d8f565b509392505050565b600082601f830112610df557610df4610cc8565b5b8135610e05848260208601610d9e565b91505092915050565b600073ffffffffffffffffffffffffffffffffffffffff82169050919050565b6000610e3982610e0e565b9050919050565b610e4981610e2e565b8114610e5457600080fd5b50565b600081359050610e6681610e40565b92915050565b600080600060608486031215610e8557610e84610c31565b5b600084013567ffffffffffffffff811115610ea357610ea2610c36565b5b610eaf86828701610de0565b9350506020610ec086828701610e57565b9250506040610ed186828701610c5c565b9150509250925092565b6000610ee682610e0e565b9050919050565b610ef681610edb565b82525050565b6000602082019050610f116000830184610eed565b92915050565b600081519050919050565b600082825260208201905092915050565b60005b83811015610f51578082015181840152602081019050610f36565b60008484015250505050565b6000610f6882610f17565b610f728185610f22565b9350610f82818560208601610f33565b610f8b81610cd2565b840191505092915050565b610f9f81610e2e565b82525050565b60008115159050919050565b610fba81610fa5565b82525050565b600060a0820190508181036000830152610fda8188610f5d565b9050610fe96020830187610f96565b610ff66040830186610c9e565b6110036060830185610fb1565b6110106080830184610c9e565b9695505050505050565b7f646561646c696e65207061737365640000000000000000000000000000000000600082015250565b6000611050600f83610f22565b915061105b8261101a565b602082019050919050565b6000602082019050818103600083015261107f81611043565b9050919050565b7f6d696e696d756d20636f6e747269627574696f6e206e6f74206d657400000000600082015250565b60006110bc601c83610f22565b91506110c782611086565b602082019050919050565b600060208201905081810360008301526110eb816110af565b9050919050565b7f4e487b7100000000000000000000000000000000000000000000000000000000600052601160045260246000fd5b600061112c82610c3b565b91507fffffffffffffffffffffffffffffffffffffffffffffffffffffffffffffffff820361115e5761115d6110f2565b5b600182019050919050565b600061117482610c3b565b915061117f83610c3b565b9250828201905080821115611197576111966110f2565b5b92915050565b7f6f6e6c79206d616e616765722063616e2063616c6c20746869732066756e636e60008201527f6374696f6e000000000000000000000000000000000000000000000000000000602082015250565b60006111f9602583610f22565b91506112048261119d565b604082019050919050565b60006020820190508181036000830152611228816111ec565b9050919050565b7f546172676574206e6f74206d6574000000000000000000000000000000000000600082015250565b6000611265600e83610f22565b91506112708261122f565b602082019050919050565b6000602082019050818103600083015261129481611258565b9050919050565b7f5265717565737420616c726561647920636f6d706c6574656400000000000000600082015250565b60006112d1601983610f22565b91506112dc8261129b565b602082019050919050565b60006020820190508181036000830152611300816112c4565b9050919050565b7f4e487b7100000000000000000000000000000000000000000000000000000000600052601260045260246000fd5b600061134182610c3b565b915061134c83610c3b565b92508261135c5761135b611307565b5b828204905092915050565b7f4e6f7420656e6f75676820766f74657300000000000000000000000000000000600082015250565b600061139d601083610f22565b91506113a882611367565b602082019050919050565b600060208201905081810360008301526113cc81611390565b9050919050565b7f4e487b7100000000000000000000000000000000000000000000000000000000600052602260045260246000fd5b6000600282049050600182168061141a57607f821691505b60208210810361142d5761142c6113d3565b5b50919050565b60008190508160005260206000209050919050565b60006020601f8301049050919050565b600082821b905092915050565b6000600883026114957fffffffffffffffffffffffffffffffffffffffffffffffffffffffffffffffff82611458565b61149f8683611458565b95508019841693508086168417925050509392505050565b6000819050919050565b60006114dc6114d76114d284610c3b565b6114b7565b610c3b565b9050919050565b6000819050919050565b6114f6836114c1565b61150a611502826114e3565b848454611465565b825550505050565b600090565b61151f611512565b61152a8184846114ed565b505050565b5b8181101561154e57611543600082611517565b600181019050611530565b5050565b601f8211156115935761156481611433565b61156d84611448565b8101602085101561157c578190505b61159061158885611448565b83018261152f565b50505b505050565b600082821c905092915050565b60006115b660001984600802611598565b1980831691505092915050565b60006115cf83836115a5565b9150826002028217905092915050565b6115e882610f17565b67ffffffffffffffff81111561160157611600610ce3565b5b61160b8254611402565b611616828285611552565b600060209050601f8311600181146116495760008415611637578287015190505b61164185826115c3565b8655506116a9565b601f19841661165786611433565b60005b8281101561167f5784890151825560018201915060208501945060208101905061165a565b8683101561169c5784890151611698601f8916826115a5565b8355505b6001600288020188555050505b505050505050565b7f596f7520617265206e6f74206120636f6e7472696275746f7200000000000000600082015250565b60006116e7601983610f22565b91506116f2826116b1565b602082019050919050565b60006020820190508181036000830152611716816116da565b9050919050565b7f596f75206861766520616c726561647920766f74656400000000000000000000600082015250565b6000611753601683610f22565b915061175e8261171d565b602082019050919050565b6000602082019050818103600083015261178281611746565b9050919050565b7f6e6f7420656c696769626c650000000000000000000000000000000000000000600082015250565b60006117bf600c83610f22565b91506117ca82611789565b602082019050919050565b600060208201905081810360008301526117ee816117b2565b905091905056fea264697066735822122031bbd0b7df189c06b43b3d1b8d1e9442f3e6eda18648373e553c999272e5ddb564736f6c63430008120033",
					"opcodes": "PUSH1 0x80 PUSH1 0x40 MSTORE CALLVALUE DUP1 ISZERO PUSH3 0x11 JUMPI PUSH1 0x0 DUP1 REVERT JUMPDEST POP PUSH1 0x40 MLOAD PUSH3 0x19CF CODESIZE SUB DUP1 PUSH3 0x19CF DUP4 CODECOPY DUP2 DUP2 ADD PUSH1 0x40 MSTORE DUP2 ADD SWAP1 PUSH3 0x37 SWAP2 SWAP1 PUSH3 0xE3 JUMP JUMPDEST DUP2 PUSH1 0x3 DUP2 SWAP1 SSTORE POP DUP1 TIMESTAMP PUSH3 0x4C SWAP2 SWAP1 PUSH3 0x159 JUMP JUMPDEST PUSH1 0x2 DUP2 SWAP1 SSTORE POP PUSH1 0x64 PUSH1 0x4 DUP2 SWAP1 SSTORE POP CALLER PUSH1 0x1 PUSH1 0x0 PUSH2 0x100 EXP DUP2 SLOAD DUP2 PUSH20 0xFFFFFFFFFFFFFFFFFFFFFFFFFFFFFFFFFFFFFFFF MUL NOT AND SWAP1 DUP4 PUSH20 0xFFFFFFFFFFFFFFFFFFFFFFFFFFFFFFFFFFFFFFFF AND MUL OR SWAP1 SSTORE POP POP POP PUSH3 0x194 JUMP JUMPDEST PUSH1 0x0 DUP1 REVERT JUMPDEST PUSH1 0x0 DUP2 SWAP1 POP SWAP2 SWAP1 POP JUMP JUMPDEST PUSH3 0xBD DUP2 PUSH3 0xA8 JUMP JUMPDEST DUP2 EQ PUSH3 0xC9 JUMPI PUSH1 0x0 DUP1 REVERT JUMPDEST POP JUMP JUMPDEST PUSH1 0x0 DUP2 MLOAD SWAP1 POP PUSH3 0xDD DUP2 PUSH3 0xB2 JUMP JUMPDEST SWAP3 SWAP2 POP POP JUMP JUMPDEST PUSH1 0x0 DUP1 PUSH1 0x40 DUP4 DUP6 SUB SLT ISZERO PUSH3 0xFD JUMPI PUSH3 0xFC PUSH3 0xA3 JUMP JUMPDEST JUMPDEST PUSH1 0x0 PUSH3 0x10D DUP6 DUP3 DUP7 ADD PUSH3 0xCC JUMP JUMPDEST SWAP3 POP POP PUSH1 0x20 PUSH3 0x120 DUP6 DUP3 DUP7 ADD PUSH3 0xCC JUMP JUMPDEST SWAP2 POP POP SWAP3 POP SWAP3 SWAP1 POP JUMP JUMPDEST PUSH32 0x4E487B7100000000000000000000000000000000000000000000000000000000 PUSH1 0x0 MSTORE PUSH1 0x11 PUSH1 0x4 MSTORE PUSH1 0x24 PUSH1 0x0 REVERT JUMPDEST PUSH1 0x0 PUSH3 0x166 DUP3 PUSH3 0xA8 JUMP JUMPDEST SWAP2 POP PUSH3 0x173 DUP4 PUSH3 0xA8 JUMP JUMPDEST SWAP3 POP DUP3 DUP3 ADD SWAP1 POP DUP1 DUP3 GT ISZERO PUSH3 0x18E JUMPI PUSH3 0x18D PUSH3 0x12A JUMP JUMPDEST JUMPDEST SWAP3 SWAP2 POP POP JUMP JUMPDEST PUSH2 0x182B DUP1 PUSH3 0x1A4 PUSH1 0x0 CODECOPY PUSH1 0x0 RETURN INVALID PUSH1 0x80 PUSH1 0x40 MSTORE PUSH1 0x4 CALLDATASIZE LT PUSH2 0xDD JUMPI PUSH1 0x0 CALLDATALOAD PUSH1 0xE0 SHR DUP1 PUSH4 0x4E260F6F GT PUSH2 0x7F JUMPI DUP1 PUSH4 0x81D12C58 GT PUSH2 0x59 JUMPI DUP1 PUSH4 0x81D12C58 EQ PUSH2 0x255 JUMPI DUP1 PUSH4 0x9FB42B1F EQ PUSH2 0x296 JUMPI DUP1 PUSH4 0xAAFFADF3 EQ PUSH2 0x2C1 JUMPI DUP1 PUSH4 0xD4B83992 EQ PUSH2 0x2EC JUMPI PUSH2 0xDD JUMP JUMPDEST DUP1 PUSH4 0x4E260F6F EQ PUSH2 0x1E8 JUMPI DUP1 PUSH4 0x590E1AE3 EQ PUSH2 0x213 JUMPI DUP1 PUSH4 0x6F9FB98A EQ PUSH2 0x22A JUMPI PUSH2 0xDD JUMP JUMPDEST DUP1 PUSH4 0x3EB7647B GT PUSH2 0xBB JUMPI DUP1 PUSH4 0x3EB7647B EQ PUSH2 0x140 JUMPI DUP1 PUSH4 0x3ECE2B4F EQ PUSH2 0x169 JUMPI DUP1 PUSH4 0x481C6A75 EQ PUSH2 0x194 JUMPI DUP1 PUSH4 0x4CB6F4A5 EQ PUSH2 0x1BF JUMPI PUSH2 0xDD JUMP JUMPDEST DUP1 PUSH4 0x6E99FEF EQ PUSH2 0xE2 JUMPI DUP1 PUSH4 0x10E96B91 EQ PUSH2 0xEC JUMPI DUP1 PUSH4 0x29DCB0CF EQ PUSH2 0x115 JUMPI JUMPDEST PUSH1 0x0 DUP1 REVERT JUMPDEST PUSH2 0xEA PUSH2 0x317 JUMP JUMPDEST STOP JUMPDEST CALLVALUE DUP1 ISZERO PUSH2 0xF8 JUMPI PUSH1 0x0 DUP1 REVERT JUMPDEST POP PUSH2 0x113 PUSH1 0x4 DUP1 CALLDATASIZE SUB DUP2 ADD SWAP1 PUSH2 0x10E SWAP2 SWAP1 PUSH2 0xC71 JUMP JUMPDEST PUSH2 0x46F JUMP JUMPDEST STOP JUMPDEST CALLVALUE DUP1 ISZERO PUSH2 0x121 JUMPI PUSH1 0x0 DUP1 REVERT JUMPDEST POP PUSH2 0x12A PUSH2 0x699 JUMP JUMPDEST PUSH1 0x40 MLOAD PUSH2 0x137 SWAP2 SWAP1 PUSH2 0xCAD JUMP JUMPDEST PUSH1 0x40 MLOAD DUP1 SWAP2 SUB SWAP1 RETURN JUMPDEST CALLVALUE DUP1 ISZERO PUSH2 0x14C JUMPI PUSH1 0x0 DUP1 REVERT JUMPDEST POP PUSH2 0x167 PUSH1 0x4 DUP1 CALLDATASIZE SUB DUP2 ADD SWAP1 PUSH2 0x162 SWAP2 SWAP1 PUSH2 0xE6C JUMP JUMPDEST PUSH2 0x69F JUMP JUMPDEST STOP JUMPDEST CALLVALUE DUP1 ISZERO PUSH2 0x175 JUMPI PUSH1 0x0 DUP1 REVERT JUMPDEST POP PUSH2 0x17E PUSH2 0x7EB JUMP JUMPDEST PUSH1 0x40 MLOAD PUSH2 0x18B SWAP2 SWAP1 PUSH2 0xCAD JUMP JUMPDEST PUSH1 0x40 MLOAD DUP1 SWAP2 SUB SWAP1 RETURN JUMPDEST CALLVALUE DUP1 ISZERO PUSH2 0x1A0 JUMPI PUSH1 0x0 DUP1 REVERT JUMPDEST POP PUSH2 0x1A9 PUSH2 0x7F1 JUMP JUMPDEST PUSH1 0x40 MLOAD PUSH2 0x1B6 SWAP2 SWAP1 PUSH2 0xEFC JUMP JUMPDEST PUSH1 0x40 MLOAD DUP1 SWAP2 SUB SWAP1 RETURN JUMPDEST CALLVALUE DUP1 ISZERO PUSH2 0x1CB JUMPI PUSH1 0x0 DUP1 REVERT JUMPDEST POP PUSH2 0x1E6 PUSH1 0x4 DUP1 CALLDATASIZE SUB DUP2 ADD SWAP1 PUSH2 0x1E1 SWAP2 SWAP1 PUSH2 0xC71 JUMP JUMPDEST PUSH2 0x817 JUMP JUMPDEST STOP JUMPDEST CALLVALUE DUP1 ISZERO PUSH2 0x1F4 JUMPI PUSH1 0x0 DUP1 REVERT JUMPDEST POP PUSH2 0x1FD PUSH2 0x9BC JUMP JUMPDEST PUSH1 0x40 MLOAD PUSH2 0x20A SWAP2 SWAP1 PUSH2 0xCAD JUMP JUMPDEST PUSH1 0x40 MLOAD DUP1 SWAP2 SUB SWAP1 RETURN JUMPDEST CALLVALUE DUP1 ISZERO PUSH2 0x21F JUMPI PUSH1 0x0 DUP1 REVERT JUMPDEST POP PUSH2 0x228 PUSH2 0x9C2 JUMP JUMPDEST STOP JUMPDEST CALLVALUE DUP1 ISZERO PUSH2 0x236 JUMPI PUSH1 0x0 DUP1 REVERT JUMPDEST POP PUSH2 0x23F PUSH2 0xB22 JUMP JUMPDEST PUSH1 0x40 MLOAD PUSH2 0x24C SWAP2 SWAP1 PUSH2 0xCAD JUMP JUMPDEST PUSH1 0x40 MLOAD DUP1 SWAP2 SUB SWAP1 RETURN JUMPDEST CALLVALUE DUP1 ISZERO PUSH2 0x261 JUMPI PUSH1 0x0 DUP1 REVERT JUMPDEST POP PUSH2 0x27C PUSH1 0x4 DUP1 CALLDATASIZE SUB DUP2 ADD SWAP1 PUSH2 0x277 SWAP2 SWAP1 PUSH2 0xC71 JUMP JUMPDEST PUSH2 0xB2A JUMP JUMPDEST PUSH1 0x40 MLOAD PUSH2 0x28D SWAP6 SWAP5 SWAP4 SWAP3 SWAP2 SWAP1 PUSH2 0xFC0 JUMP JUMPDEST PUSH1 0x40 MLOAD DUP1 SWAP2 SUB SWAP1 RETURN JUMPDEST CALLVALUE DUP1 ISZERO PUSH2 0x2A2 JUMPI PUSH1 0x0 DUP1 REVERT JUMPDEST POP PUSH2 0x2AB PUSH2 0xC15 JUMP JUMPDEST PUSH1 0x40 MLOAD PUSH2 0x2B8 SWAP2 SWAP1 PUSH2 0xCAD JUMP JUMPDEST PUSH1 0x40 MLOAD DUP1 SWAP2 SUB SWAP1 RETURN JUMPDEST CALLVALUE DUP1 ISZERO PUSH2 0x2CD JUMPI PUSH1 0x0 DUP1 REVERT JUMPDEST POP PUSH2 0x2D6 PUSH2 0xC1B JUMP JUMPDEST PUSH1 0x40 MLOAD PUSH2 0x2E3 SWAP2 SWAP1 PUSH2 0xCAD JUMP JUMPDEST PUSH1 0x40 MLOAD DUP1 SWAP2 SUB SWAP1 RETURN JUMPDEST CALLVALUE DUP1 ISZERO PUSH2 0x2F8 JUMPI PUSH1 0x0 DUP1 REVERT JUMPDEST POP PUSH2 0x301 PUSH2 0xC21 JUMP JUMPDEST PUSH1 0x40 MLOAD PUSH2 0x30E SWAP2 SWAP1 PUSH2 0xCAD JUMP JUMPDEST PUSH1 0x40 MLOAD DUP1 SWAP2 SUB SWAP1 RETURN JUMPDEST PUSH1 0x2 SLOAD TIMESTAMP LT PUSH2 0x35B JUMPI PUSH1 0x40 MLOAD PUSH32 0x8C379A000000000000000000000000000000000000000000000000000000000 DUP2 MSTORE PUSH1 0x4 ADD PUSH2 0x352 SWAP1 PUSH2 0x1066 JUMP JUMPDEST PUSH1 0x40 MLOAD DUP1 SWAP2 SUB SWAP1 REVERT JUMPDEST PUSH1 0x4 SLOAD CALLVALUE LT ISZERO PUSH2 0x3A0 JUMPI PUSH1 0x40 MLOAD PUSH32 0x8C379A000000000000000000000000000000000000000000000000000000000 DUP2 MSTORE PUSH1 0x4 ADD PUSH2 0x397 SWAP1 PUSH2 0x10D2 JUMP JUMPDEST PUSH1 0x40 MLOAD DUP1 SWAP2 SUB SWAP1 REVERT JUMPDEST PUSH1 0x0 DUP1 PUSH1 0x0 CALLER PUSH20 0xFFFFFFFFFFFFFFFFFFFFFFFFFFFFFFFFFFFFFFFF AND PUSH20 0xFFFFFFFFFFFFFFFFFFFFFFFFFFFFFFFFFFFFFFFF AND DUP2 MSTORE PUSH1 0x20 ADD SWAP1 DUP2 MSTORE PUSH1 0x20 ADD PUSH1 0x0 KECCAK256 SLOAD SUB PUSH2 0x3FF JUMPI PUSH1 0x5 PUSH1 0x0 DUP2 SLOAD DUP1 SWAP3 SWAP2 SWAP1 PUSH2 0x3F9 SWAP1 PUSH2 0x1121 JUMP JUMPDEST SWAP2 SWAP1 POP SSTORE POP JUMPDEST CALLVALUE PUSH1 0x0 DUP1 CALLER PUSH20 0xFFFFFFFFFFFFFFFFFFFFFFFFFFFFFFFFFFFFFFFF AND PUSH20 0xFFFFFFFFFFFFFFFFFFFFFFFFFFFFFFFFFFFFFFFF AND DUP2 MSTORE PUSH1 0x20 ADD SWAP1 DUP2 MSTORE PUSH1 0x20 ADD PUSH1 0x0 KECCAK256 PUSH1 0x0 DUP3 DUP3 SLOAD PUSH2 0x44D SWAP2 SWAP1 PUSH2 0x1169 JUMP JUMPDEST SWAP3 POP POP DUP2 SWAP1 SSTORE POP CALLVALUE PUSH1 0x6 PUSH1 0x0 DUP3 DUP3 SLOAD PUSH2 0x466 SWAP2 SWAP1 PUSH2 0x1169 JUMP JUMPDEST SWAP3 POP POP DUP2 SWAP1 SSTORE POP JUMP JUMPDEST PUSH1 0x1 PUSH1 0x0 SWAP1 SLOAD SWAP1 PUSH2 0x100 EXP SWAP1 DIV PUSH20 0xFFFFFFFFFFFFFFFFFFFFFFFFFFFFFFFFFFFFFFFF AND PUSH20 0xFFFFFFFFFFFFFFFFFFFFFFFFFFFFFFFFFFFFFFFF AND CALLER PUSH20 0xFFFFFFFFFFFFFFFFFFFFFFFFFFFFFFFFFFFFFFFF AND EQ PUSH2 0x4FF JUMPI PUSH1 0x40 MLOAD PUSH32 0x8C379A000000000000000000000000000000000000000000000000000000000 DUP2 MSTORE PUSH1 0x4 ADD PUSH2 0x4F6 SWAP1 PUSH2 0x120F JUMP JUMPDEST PUSH1 0x40 MLOAD DUP1 SWAP2 SUB SWAP1 REVERT JUMPDEST PUSH1 0x3 SLOAD PUSH1 0x6 SLOAD LT ISZERO PUSH2 0x546 JUMPI PUSH1 0x40 MLOAD PUSH32 0x8C379A000000000000000000000000000000000000000000000000000000000 DUP2 MSTORE PUSH1 0x4 ADD PUSH2 0x53D SWAP1 PUSH2 0x127B JUMP JUMPDEST PUSH1 0x40 MLOAD DUP1 SWAP2 SUB SWAP1 REVERT JUMPDEST PUSH1 0x0 PUSH1 0x7 PUSH1 0x0 DUP4 DUP2 MSTORE PUSH1 0x20 ADD SWAP1 DUP2 MSTORE PUSH1 0x20 ADD PUSH1 0x0 KECCAK256 SWAP1 POP PUSH1 0x0 ISZERO ISZERO DUP2 PUSH1 0x3 ADD PUSH1 0x0 SWAP1 SLOAD SWAP1 PUSH2 0x100 EXP SWAP1 DIV PUSH1 0xFF AND ISZERO ISZERO EQ PUSH2 0x5B5 JUMPI PUSH1 0x40 MLOAD PUSH32 0x8C379A000000000000000000000000000000000000000000000000000000000 DUP2 MSTORE PUSH1 0x4 ADD PUSH2 0x5AC SWAP1 PUSH2 0x12E7 JUMP JUMPDEST PUSH1 0x40 MLOAD DUP1 SWAP2 SUB SWAP1 REVERT JUMPDEST PUSH1 0x2 PUSH1 0x5 SLOAD PUSH2 0x5C4 SWAP2 SWAP1 PUSH2 0x1336 JUMP JUMPDEST DUP2 PUSH1 0x4 ADD SLOAD GT PUSH2 0x609 JUMPI PUSH1 0x40 MLOAD PUSH32 0x8C379A000000000000000000000000000000000000000000000000000000000 DUP2 MSTORE PUSH1 0x4 ADD PUSH2 0x600 SWAP1 PUSH2 0x13B3 JUMP JUMPDEST PUSH1 0x40 MLOAD DUP1 SWAP2 SUB SWAP1 REVERT JUMPDEST DUP1 PUSH1 0x1 ADD PUSH1 0x0 SWAP1 SLOAD SWAP1 PUSH2 0x100 EXP SWAP1 DIV PUSH20 0xFFFFFFFFFFFFFFFFFFFFFFFFFFFFFFFFFFFFFFFF AND PUSH20 0xFFFFFFFFFFFFFFFFFFFFFFFFFFFFFFFFFFFFFFFF AND PUSH2 0x8FC DUP3 PUSH1 0x2 ADD SLOAD SWAP1 DUP2 ISZERO MUL SWAP1 PUSH1 0x40 MLOAD PUSH1 0x0 PUSH1 0x40 MLOAD DUP1 DUP4 SUB DUP2 DUP6 DUP9 DUP9 CALL SWAP4 POP POP POP POP ISZERO DUP1 ISZERO PUSH2 0x677 JUMPI RETURNDATASIZE PUSH1 0x0 DUP1 RETURNDATACOPY RETURNDATASIZE PUSH1 0x0 REVERT JUMPDEST POP PUSH1 0x1 DUP2 PUSH1 0x3 ADD PUSH1 0x0 PUSH2 0x100 EXP DUP2 SLOAD DUP2 PUSH1 0xFF MUL NOT AND SWAP1 DUP4 ISZERO ISZERO MUL OR SWAP1 SSTORE POP POP POP JUMP JUMPDEST PUSH1 0x2 SLOAD DUP2 JUMP JUMPDEST PUSH1 0x1 PUSH1 0x0 SWAP1 SLOAD SWAP1 PUSH2 0x100 EXP SWAP1 DIV PUSH20 0xFFFFFFFFFFFFFFFFFFFFFFFFFFFFFFFFFFFFFFFF AND PUSH20 0xFFFFFFFFFFFFFFFFFFFFFFFFFFFFFFFFFFFFFFFF AND CALLER PUSH20 0xFFFFFFFFFFFFFFFFFFFFFFFFFFFFFFFFFFFFFFFF AND EQ PUSH2 0x72F JUMPI PUSH1 0x40 MLOAD PUSH32 0x8C379A000000000000000000000000000000000000000000000000000000000 DUP2 MSTORE PUSH1 0x4 ADD PUSH2 0x726 SWAP1 PUSH2 0x120F JUMP JUMPDEST PUSH1 0x40 MLOAD DUP1 SWAP2 SUB SWAP1 REVERT JUMPDEST PUSH1 0x0 PUSH1 0x7 PUSH1 0x0 PUSH1 0x8 SLOAD DUP2 MSTORE PUSH1 0x20 ADD SWAP1 DUP2 MSTORE PUSH1 0x20 ADD PUSH1 0x0 KECCAK256 SWAP1 POP PUSH1 0x8 PUSH1 0x0 DUP2 SLOAD DUP1 SWAP3 SWAP2 SWAP1 PUSH2 0x75B SWAP1 PUSH2 0x1121 JUMP JUMPDEST SWAP2 SWAP1 POP SSTORE POP DUP4 DUP2 PUSH1 0x0 ADD SWAP1 DUP2 PUSH2 0x771 SWAP2 SWAP1 PUSH2 0x15DF JUMP JUMPDEST POP DUP3 DUP2 PUSH1 0x1 ADD PUSH1 0x0 PUSH2 0x100 EXP DUP2 SLOAD DUP2 PUSH20 0xFFFFFFFFFFFFFFFFFFFFFFFFFFFFFFFFFFFFFFFF MUL NOT AND SWAP1 DUP4 PUSH20 0xFFFFFFFFFFFFFFFFFFFFFFFFFFFFFFFFFFFFFFFF AND MUL OR SWAP1 SSTORE POP DUP2 DUP2 PUSH1 0x2 ADD DUP2 SWAP1 SSTORE POP PUSH1 0x0 DUP2 PUSH1 0x3 ADD PUSH1 0x0 PUSH2 0x100 EXP DUP2 SLOAD DUP2 PUSH1 0xFF MUL NOT AND SWAP1 DUP4 ISZERO ISZERO MUL OR SWAP1 SSTORE POP PUSH1 0x0 DUP2 PUSH1 0x4 ADD DUP2 SWAP1 SSTORE POP POP POP POP POP JUMP JUMPDEST PUSH1 0x6 SLOAD DUP2 JUMP JUMPDEST PUSH1 0x1 PUSH1 0x0 SWAP1 SLOAD SWAP1 PUSH2 0x100 EXP SWAP1 DIV PUSH20 0xFFFFFFFFFFFFFFFFFFFFFFFFFFFFFFFFFFFFFFFF AND DUP2 JUMP JUMPDEST PUSH1 0x0 DUP1 PUSH1 0x0 CALLER PUSH20 0xFFFFFFFFFFFFFFFFFFFFFFFFFFFFFFFFFFFFFFFF AND PUSH20 0xFFFFFFFFFFFFFFFFFFFFFFFFFFFFFFFFFFFFFFFF AND DUP2 MSTORE PUSH1 0x20 ADD SWAP1 DUP2 MSTORE PUSH1 0x20 ADD PUSH1 0x0 KECCAK256 SLOAD GT PUSH2 0x898 JUMPI PUSH1 0x40 MLOAD PUSH32 0x8C379A000000000000000000000000000000000000000000000000000000000 DUP2 MSTORE PUSH1 0x4 ADD PUSH2 0x88F SWAP1 PUSH2 0x16FD JUMP JUMPDEST PUSH1 0x40 MLOAD DUP1 SWAP2 SUB SWAP1 REVERT JUMPDEST PUSH1 0x0 PUSH1 0x7 PUSH1 0x0 DUP4 DUP2 MSTORE PUSH1 0x20 ADD SWAP1 DUP2 MSTORE PUSH1 0x20 ADD PUSH1 0x0 KECCAK256 SWAP1 POP PUSH1 0x0 ISZERO ISZERO DUP2 PUSH1 0x5 ADD PUSH1 0x0 CALLER PUSH20 0xFFFFFFFFFFFFFFFFFFFFFFFFFFFFFFFFFFFFFFFF AND PUSH20 0xFFFFFFFFFFFFFFFFFFFFFFFFFFFFFFFFFFFFFFFF AND DUP2 MSTORE PUSH1 0x20 ADD SWAP1 DUP2 MSTORE PUSH1 0x20 ADD PUSH1 0x0 KECCAK256 PUSH1 0x0 SWAP1 SLOAD SWAP1 PUSH2 0x100 EXP SWAP1 DIV PUSH1 0xFF AND ISZERO ISZERO EQ PUSH2 0x944 JUMPI PUSH1 0x40 MLOAD PUSH32 0x8C379A000000000000000000000000000000000000000000000000000000000 DUP2 MSTORE PUSH1 0x4 ADD PUSH2 0x93B SWAP1 PUSH2 0x1769 JUMP JUMPDEST PUSH1 0x40 MLOAD DUP1 SWAP2 SUB SWAP1 REVERT JUMPDEST PUSH1 0x1 DUP2 PUSH1 0x5 ADD PUSH1 0x0 CALLER PUSH20 0xFFFFFFFFFFFFFFFFFFFFFFFFFFFFFFFFFFFFFFFF AND PUSH20 0xFFFFFFFFFFFFFFFFFFFFFFFFFFFFFFFFFFFFFFFF AND DUP2 MSTORE PUSH1 0x20 ADD SWAP1 DUP2 MSTORE PUSH1 0x20 ADD PUSH1 0x0 KECCAK256 PUSH1 0x0 PUSH2 0x100 EXP DUP2 SLOAD DUP2 PUSH1 0xFF MUL NOT AND SWAP1 DUP4 ISZERO ISZERO MUL OR SWAP1 SSTORE POP DUP1 PUSH1 0x4 ADD PUSH1 0x0 DUP2 SLOAD DUP1 SWAP3 SWAP2 SWAP1 PUSH2 0x9B3 SWAP1 PUSH2 0x1121 JUMP JUMPDEST SWAP2 SWAP1 POP SSTORE POP POP POP JUMP JUMPDEST PUSH1 0x5 SLOAD DUP2 JUMP JUMPDEST PUSH1 0x2 SLOAD TIMESTAMP GT PUSH2 0xA06 JUMPI PUSH1 0x40 MLOAD PUSH32 0x8C379A000000000000000000000000000000000000000000000000000000000 DUP2 MSTORE PUSH1 0x4 ADD PUSH2 0x9FD SWAP1 PUSH2 0x17D5 JUMP JUMPDEST PUSH1 0x40 MLOAD DUP1 SWAP2 SUB SWAP1 REVERT JUMPDEST PUSH1 0x0 DUP1 PUSH1 0x0 CALLER PUSH20 0xFFFFFFFFFFFFFFFFFFFFFFFFFFFFFFFFFFFFFFFF AND PUSH20 0xFFFFFFFFFFFFFFFFFFFFFFFFFFFFFFFFFFFFFFFF AND DUP2 MSTORE PUSH1 0x20 ADD SWAP1 DUP2 MSTORE PUSH1 0x20 ADD PUSH1 0x0 KECCAK256 SLOAD GT PUSH2 0xA51 JUMPI PUSH1 0x0 DUP1 REVERT JUMPDEST PUSH1 0x0 CALLER SWAP1 POP DUP1 PUSH20 0xFFFFFFFFFFFFFFFFFFFFFFFFFFFFFFFFFFFFFFFF AND PUSH2 0x8FC PUSH1 0x0 DUP1 CALLER PUSH20 0xFFFFFFFFFFFFFFFFFFFFFFFFFFFFFFFFFFFFFFFF AND PUSH20 0xFFFFFFFFFFFFFFFFFFFFFFFFFFFFFFFFFFFFFFFF AND DUP2 MSTORE PUSH1 0x20 ADD SWAP1 DUP2 MSTORE PUSH1 0x20 ADD PUSH1 0x0 KECCAK256 SLOAD SWAP1 DUP2 ISZERO MUL SWAP1 PUSH1 0x40 MLOAD PUSH1 0x0 PUSH1 0x40 MLOAD DUP1 DUP4 SUB DUP2 DUP6 DUP9 DUP9 CALL SWAP4 POP POP POP POP ISZERO DUP1 ISZERO PUSH2 0xADA JUMPI RETURNDATASIZE PUSH1 0x0 DUP1 RETURNDATACOPY RETURNDATASIZE PUSH1 0x0 REVERT JUMPDEST POP PUSH1 0x0 DUP1 PUSH1 0x0 CALLER PUSH20 0xFFFFFFFFFFFFFFFFFFFFFFFFFFFFFFFFFFFFFFFF AND PUSH20 0xFFFFFFFFFFFFFFFFFFFFFFFFFFFFFFFFFFFFFFFF AND DUP2 MSTORE PUSH1 0x20 ADD SWAP1 DUP2 MSTORE PUSH1 0x20 ADD PUSH1 0x0 KECCAK256 DUP2 SWAP1 SSTORE POP POP JUMP JUMPDEST PUSH1 0x0 SELFBALANCE SWAP1 POP SWAP1 JUMP JUMPDEST PUSH1 0x7 PUSH1 0x20 MSTORE DUP1 PUSH1 0x0 MSTORE PUSH1 0x40 PUSH1 0x0 KECCAK256 PUSH1 0x0 SWAP2 POP SWAP1 POP DUP1 PUSH1 0x0 ADD DUP1 SLOAD PUSH2 0xB4D SWAP1 PUSH2 0x1402 JUMP JUMPDEST DUP1 PUSH1 0x1F ADD PUSH1 0x20 DUP1 SWAP2 DIV MUL PUSH1 0x20 ADD PUSH1 0x40 MLOAD SWAP1 DUP2 ADD PUSH1 0x40 MSTORE DUP1 SWAP3 SWAP2 SWAP1 DUP2 DUP2 MSTORE PUSH1 0x20 ADD DUP3 DUP1 SLOAD PUSH2 0xB79 SWAP1 PUSH2 0x1402 JUMP JUMPDEST DUP1 ISZERO PUSH2 0xBC6 JUMPI DUP1 PUSH1 0x1F LT PUSH2 0xB9B JUMPI PUSH2 0x100 DUP1 DUP4 SLOAD DIV MUL DUP4 MSTORE SWAP2 PUSH1 0x20 ADD SWAP2 PUSH2 0xBC6 JUMP JUMPDEST DUP3 ADD SWAP2 SWAP1 PUSH1 0x0 MSTORE PUSH1 0x20 PUSH1 0x0 KECCAK256 SWAP1 JUMPDEST DUP2 SLOAD DUP2 MSTORE SWAP1 PUSH1 0x1 ADD SWAP1 PUSH1 0x20 ADD DUP1 DUP4 GT PUSH2 0xBA9 JUMPI DUP3 SWAP1 SUB PUSH1 0x1F AND DUP3 ADD SWAP2 JUMPDEST POP POP POP POP POP SWAP1 DUP1 PUSH1 0x1 ADD PUSH1 0x0 SWAP1 SLOAD SWAP1 PUSH2 0x100 EXP SWAP1 DIV PUSH20 0xFFFFFFFFFFFFFFFFFFFFFFFFFFFFFFFFFFFFFFFF AND SWAP1 DUP1 PUSH1 0x2 ADD SLOAD SWAP1 DUP1 PUSH1 0x3 ADD PUSH1 0x0 SWAP1 SLOAD SWAP1 PUSH2 0x100 EXP SWAP1 DIV PUSH1 0xFF AND SWAP1 DUP1 PUSH1 0x4 ADD SLOAD SWAP1 POP DUP6 JUMP JUMPDEST PUSH1 0x8 SLOAD DUP2 JUMP JUMPDEST PUSH1 0x4 SLOAD DUP2 JUMP JUMPDEST PUSH1 0x3 SLOAD DUP2 JUMP JUMPDEST PUSH1 0x0 PUSH1 0x40 MLOAD SWAP1 POP SWAP1 JUMP JUMPDEST PUSH1 0x0 DUP1 REVERT JUMPDEST PUSH1 0x0 DUP1 REVERT JUMPDEST PUSH1 0x0 DUP2 SWAP1 POP SWAP2 SWAP1 POP JUMP JUMPDEST PUSH2 0xC4E DUP2 PUSH2 0xC3B JUMP JUMPDEST DUP2 EQ PUSH2 0xC59 JUMPI PUSH1 0x0 DUP1 REVERT JUMPDEST POP JUMP JUMPDEST PUSH1 0x0 DUP2 CALLDATALOAD SWAP1 POP PUSH2 0xC6B DUP2 PUSH2 0xC45 JUMP JUMPDEST SWAP3 SWAP2 POP POP JUMP JUMPDEST PUSH1 0x0 PUSH1 0x20 DUP3 DUP5 SUB SLT ISZERO PUSH2 0xC87 JUMPI PUSH2 0xC86 PUSH2 0xC31 JUMP JUMPDEST JUMPDEST PUSH1 0x0 PUSH2 0xC95 DUP5 DUP3 DUP6 ADD PUSH2 0xC5C JUMP JUMPDEST SWAP2 POP POP SWAP3 SWAP2 POP POP JUMP JUMPDEST PUSH2 0xCA7 DUP2 PUSH2 0xC3B JUMP JUMPDEST DUP3 MSTORE POP POP JUMP JUMPDEST PUSH1 0x0 PUSH1 0x20 DUP3 ADD SWAP1 POP PUSH2 0xCC2 PUSH1 0x0 DUP4 ADD DUP5 PUSH2 0xC9E JUMP JUMPDEST SWAP3 SWAP2 POP POP JUMP JUMPDEST PUSH1 0x0 DUP1 REVERT JUMPDEST PUSH1 0x0 DUP1 REVERT JUMPDEST PUSH1 0x0 PUSH1 0x1F NOT PUSH1 0x1F DUP4 ADD AND SWAP1 POP SWAP2 SWAP1 POP JUMP JUMPDEST PUSH32 0x4E487B7100000000000000000000000000000000000000000000000000000000 PUSH1 0x0 MSTORE PUSH1 0x41 PUSH1 0x4 MSTORE PUSH1 0x24 PUSH1 0x0 REVERT JUMPDEST PUSH2 0xD1B DUP3 PUSH2 0xCD2 JUMP JUMPDEST DUP2 ADD DUP2 DUP2 LT PUSH8 0xFFFFFFFFFFFFFFFF DUP3 GT OR ISZERO PUSH2 0xD3A JUMPI PUSH2 0xD39 PUSH2 0xCE3 JUMP JUMPDEST JUMPDEST DUP1 PUSH1 0x40 MSTORE POP POP POP JUMP JUMPDEST PUSH1 0x0 PUSH2 0xD4D PUSH2 0xC27 JUMP JUMPDEST SWAP1 POP PUSH2 0xD59 DUP3 DUP3 PUSH2 0xD12 JUMP JUMPDEST SWAP2 SWAP1 POP JUMP JUMPDEST PUSH1 0x0 PUSH8 0xFFFFFFFFFFFFFFFF DUP3 GT ISZERO PUSH2 0xD79 JUMPI PUSH2 0xD78 PUSH2 0xCE3 JUMP JUMPDEST JUMPDEST PUSH2 0xD82 DUP3 PUSH2 0xCD2 JUMP JUMPDEST SWAP1 POP PUSH1 0x20 DUP2 ADD SWAP1 POP SWAP2 SWAP1 POP JUMP JUMPDEST DUP3 DUP2 DUP4 CALLDATACOPY PUSH1 0x0 DUP4 DUP4 ADD MSTORE POP POP POP JUMP JUMPDEST PUSH1 0x0 PUSH2 0xDB1 PUSH2 0xDAC DUP5 PUSH2 0xD5E JUMP JUMPDEST PUSH2 0xD43 JUMP JUMPDEST SWAP1 POP DUP3 DUP2 MSTORE PUSH1 0x20 DUP2 ADD DUP5 DUP5 DUP5 ADD GT ISZERO PUSH2 0xDCD JUMPI PUSH2 0xDCC PUSH2 0xCCD JUMP JUMPDEST JUMPDEST PUSH2 0xDD8 DUP5 DUP3 DUP6 PUSH2 0xD8F JUMP JUMPDEST POP SWAP4 SWAP3 POP POP POP JUMP JUMPDEST PUSH1 0x0 DUP3 PUSH1 0x1F DUP4 ADD SLT PUSH2 0xDF5 JUMPI PUSH2 0xDF4 PUSH2 0xCC8 JUMP JUMPDEST JUMPDEST DUP2 CALLDATALOAD PUSH2 0xE05 DUP5 DUP3 PUSH1 0x20 DUP7 ADD PUSH2 0xD9E JUMP JUMPDEST SWAP2 POP POP SWAP3 SWAP2 POP POP JUMP JUMPDEST PUSH1 0x0 PUSH20 0xFFFFFFFFFFFFFFFFFFFFFFFFFFFFFFFFFFFFFFFF DUP3 AND SWAP1 POP SWAP2 SWAP1 POP JUMP JUMPDEST PUSH1 0x0 PUSH2 0xE39 DUP3 PUSH2 0xE0E JUMP JUMPDEST SWAP1 POP SWAP2 SWAP1 POP JUMP JUMPDEST PUSH2 0xE49 DUP2 PUSH2 0xE2E JUMP JUMPDEST DUP2 EQ PUSH2 0xE54 JUMPI PUSH1 0x0 DUP1 REVERT JUMPDEST POP JUMP JUMPDEST PUSH1 0x0 DUP2 CALLDATALOAD SWAP1 POP PUSH2 0xE66 DUP2 PUSH2 0xE40 JUMP JUMPDEST SWAP3 SWAP2 POP POP JUMP JUMPDEST PUSH1 0x0 DUP1 PUSH1 0x0 PUSH1 0x60 DUP5 DUP7 SUB SLT ISZERO PUSH2 0xE85 JUMPI PUSH2 0xE84 PUSH2 0xC31 JUMP JUMPDEST JUMPDEST PUSH1 0x0 DUP5 ADD CALLDATALOAD PUSH8 0xFFFFFFFFFFFFFFFF DUP2 GT ISZERO PUSH2 0xEA3 JUMPI PUSH2 0xEA2 PUSH2 0xC36 JUMP JUMPDEST JUMPDEST PUSH2 0xEAF DUP7 DUP3 DUP8 ADD PUSH2 0xDE0 JUMP JUMPDEST SWAP4 POP POP PUSH1 0x20 PUSH2 0xEC0 DUP7 DUP3 DUP8 ADD PUSH2 0xE57 JUMP JUMPDEST SWAP3 POP POP PUSH1 0x40 PUSH2 0xED1 DUP7 DUP3 DUP8 ADD PUSH2 0xC5C JUMP JUMPDEST SWAP2 POP POP SWAP3 POP SWAP3 POP SWAP3 JUMP JUMPDEST PUSH1 0x0 PUSH2 0xEE6 DUP3 PUSH2 0xE0E JUMP JUMPDEST SWAP1 POP SWAP2 SWAP1 POP JUMP JUMPDEST PUSH2 0xEF6 DUP2 PUSH2 0xEDB JUMP JUMPDEST DUP3 MSTORE POP POP JUMP JUMPDEST PUSH1 0x0 PUSH1 0x20 DUP3 ADD SWAP1 POP PUSH2 0xF11 PUSH1 0x0 DUP4 ADD DUP5 PUSH2 0xEED JUMP JUMPDEST SWAP3 SWAP2 POP POP JUMP JUMPDEST PUSH1 0x0 DUP2 MLOAD SWAP1 POP SWAP2 SWAP1 POP JUMP JUMPDEST PUSH1 0x0 DUP3 DUP3 MSTORE PUSH1 0x20 DUP3 ADD SWAP1 POP SWAP3 SWAP2 POP POP JUMP JUMPDEST PUSH1 0x0 JUMPDEST DUP4 DUP2 LT ISZERO PUSH2 0xF51 JUMPI DUP1 DUP3 ADD MLOAD DUP2 DUP5 ADD MSTORE PUSH1 0x20 DUP2 ADD SWAP1 POP PUSH2 0xF36 JUMP JUMPDEST PUSH1 0x0 DUP5 DUP5 ADD MSTORE POP POP POP POP JUMP JUMPDEST PUSH1 0x0 PUSH2 0xF68 DUP3 PUSH2 0xF17 JUMP JUMPDEST PUSH2 0xF72 DUP2 DUP6 PUSH2 0xF22 JUMP JUMPDEST SWAP4 POP PUSH2 0xF82 DUP2 DUP6 PUSH1 0x20 DUP7 ADD PUSH2 0xF33 JUMP JUMPDEST PUSH2 0xF8B DUP2 PUSH2 0xCD2 JUMP JUMPDEST DUP5 ADD SWAP2 POP POP SWAP3 SWAP2 POP POP JUMP JUMPDEST PUSH2 0xF9F DUP2 PUSH2 0xE2E JUMP JUMPDEST DUP3 MSTORE POP POP JUMP JUMPDEST PUSH1 0x0 DUP2 ISZERO ISZERO SWAP1 POP SWAP2 SWAP1 POP JUMP JUMPDEST PUSH2 0xFBA DUP2 PUSH2 0xFA5 JUMP JUMPDEST DUP3 MSTORE POP POP JUMP JUMPDEST PUSH1 0x0 PUSH1 0xA0 DUP3 ADD SWAP1 POP DUP2 DUP2 SUB PUSH1 0x0 DUP4 ADD MSTORE PUSH2 0xFDA DUP2 DUP9 PUSH2 0xF5D JUMP JUMPDEST SWAP1 POP PUSH2 0xFE9 PUSH1 0x20 DUP4 ADD DUP8 PUSH2 0xF96 JUMP JUMPDEST PUSH2 0xFF6 PUSH1 0x40 DUP4 ADD DUP7 PUSH2 0xC9E JUMP JUMPDEST PUSH2 0x1003 PUSH1 0x60 DUP4 ADD DUP6 PUSH2 0xFB1 JUMP JUMPDEST PUSH2 0x1010 PUSH1 0x80 DUP4 ADD DUP5 PUSH2 0xC9E JUMP JUMPDEST SWAP7 SWAP6 POP POP POP POP POP POP JUMP JUMPDEST PUSH32 0x646561646C696E65207061737365640000000000000000000000000000000000 PUSH1 0x0 DUP3 ADD MSTORE POP JUMP JUMPDEST PUSH1 0x0 PUSH2 0x1050 PUSH1 0xF DUP4 PUSH2 0xF22 JUMP JUMPDEST SWAP2 POP PUSH2 0x105B DUP3 PUSH2 0x101A JUMP JUMPDEST PUSH1 0x20 DUP3 ADD SWAP1 POP SWAP2 SWAP1 POP JUMP JUMPDEST PUSH1 0x0 PUSH1 0x20 DUP3 ADD SWAP1 POP DUP2 DUP2 SUB PUSH1 0x0 DUP4 ADD MSTORE PUSH2 0x107F DUP2 PUSH2 0x1043 JUMP JUMPDEST SWAP1 POP SWAP2 SWAP1 POP JUMP JUMPDEST PUSH32 0x6D696E696D756D20636F6E747269627574696F6E206E6F74206D657400000000 PUSH1 0x0 DUP3 ADD MSTORE POP JUMP JUMPDEST PUSH1 0x0 PUSH2 0x10BC PUSH1 0x1C DUP4 PUSH2 0xF22 JUMP JUMPDEST SWAP2 POP PUSH2 0x10C7 DUP3 PUSH2 0x1086 JUMP JUMPDEST PUSH1 0x20 DUP3 ADD SWAP1 POP SWAP2 SWAP1 POP JUMP JUMPDEST PUSH1 0x0 PUSH1 0x20 DUP3 ADD SWAP1 POP DUP2 DUP2 SUB PUSH1 0x0 DUP4 ADD MSTORE PUSH2 0x10EB DUP2 PUSH2 0x10AF JUMP JUMPDEST SWAP1 POP SWAP2 SWAP1 POP JUMP JUMPDEST PUSH32 0x4E487B7100000000000000000000000000000000000000000000000000000000 PUSH1 0x0 MSTORE PUSH1 0x11 PUSH1 0x4 MSTORE PUSH1 0x24 PUSH1 0x0 REVERT JUMPDEST PUSH1 0x0 PUSH2 0x112C DUP3 PUSH2 0xC3B JUMP JUMPDEST SWAP2 POP PUSH32 0xFFFFFFFFFFFFFFFFFFFFFFFFFFFFFFFFFFFFFFFFFFFFFFFFFFFFFFFFFFFFFFFF DUP3 SUB PUSH2 0x115E JUMPI PUSH2 0x115D PUSH2 0x10F2 JUMP JUMPDEST JUMPDEST PUSH1 0x1 DUP3 ADD SWAP1 POP SWAP2 SWAP1 POP JUMP JUMPDEST PUSH1 0x0 PUSH2 0x1174 DUP3 PUSH2 0xC3B JUMP JUMPDEST SWAP2 POP PUSH2 0x117F DUP4 PUSH2 0xC3B JUMP JUMPDEST SWAP3 POP DUP3 DUP3 ADD SWAP1 POP DUP1 DUP3 GT ISZERO PUSH2 0x1197 JUMPI PUSH2 0x1196 PUSH2 0x10F2 JUMP JUMPDEST JUMPDEST SWAP3 SWAP2 POP POP JUMP JUMPDEST PUSH32 0x6F6E6C79206D616E616765722063616E2063616C6C20746869732066756E636E PUSH1 0x0 DUP3 ADD MSTORE PUSH32 0x6374696F6E000000000000000000000000000000000000000000000000000000 PUSH1 0x20 DUP3 ADD MSTORE POP JUMP JUMPDEST PUSH1 0x0 PUSH2 0x11F9 PUSH1 0x25 DUP4 PUSH2 0xF22 JUMP JUMPDEST SWAP2 POP PUSH2 0x1204 DUP3 PUSH2 0x119D JUMP JUMPDEST PUSH1 0x40 DUP3 ADD SWAP1 POP SWAP2 SWAP1 POP JUMP JUMPDEST PUSH1 0x0 PUSH1 0x20 DUP3 ADD SWAP1 POP DUP2 DUP2 SUB PUSH1 0x0 DUP4 ADD MSTORE PUSH2 0x1228 DUP2 PUSH2 0x11EC JUMP JUMPDEST SWAP1 POP SWAP2 SWAP1 POP JUMP JUMPDEST PUSH32 0x546172676574206E6F74206D6574000000000000000000000000000000000000 PUSH1 0x0 DUP3 ADD MSTORE POP JUMP JUMPDEST PUSH1 0x0 PUSH2 0x1265 PUSH1 0xE DUP4 PUSH2 0xF22 JUMP JUMPDEST SWAP2 POP PUSH2 0x1270 DUP3 PUSH2 0x122F JUMP JUMPDEST PUSH1 0x20 DUP3 ADD SWAP1 POP SWAP2 SWAP1 POP JUMP JUMPDEST PUSH1 0x0 PUSH1 0x20 DUP3 ADD SWAP1 POP DUP2 DUP2 SUB PUSH1 0x0 DUP4 ADD MSTORE PUSH2 0x1294 DUP2 PUSH2 0x1258 JUMP JUMPDEST SWAP1 POP SWAP2 SWAP1 POP JUMP JUMPDEST PUSH32 0x5265717565737420616C726561647920636F6D706C6574656400000000000000 PUSH1 0x0 DUP3 ADD MSTORE POP JUMP JUMPDEST PUSH1 0x0 PUSH2 0x12D1 PUSH1 0x19 DUP4 PUSH2 0xF22 JUMP JUMPDEST SWAP2 POP PUSH2 0x12DC DUP3 PUSH2 0x129B JUMP JUMPDEST PUSH1 0x20 DUP3 ADD SWAP1 POP SWAP2 SWAP1 POP JUMP JUMPDEST PUSH1 0x0 PUSH1 0x20 DUP3 ADD SWAP1 POP DUP2 DUP2 SUB PUSH1 0x0 DUP4 ADD MSTORE PUSH2 0x1300 DUP2 PUSH2 0x12C4 JUMP JUMPDEST SWAP1 POP SWAP2 SWAP1 POP JUMP JUMPDEST PUSH32 0x4E487B7100000000000000000000000000000000000000000000000000000000 PUSH1 0x0 MSTORE PUSH1 0x12 PUSH1 0x4 MSTORE PUSH1 0x24 PUSH1 0x0 REVERT JUMPDEST PUSH1 0x0 PUSH2 0x1341 DUP3 PUSH2 0xC3B JUMP JUMPDEST SWAP2 POP PUSH2 0x134C DUP4 PUSH2 0xC3B JUMP JUMPDEST SWAP3 POP DUP3 PUSH2 0x135C JUMPI PUSH2 0x135B PUSH2 0x1307 JUMP JUMPDEST JUMPDEST DUP3 DUP3 DIV SWAP1 POP SWAP3 SWAP2 POP POP JUMP JUMPDEST PUSH32 0x4E6F7420656E6F75676820766F74657300000000000000000000000000000000 PUSH1 0x0 DUP3 ADD MSTORE POP JUMP JUMPDEST PUSH1 0x0 PUSH2 0x139D PUSH1 0x10 DUP4 PUSH2 0xF22 JUMP JUMPDEST SWAP2 POP PUSH2 0x13A8 DUP3 PUSH2 0x1367 JUMP JUMPDEST PUSH1 0x20 DUP3 ADD SWAP1 POP SWAP2 SWAP1 POP JUMP JUMPDEST PUSH1 0x0 PUSH1 0x20 DUP3 ADD SWAP1 POP DUP2 DUP2 SUB PUSH1 0x0 DUP4 ADD MSTORE PUSH2 0x13CC DUP2 PUSH2 0x1390 JUMP JUMPDEST SWAP1 POP SWAP2 SWAP1 POP JUMP JUMPDEST PUSH32 0x4E487B7100000000000000000000000000000000000000000000000000000000 PUSH1 0x0 MSTORE PUSH1 0x22 PUSH1 0x4 MSTORE PUSH1 0x24 PUSH1 0x0 REVERT JUMPDEST PUSH1 0x0 PUSH1 0x2 DUP3 DIV SWAP1 POP PUSH1 0x1 DUP3 AND DUP1 PUSH2 0x141A JUMPI PUSH1 0x7F DUP3 AND SWAP2 POP JUMPDEST PUSH1 0x20 DUP3 LT DUP2 SUB PUSH2 0x142D JUMPI PUSH2 0x142C PUSH2 0x13D3 JUMP JUMPDEST JUMPDEST POP SWAP2 SWAP1 POP JUMP JUMPDEST PUSH1 0x0 DUP2 SWAP1 POP DUP2 PUSH1 0x0 MSTORE PUSH1 0x20 PUSH1 0x0 KECCAK256 SWAP1 POP SWAP2 SWAP1 POP JUMP JUMPDEST PUSH1 0x0 PUSH1 0x20 PUSH1 0x1F DUP4 ADD DIV SWAP1 POP SWAP2 SWAP1 POP JUMP JUMPDEST PUSH1 0x0 DUP3 DUP3 SHL SWAP1 POP SWAP3 SWAP2 POP POP JUMP JUMPDEST PUSH1 0x0 PUSH1 0x8 DUP4 MUL PUSH2 0x1495 PUSH32 0xFFFFFFFFFFFFFFFFFFFFFFFFFFFFFFFFFFFFFFFFFFFFFFFFFFFFFFFFFFFFFFFF DUP3 PUSH2 0x1458 JUMP JUMPDEST PUSH2 0x149F DUP7 DUP4 PUSH2 0x1458 JUMP JUMPDEST SWAP6 POP DUP1 NOT DUP5 AND SWAP4 POP DUP1 DUP7 AND DUP5 OR SWAP3 POP POP POP SWAP4 SWAP3 POP POP POP JUMP JUMPDEST PUSH1 0x0 DUP2 SWAP1 POP SWAP2 SWAP1 POP JUMP JUMPDEST PUSH1 0x0 PUSH2 0x14DC PUSH2 0x14D7 PUSH2 0x14D2 DUP5 PUSH2 0xC3B JUMP JUMPDEST PUSH2 0x14B7 JUMP JUMPDEST PUSH2 0xC3B JUMP JUMPDEST SWAP1 POP SWAP2 SWAP1 POP JUMP JUMPDEST PUSH1 0x0 DUP2 SWAP1 POP SWAP2 SWAP1 POP JUMP JUMPDEST PUSH2 0x14F6 DUP4 PUSH2 0x14C1 JUMP JUMPDEST PUSH2 0x150A PUSH2 0x1502 DUP3 PUSH2 0x14E3 JUMP JUMPDEST DUP5 DUP5 SLOAD PUSH2 0x1465 JUMP JUMPDEST DUP3 SSTORE POP POP POP POP JUMP JUMPDEST PUSH1 0x0 SWAP1 JUMP JUMPDEST PUSH2 0x151F PUSH2 0x1512 JUMP JUMPDEST PUSH2 0x152A DUP2 DUP5 DUP5 PUSH2 0x14ED JUMP JUMPDEST POP POP POP JUMP JUMPDEST JUMPDEST DUP2 DUP2 LT ISZERO PUSH2 0x154E JUMPI PUSH2 0x1543 PUSH1 0x0 DUP3 PUSH2 0x1517 JUMP JUMPDEST PUSH1 0x1 DUP2 ADD SWAP1 POP PUSH2 0x1530 JUMP JUMPDEST POP POP JUMP JUMPDEST PUSH1 0x1F DUP3 GT ISZERO PUSH2 0x1593 JUMPI PUSH2 0x1564 DUP2 PUSH2 0x1433 JUMP JUMPDEST PUSH2 0x156D DUP5 PUSH2 0x1448 JUMP JUMPDEST DUP2 ADD PUSH1 0x20 DUP6 LT ISZERO PUSH2 0x157C JUMPI DUP2 SWAP1 POP JUMPDEST PUSH2 0x1590 PUSH2 0x1588 DUP6 PUSH2 0x1448 JUMP JUMPDEST DUP4 ADD DUP3 PUSH2 0x152F JUMP JUMPDEST POP POP JUMPDEST POP POP POP JUMP JUMPDEST PUSH1 0x0 DUP3 DUP3 SHR SWAP1 POP SWAP3 SWAP2 POP POP JUMP JUMPDEST PUSH1 0x0 PUSH2 0x15B6 PUSH1 0x0 NOT DUP5 PUSH1 0x8 MUL PUSH2 0x1598 JUMP JUMPDEST NOT DUP1 DUP4 AND SWAP2 POP POP SWAP3 SWAP2 POP POP JUMP JUMPDEST PUSH1 0x0 PUSH2 0x15CF DUP4 DUP4 PUSH2 0x15A5 JUMP JUMPDEST SWAP2 POP DUP3 PUSH1 0x2 MUL DUP3 OR SWAP1 POP SWAP3 SWAP2 POP POP JUMP JUMPDEST PUSH2 0x15E8 DUP3 PUSH2 0xF17 JUMP JUMPDEST PUSH8 0xFFFFFFFFFFFFFFFF DUP2 GT ISZERO PUSH2 0x1601 JUMPI PUSH2 0x1600 PUSH2 0xCE3 JUMP JUMPDEST JUMPDEST PUSH2 0x160B DUP3 SLOAD PUSH2 0x1402 JUMP JUMPDEST PUSH2 0x1616 DUP3 DUP3 DUP6 PUSH2 0x1552 JUMP JUMPDEST PUSH1 0x0 PUSH1 0x20 SWAP1 POP PUSH1 0x1F DUP4 GT PUSH1 0x1 DUP2 EQ PUSH2 0x1649 JUMPI PUSH1 0x0 DUP5 ISZERO PUSH2 0x1637 JUMPI DUP3 DUP8 ADD MLOAD SWAP1 POP JUMPDEST PUSH2 0x1641 DUP6 DUP3 PUSH2 0x15C3 JUMP JUMPDEST DUP7 SSTORE POP PUSH2 0x16A9 JUMP JUMPDEST PUSH1 0x1F NOT DUP5 AND PUSH2 0x1657 DUP7 PUSH2 0x1433 JUMP JUMPDEST PUSH1 0x0 JUMPDEST DUP3 DUP2 LT ISZERO PUSH2 0x167F JUMPI DUP5 DUP10 ADD MLOAD DUP3 SSTORE PUSH1 0x1 DUP3 ADD SWAP2 POP PUSH1 0x20 DUP6 ADD SWAP5 POP PUSH1 0x20 DUP2 ADD SWAP1 POP PUSH2 0x165A JUMP JUMPDEST DUP7 DUP4 LT ISZERO PUSH2 0x169C JUMPI DUP5 DUP10 ADD MLOAD PUSH2 0x1698 PUSH1 0x1F DUP10 AND DUP3 PUSH2 0x15A5 JUMP JUMPDEST DUP4 SSTORE POP JUMPDEST PUSH1 0x1 PUSH1 0x2 DUP9 MUL ADD DUP9 SSTORE POP POP POP JUMPDEST POP POP POP POP POP POP JUMP JUMPDEST PUSH32 0x596F7520617265206E6F74206120636F6E7472696275746F7200000000000000 PUSH1 0x0 DUP3 ADD MSTORE POP JUMP JUMPDEST PUSH1 0x0 PUSH2 0x16E7 PUSH1 0x19 DUP4 PUSH2 0xF22 JUMP JUMPDEST SWAP2 POP PUSH2 0x16F2 DUP3 PUSH2 0x16B1 JUMP JUMPDEST PUSH1 0x20 DUP3 ADD SWAP1 POP SWAP2 SWAP1 POP JUMP JUMPDEST PUSH1 0x0 PUSH1 0x20 DUP3 ADD SWAP1 POP DUP2 DUP2 SUB PUSH1 0x0 DUP4 ADD MSTORE PUSH2 0x1716 DUP2 PUSH2 0x16DA JUMP JUMPDEST SWAP1 POP SWAP2 SWAP1 POP JUMP JUMPDEST PUSH32 0x596F75206861766520616C726561647920766F74656400000000000000000000 PUSH1 0x0 DUP3 ADD MSTORE POP JUMP JUMPDEST PUSH1 0x0 PUSH2 0x1753 PUSH1 0x16 DUP4 PUSH2 0xF22 JUMP JUMPDEST SWAP2 POP PUSH2 0x175E DUP3 PUSH2 0x171D JUMP JUMPDEST PUSH1 0x20 DUP3 ADD SWAP1 POP SWAP2 SWAP1 POP JUMP JUMPDEST PUSH1 0x0 PUSH1 0x20 DUP3 ADD SWAP1 POP DUP2 DUP2 SUB PUSH1 0x0 DUP4 ADD MSTORE PUSH2 0x1782 DUP2 PUSH2 0x1746 JUMP JUMPDEST SWAP1 POP SWAP2 SWAP1 POP JUMP JUMPDEST PUSH32 0x6E6F7420656C696769626C650000000000000000000000000000000000000000 PUSH1 0x0 DUP3 ADD MSTORE POP JUMP JUMPDEST PUSH1 0x0 PUSH2 0x17BF PUSH1 0xC DUP4 PUSH2 0xF22 JUMP JUMPDEST SWAP2 POP PUSH2 0x17CA DUP3 PUSH2 0x1789 JUMP JUMPDEST PUSH1 0x20 DUP3 ADD SWAP1 POP SWAP2 SWAP1 POP JUMP JUMPDEST PUSH1 0x0 PUSH1 0x20 DUP3 ADD SWAP1 POP DUP2 DUP2 SUB PUSH1 0x0 DUP4 ADD MSTORE PUSH2 0x17EE DUP2 PUSH2 0x17B2 JUMP JUMPDEST SWAP1 POP SWAP2 SWAP1 POP JUMP INVALID LOG2 PUSH5 0x6970667358 0x22 SLT KECCAK256 BALANCE 0xBB 0xD0 0xB7 0xDF XOR SWAP13 MOD 0xB4 EXTCODESIZE RETURNDATASIZE SHL DUP14 0x1E SWAP5 TIMESTAMP RETURN 0xE6 0xED LOG1 DUP7 BASEFEE CALLDATACOPY RETURNDATACOPY SSTORE EXTCODECOPY SWAP10 SWAP3 PUSH19 0xE5DDB564736F6C634300081200330000000000 "
				},
				"gasEstimates": {
					"creation": {
						"codeDepositCost": "1237400",
						"executionCost": "infinite",
						"totalCost": "infinite"
					},
					"external": {
						"createRequests(string,address,uint256)": "infinite",
						"deadline()": "2497",
						"getContractBalance()": "406",
						"manager()": "2581",
						"minContribution()": "2495",
						"noOfContributors()": "2452",
						"numRequests()": "2473",
						"raisedAmt()": "2474",
						"refund()": "infinite",
						"reqPayment(uint256)": "infinite",
						"requests(uint256)": "infinite",
						"sendEth()": "infinite",
						"target()": "2517",
						"voteRequest(uint256)": "infinite"
					}
				},
				"methodIdentifiers": {
					"createRequests(string,address,uint256)": "3eb7647b",
					"deadline()": "29dcb0cf",
					"getContractBalance()": "6f9fb98a",
					"manager()": "481c6a75",
					"minContribution()": "aaffadf3",
					"noOfContributors()": "4e260f6f",
					"numRequests()": "9fb42b1f",
					"raisedAmt()": "3ece2b4f",
					"refund()": "590e1ae3",
					"reqPayment(uint256)": "10e96b91",
					"requests(uint256)": "81d12c58",
					"sendEth()": "06e99fef",
					"target()": "d4b83992",
					"voteRequest(uint256)": "4cb6f4a5"
				}
			},
			"storageLayout": {
				"storage": [
					{
						"astId": 5,
						"contract": "contracts/crowdFunding.sol:CroudFunding",
						"label": "contributors",
						"offset": 0,
						"slot": "0",
						"type": "t_mapping(t_address,t_uint256)"
					},
					{
						"astId": 7,
						"contract": "contracts/crowdFunding.sol:CroudFunding",
						"label": "manager",
						"offset": 0,
						"slot": "1",
						"type": "t_address"
					},
					{
						"astId": 9,
						"contract": "contracts/crowdFunding.sol:CroudFunding",
						"label": "deadline",
						"offset": 0,
						"slot": "2",
						"type": "t_uint256"
					},
					{
						"astId": 11,
						"contract": "contracts/crowdFunding.sol:CroudFunding",
						"label": "target",
						"offset": 0,
						"slot": "3",
						"type": "t_uint256"
					},
					{
						"astId": 13,
						"contract": "contracts/crowdFunding.sol:CroudFunding",
						"label": "minContribution",
						"offset": 0,
						"slot": "4",
						"type": "t_uint256"
					},
					{
						"astId": 15,
						"contract": "contracts/crowdFunding.sol:CroudFunding",
						"label": "noOfContributors",
						"offset": 0,
						"slot": "5",
						"type": "t_uint256"
					},
					{
						"astId": 17,
						"contract": "contracts/crowdFunding.sol:CroudFunding",
						"label": "raisedAmt",
						"offset": 0,
						"slot": "6",
						"type": "t_uint256"
					},
					{
						"astId": 37,
						"contract": "contracts/crowdFunding.sol:CroudFunding",
						"label": "requests",
						"offset": 0,
						"slot": "7",
						"type": "t_mapping(t_uint256,t_struct(Request)32_storage)"
					},
					{
						"astId": 39,
						"contract": "contracts/crowdFunding.sol:CroudFunding",
						"label": "numRequests",
						"offset": 0,
						"slot": "8",
						"type": "t_uint256"
					}
				],
				"types": {
					"t_address": {
						"encoding": "inplace",
						"label": "address",
						"numberOfBytes": "20"
					},
					"t_address_payable": {
						"encoding": "inplace",
						"label": "address payable",
						"numberOfBytes": "20"
					},
					"t_bool": {
						"encoding": "inplace",
						"label": "bool",
						"numberOfBytes": "1"
					},
					"t_mapping(t_address,t_bool)": {
						"encoding": "mapping",
						"key": "t_address",
						"label": "mapping(address => bool)",
						"numberOfBytes": "32",
						"value": "t_bool"
					},
					"t_mapping(t_address,t_uint256)": {
						"encoding": "mapping",
						"key": "t_address",
						"label": "mapping(address => uint256)",
						"numberOfBytes": "32",
						"value": "t_uint256"
					},
					"t_mapping(t_uint256,t_struct(Request)32_storage)": {
						"encoding": "mapping",
						"key": "t_uint256",
						"label": "mapping(uint256 => struct CroudFunding.Request)",
						"numberOfBytes": "32",
						"value": "t_struct(Request)32_storage"
					},
					"t_string_storage": {
						"encoding": "bytes",
						"label": "string",
						"numberOfBytes": "32"
					},
					"t_struct(Request)32_storage": {
						"encoding": "inplace",
						"label": "struct CroudFunding.Request",
						"members": [
							{
								"astId": 19,
								"contract": "contracts/crowdFunding.sol:CroudFunding",
								"label": "description",
								"offset": 0,
								"slot": "0",
								"type": "t_string_storage"
							},
							{
								"astId": 21,
								"contract": "contracts/crowdFunding.sol:CroudFunding",
								"label": "recipient",
								"offset": 0,
								"slot": "1",
								"type": "t_address_payable"
							},
							{
								"astId": 23,
								"contract": "contracts/crowdFunding.sol:CroudFunding",
								"label": "value",
								"offset": 0,
								"slot": "2",
								"type": "t_uint256"
							},
							{
								"astId": 25,
								"contract": "contracts/crowdFunding.sol:CroudFunding",
								"label": "completed",
								"offset": 0,
								"slot": "3",
								"type": "t_bool"
							},
							{
								"astId": 27,
								"contract": "contracts/crowdFunding.sol:CroudFunding",
								"label": "noOfVoters",
								"offset": 0,
								"slot": "4",
								"type": "t_uint256"
							},
							{
								"astId": 31,
								"contract": "contracts/crowdFunding.sol:CroudFunding",
								"label": "voters",
								"offset": 0,
								"slot": "5",
								"type": "t_mapping(t_address,t_bool)"
							}
						],
						"numberOfBytes": "192"
					},
					"t_uint256": {
						"encoding": "inplace",
						"label": "uint256",
						"numberOfBytes": "32"
					}
				}
			},
			"userdoc": {
				"kind": "user",
				"methods": {},
				"version": 1
			}
		}
	}
}